:100000000C9407010C941C020C9441020C942F01D7
:100010000C942F010C942F010C942F010C942F01A0
:100020000C942F010C942F010C942F010C942F0190
:100030000C942F010C942F010C942F010C942F0180
:100040000C9495270C942F010C94DD330C940F34F1
:100050000C942F010C942F010C942F010C942F0160
:100060000C942F010C942F014E414E494E49545986
:10007000494E46CDCCCC3D0AD7233C17B7D1387773
:10008000CC2B329595E6241FB14F0A000020410089
:1000900000C84200401C4620BCBE4CCA1B0E5AAED3
:1000A000C59D7400407A10F35A00A0724E180900E2
:1000B00010A5D4E80000E87648170000E40B5402CD
:1000C0000000CA9A3B000000E1F505000080969808
:1000D00000000040420F000000A086010000001058
:1000E0002700000000E8030000000064000000009A
:1000F000000A00000000000100000000002C76D87B
:1001000088DC674F0823DFC1DFAE59E1B1B796E560
:10011000E3E453C63AE651997696E8E6C28426EBC4
:10012000898C9B62ED407C6FFCEFBC9C9F40F2BAD7
:10013000A56FA5F490055A2AF75C936B6CF9676D6F
:10014000C11BFCE0E40D47FEF520E6B500D0ED90C4
:100150002E0300943577050080841E080000204E91
:100160000A000000C80C333333330F986E1283112A
:1001700041EF8D2114893BE65516CFFEE6DB18D101
:10018000844B381BF77C1D901DA4BBE424203284D3
:10019000725E228100C9F124ECA1E53D277C3C3E42
:1001A0005E2B3D3F2F5B5D3B2C2A225C0000000054
:1001B0000800020100000304070000000000000026
:1001C00000010204081020408001020408102001F0
:1001D00002040810200404040404040404020202BB
:1001E00002020203030303030300000000230026AE
:1001F00000290000000000250028002B000000005E
:1002000000240027002A0000C0351D364336112483
:100210001FBECFEFD8E0DEBFCDBF11E0A0E0B1E060
:10022000E4EBF0E802C005900D92A03BB107D9F7CE
:1002300024E0A0EBB1E001C01D92A63CB207E1F7BB
:1002400011E0C7E0D1E004C02197FE010E94A93669
:10025000C430D107C9F70E9443340C9458400C9421
:10026000000081E00895AF92BF92CF92DF92EF92AB
:10027000FF920F931F93CF93DF93CDB7DEB76197B4
:100280000FB6F894DEBF0FBECDBF6C017B01FB0142
:1002900084819581419720F0C6010E944D2922C09A
:1002A00081E1EAE0F1E08E010F5F1F4FD80101907C
:1002B0000D928A95E1F75801B501601B710BF701AA
:1002C000848195816817790748F4C7010E94862EBA
:1002D000FC018081F50181935F01EECFB801C60179
:1002E0000E940029C60161960FB6F894DEBF0FBECA
:1002F000CDBFDF91CF911F910F91FF90EF90DF90D5
:10030000CF90BF90AF900895CF92DF92EF92FF927F
:100310000F931F93CF93DF93CDB7DEB72C970FB614
:10032000F894DEBF0FBECDBF8C016B017A0140E0B7
:1003300060E00E94B209B601CE0107960E944D29E5
:10034000BE01695F7F4FCE0101960E943301BE015D
:100350006F5F7F4FC8010E942103CE0101960E946A
:100360009228CE0107960E94922841E060E0C801E1
:100370000E94B209B701CE0107960E944D29BE0125
:10038000695F7F4FCE0101960E943301BE016F5F0E
:100390007F4FC8010E942103CE0101960E9492283E
:1003A000CE0107960E9492282C960FB6F894DEBFD5
:1003B0000FBECDBFDF91CF911F910F91FF90EF90B6
:1003C000DF90CF900895EF92FF920F931F93CF93FA
:1003D000DF93CDB7DEB72C970FB6F894DEBF0FBE14
:1003E000CDBF8C017B0168E571E0CE0101960E94D2
:1003F0000029B701CE0107960E944D29AE014F5F3B
:100400005F4FBE01695F7F4FC8010E948401CE012A
:1004100007960E949228CE0101960E9492282C965F
:100420000FB6F894DEBF0FBECDBFDF91CF911F9105
:100430000F91FF90EF9008951F920F920FB60F92B9
:1004400011248F939F93AF93BF938091B9019091A3
:10045000BA01A091BB01B091BC010196A11DB11DD3
:100460008093B9019093BA01A093BB01B093BC01F2
:10047000BF91AF919F918F910F900FBE0F901F90E2
:1004800018951F920F920FB60F9211248F9380919F
:10049000B0018F5F8093B0018F910F900FBE0F90CE
:1004A0001F901895CF93CFB7F8948091C001811118
:1004B00027C0EFEDF1E08491EBECF1E09491E82FAF
:1004C000F0E0EE0FFF1FE350FE4FA591B491EC91C9
:1004D000E92321F461E08AE00E94843361E08AE04C
:1004E0000E9448338CB580618CBD8CB580648CBD16
:1004F00061E08DE00E94483361E08BE00E94483368
:100500008091C0018F5F8093C001CFBFCF910895CC
:100510009FB7F8948091C001882319F0815080938F
:10052000C0018091C001811105C08CB58F7B8CBD4D
:100530001092BF019FBF08959FB7F894882349F098
:10054000813011F482E006C082E08093BF0180E038
:1005500001C081E02091BE01822B8093BE01809179
:10056000BF01811103C081E08093BF019FBF089547
:100570009091BF019230B1F02FB7F894882321F009
:10058000813021F482E003C081E001C080E08095E9
:100590009091BE0189238093BE01811102C0109207
:1005A000BF012FBF0895CF92DF92EF92FF920F937A
:1005B0001F93CF93DF936C017A018B01C0E0D0E0F1
:1005C000CE15DF0581F0D8016D918D01D601ED9139
:1005D000FC910190F081E02DC6010995892B11F065
:1005E0002196EECF7E01C701DF91CF911F910F9130
:1005F000FF90EF90DF90CF900895EF92FF920F93CE
:100600001F93CF93DF938C017B01C0E0D0E0F70113
:10061000EC0FFD1F6491662361F0D801ED91FC9110
:100620000190F081E02DC8010995892B11F02196E8
:10063000EECFCE01DF91CF911F910F91FF90EF9000
:100640000895DB0114964D915C9115976D917C9105
:10065000DC01ED91FC910280F381E02D09940C9472
:100660003735DC01ED91FC910190F081E02D09948A
:10067000DB01ED91FC9111970190F081E02DBC011F
:10068000CD01099466E571E00C9437350F931F9303
:10069000CF93DF93EC010E94FD028C01CE010E94FA
:1006A0004203800F911FDF91CF911F910F91089509
:1006B0000F931F93CF93DF93EC010E9421038C01D2
:1006C000CE010E944203800F911FDF91CF911F91B5
:1006D0000F9108950F931F93CF93DF93EC010E9426
:1006E00037358C01CE010E944203800F911FDF91AC
:1006F000CF911F910F9108950F931F93CF93DF9385
:10070000EC010E9431038C01CE010E944203800F54
:10071000911FDF91CF911F910F9108950F931F9318
:10072000CF93DF93EC010E9438038C01CE010E942D
:100730004203800F911FDF91CF911F910F91089578
:100740008F929F92AF92BF92EF92FF920F931F935F
:10075000CF93DF93CDB7DEB7A1970FB6F894DEBF86
:100760000FBECDBF7C01FA01CB0119A2223008F4E3
:100770002AE08E010F5D1F4F822E912CA12CB12CEF
:10078000BF01A50194010E947C36F901CA01015004
:1007900011096A3014F4605D01C0695CD8016C9382
:1007A000232B242B252B61F7B801C7010E94373575
:1007B000A1960FB6F894DEBF0FBECDBFDF91CF91EB
:1007C0001F910F91FF90EF90BF90AF909F908F90EF
:1007D00008952115310541F4DC01ED91FC91019062
:1007E000F081E02D642F09940C94A0039A01462F08
:1007F00050E060E070E00C94E9030F931F93CF93F7
:10080000DF93EC010E94F6038C01CE010E944203AB
:10081000800F911FDF91CF911F910F9108959A0141
:10082000AB0160E070E00C94E9030F931F93CF934A
:10083000DF93EC010E940F048C01CE010E94420361
:10084000800F911FDF91CF911F910F9108950F930A
:100850001F93CF93DF93EC010E94E9038C01CE013B
:100860000E944203800F911FDF91CF911F910F9142
:100870000895CF92DF92EF92FF920F931F93CF9341
:10088000DF932115310581F4DC01ED91FC9101909C
:10089000F081E02D642FDF91CF911F910F91FF9098
:1008A000EF90DF90CF9009942A30310501F577FF62
:1008B0001DC06A017B01EC016DE20E9431038C01D5
:1008C00044275527BA014C195D096E097F092AE0B2
:1008D000CE010E94A003800F911FDF91CF911F9145
:1008E0000F91FF90EF90DF90CF9008952AE0DF9175
:1008F000CF911F910F91FF90EF90DF90CF900C94CC
:10090000A0039A01AB01770F660B770B0C943904A7
:100910000F931F93CF93DF93EC010E9481048C010E
:10092000CE010E944203800F911FDF91CF911F9152
:100930000F9108950F931F93CF93DF93EC010E94C3
:1009400039048C01CE010E944203800F911FDF9178
:10095000CF911F910F9108957F928F929F92AF92A6
:10096000BF92CF92DF92EF92FF920F931F93CF939C
:10097000DF938C016A017B01722E9A01AB01C701E2
:10098000B6010E94F538882319F069E571E027C0A7
:1009900046015701E894B7F82FEF3FEF4FE75FE7C5
:1009A000C501B4010E94F53881110DC02FEF3FEF52
:1009B0004FE75FE7C501B4010E942B3718161CF4FE
:1009C0006DE571E00CC02FEF3FEF4FE75FE4C7012B
:1009D000B6010E948338181694F461E671E0C801EC
:1009E000DF91CF911F910F91FF90EF90DF90CF900B
:1009F000BF90AF909F908F907F900C9437352FEFE2
:100A00003FEF4FE75FECC701B6010E942B3787FD30
:100A1000E4CF20E030E0A901C701B6010E942B37E6
:100A200087FF0AC06DE2C8010E943103EC01F7FAAA
:100A3000F094F7F8F09402C0C0E0D0E0B12C60E090
:100A400070E080E09FE37B1441F020E030E040E282
:100A500051E40E943037B394F6CFA70196010E946B
:100A6000BF366B017C010E94A2374B015C012AE07A
:100A7000AB01BC01C8010E94A003C80FD91F772099
:100A8000B9F1C501B4010E94D1379B01AC01C70186
:100A9000B6010E94BE366B017C016EE2C8010E9465
:100AA0003103C80FD91F20E030E040E251E4C70114
:100AB000B6010E9488384B015C010E94A2376B018D
:100AC0007C014AE050E0C8010E940F04C80FD91F02
:100AD000B60180E090E00E94D1379B01AC01C501D6
:100AE000B4010E94BE366B017C017A947110DBCF99
:100AF000CE01DF91CF911F910F91FF90EF90DF908A
:100B0000CF90BF90AF909F908F907F9008950C945E
:100B1000AC040F931F93CF93DF93EC010E94AC04BE
:100B20008C01CE010E944203800F911FDF91CF9173
:100B30001F910F9108950F931F93CF93DF93EC01B3
:100B40000E94DF27688779878A879B87E881F981F8
:100B50000284F385E02DCE01099597FF17C00E940E
:100B6000DF27088519852A853B85DC01CB01801BA1
:100B7000910BA20BB30B0C811D812E813F8180173D
:100B80009107A207B30710F38FEF9FEFDF91CF918B
:100B90001F910F9108950F931F93CF93DF93EC0153
:100BA0000E94DF27688779878A879B87E881F98198
:100BB0000484F585E02DCE01099597FF17C00E94AA
:100BC000DF27088519852A853B85DC01CB01801B41
:100BD000910BA20BB30B0C811D812E813F818017DD
:100BE0009107A207B30710F38FEF9FEFDF91CF912B
:100BF0001F910F910895FF920F931F93CF93DF934F
:100C0000EC018B01F42ECE010E94CB0597FD2DC087
:100C10008D32910519F19C01205331092A3031059B
:100C200020F1FF2019F08E329105D1F0013011052D
:100C3000D1F00230110551F48D30910539F024F4D2
:100C40000997029718F00FC0809769F4E881F9813D
:100C50000284F385E02DCE010995D5CF8DE201C048
:100C60008EE290E002C08FEF9FEFDF91CF911F9156
:100C70000F91FF900895FC01448355836683778329
:100C80000895BF92CF92DF92EF92FF920F931F933E
:100C9000CF93DF938C01C42F40E00E94FB05FC0141
:100CA00097FD47C0C12CD12C7601B12C0C2E000C25
:100CB000DD0BEC17FD0709F1ED32F105E1F0CF0195
:100CC000C0970A97D0F4AAE0B0E0A70196010E946D
:100CD0009E366F01FF0FEE08FF08DC01CB018C0D83
:100CE0009D1DAE1DBF1D6C017D0120E3C21AD10800
:100CF000E108F10802C0BB24B394D801ED91FC9146
:100D00000284F385E02DC8010995C8010E94CB0536
:100D1000FC01C0970A9768F2CE17DF0751F2BB209B
:100D200061F066277727CB016C197D098E099F0931
:100D300006C060E070E0CB0102C0C701B601DF91E0
:100D4000CF911F910F91FF90EF90DF90CF90BF90C8
:100D500008954F925F926F927F92AF92BF92CF921F
:100D6000DF92EF92FF920F931F93CF93DF935C017B
:100D7000042F41E00E94FB05FC0197FD6FC0412C50
:100D8000512C80E8682E8FE3782EC12CD12C76016F
:100D9000C0E0D0E0002E000C110BE017F10769F164
:100DA000ED32F10539F1EE32F10531F1CF01C097A5
:100DB0000A9718F5AAE0B0E0A70196010E949E36B6
:100DC0006F01FF0FEE08FF08C60ED71EE81EF91EC2
:100DD00080E3C81AD108E108F108CC2371F02DECAA
:100DE0003CEC4CEC5DE3C301B2010E9488382B015E
:100DF0003C0103C0D1E001C0C1E0D501ED91FC91FF
:100E00000284F385E02DC5010995C5010E94CB053B
:100E1000FC01C0970A9708F2EE32F10519F4CC23D1
:100E200009F4BBCF0E171F0709F4B7CFDD2341F03C
:100E3000F094E094D094C094C11CD11CE11CF11C2E
:100E4000C701B601CC2339F00E94D337A301920128
:100E50000E94883806C00E94D33703C060E070E06B
:100E6000CB01DF91CF911F910F91FF90EF90DF9019
:100E7000CF90BF90AF907F906F905F904F9008950C
:100E8000CF92DF92EF92FF920F931F93CF93DF9356
:100E90006C017A018B01C0E0D0E0CE15DF0559F07E
:100EA000C6010E949B0597FD05C0F80181938F0143
:100EB0002196F3CF7E01C701DF91CF911F910F9152
:100EC000FF90EF90DF90CF900895AF92BF92CF92B6
:100ED000DF92EF92FF920F931F93CF93DF93211531
:100EE0003105C9F089015C016A01C0E0D0E0E62E5D
:100EF000660FFF08C5010E949B0597FD0FC08E1568
:100F00009F0561F0F60181936F0121960C171D0773
:100F100089F7C80104C080E090E001C0CE01DF91F4
:100F2000CF911F910F91FF90EF90DF90CF90BF90E6
:100F3000AF9008950F931F93CF93DF93EC018B0134
:100F400068E571E00E940029C8010E949B0597FD99
:100F500005C0682FCE010E942B2BF6CFCE01DF916A
:100F6000CF911F910F910895EF92FF920F931F93CE
:100F7000CF93DF93EC017B01042F68E571E00E94C1
:100F80000029C7010E949B05002E000C110B97FD44
:100F90000BC08017910741F0682FCE010E942B2BC8
:100FA000C7010E949B05F3CFCE01DF91CF911F9126
:100FB0000F91FF90EF9008954F925F926F927F9202
:100FC0008F929F92AF92BF92CF92DF92EF92FF9259
:100FD0000F931F93CF93DF938C01EB0186E0849FE7
:100FE0004001859F900C1124860E971EFB01E81589
:100FF000F90508F582819381892B21F13696F7CF87
:101000006081718144815581DB01A40FB51F2C9152
:10101000022E000C330B8217930711F54F5F5F4FC1
:1010200055834483228133814217530759F0369602
:10103000E815F90528F3C8010E949B0597FD46C0F5
:10104000FE01F6CFEC1BFD0BF595E7952BEA3AEA8E
:10105000E29FC001E39F900DF29F900D112438C0D4
:101060004115510521F3C480D580960121503109E5
:1010700035832483DB01A20FB31FAC910A2E000C31
:10108000BB0B8A179B07F9F421153105C9F05B01E9
:101090007A01E21AF30AE60EF71E412C512CD50113
:1010A0006D905D01D7017D907D01671006C0BFEF97
:1010B0004B1A5B0A4216530690F32415350599F630
:1010C000D582C482B4CF232B71F6B1CF8FEF9FEFBF
:1010D000DF91CF911F910F91FF90EF90DF90CF9014
:1010E000BF90AF909F908F907F906F905F904F9048
:1010F0000895CF93DF9300D000D000D0CDB7DEB7F6
:10110000FE01319626E0DF011D922A95E9F77A83E8
:1011100069835C834B8341E050E0BF010E94DC07A0
:1011200021E0892B09F020E0822F26960FB6F89453
:10113000DEBF0FBECDBFDF91CF9108950C9479082B
:10114000FB0101900020E9F73197AF01461B570BD7
:101150000C947908FF920F931F93CF93DF93CDB731
:10116000DEB72C970FB6F894DEBF0FBECDBF2115AA
:10117000310521F40E947908282F19C0FE0131960B
:10118000ACE0FA2EDF011D92FA94E9F77A836983C5
:101190005C834B8338872F831A87098742E050E0AE
:1011A000BF010E94DC0721E0892B09F020E0822F9B
:1011B0002C960FB6F894DEBF0FBECDBFDF91CF9156
:1011C0001F910F91FF9008950F931F939A01FA01B9
:1011D00001900020E9F731978F01041B150BFB01EB
:1011E00001900020E9F73197AF01461B570B0E9491
:1011F000AA081F910F9108950F93FC01648B458BF2
:10120000268B078B0F910895CF93DF93EC0160E05D
:101210008E810E94843381E090E00E944C2861E03E
:101220008E810E94843381E090E00E944C2860E02F
:101230008E810E94843384E690E0DF91CF910C94FC
:101240004C28CF92DF92EF92FF920F931F93CF9390
:10125000DF936C017C0187E0E80EF11CC0E0D0E078
:10126000062F10E0B8010C2E02C0759567950A9400
:10127000E2F76170F70181917F010E94843321962A
:10128000C430D10579F7C601DF91CF911F910F913D
:10129000FF90EF90DF90CF900C940409CF92DF92F3
:1012A000EF92FF920F931F93CF93DF936C017C011A
:1012B00087E0E80EF11CC0E0D0E0062F10E0B80196
:1012C0000C2E02C0759567950A94E2F76170F701DC
:1012D00081917F010E9484332196C830D10579F72E
:1012E000C601DF91CF911F910F91FF90EF90DF909A
:1012F000CF900C9404091F93CF93DF93EC01162F2A
:10130000642F8C810E9484338D818F3F19F060E0BF
:101310000E9484338F85612F84FF06C0CE01DF9148
:10132000CF911F910C944E0970E084E075956795FC
:101330008A95E1F7CE010E942109612FCE01DF914C
:10134000CF911F910C94210961E00E944C3580EDF2
:1013500097E00C944C2862E00E944C3580ED97E0B9
:101360000C944C28FC01443008F043E08389481772
:1013700010F04FEF480FDF01A40FB11D54969C9160
:10138000690F6068CF010C944C35FC0160896B7F5C
:10139000608B68600C944C35FC016089262F2460BA
:1013A000208B6C600C944C35EF92FF920F931F933F
:1013B000CF93DF93EC01423018F08F8588608F87E0
:1013C0004B8B1C8A80E48D8B6E8B70E0605C7F4F52
:1013D0006F8B222329F0413019F48F8584608F8729
:1013E00061E08C810E9448338D818F3F19F061E06C
:1013F0000E94483361E08E810E9448337E0187E07D
:10140000E80EF11C00E010E08F8584FD03C084E04D
:1014100090E002C088E090E0081719074CF461E002
:10142000F70181917F010E9448330F5F1F4FECCF7E
:1014300080E593EC0E944C2860E08C810E9484330C
:1014400060E08E810E9484338D818F3F19F060E0CF
:101450000E9484336F8564FD1DC063E0CE010E944D
:10146000210984E991E10E944C2863E0CE010E94A9
:10147000210984E991E10E944C2863E0CE010E9499
:10148000210986E990E00E944C2862E0CE010E948A
:10149000210916C06062CE010E944C3584E991E1B9
:1014A0000E944C286F856062CE010E944C3586E90F
:1014B00090E00E944C286F856062CE010E944C35FE
:1014C0006F856062CE010E944C3584E0888BCE012E
:1014D0000E94CC09CE010E94A40982E0898B66E0BB
:1014E000CE01DF91CF911F910F91FF90EF900C945F
:1014F0004C358F92AF92CF92EF920F93CF93DF93B1
:10150000CDB7DEB7FC015A853B859C858D8544832C
:1015100025830683E782C086A18682865387348727
:1015200095878687662311F0178602C080E187873A
:1015300020E041E060E1CF01DF91CF910F91EF908A
:10154000CF90AF908F900C94D4098F92AF92CF929E
:10155000EF920F93CF93DF93CDB7DEB7FC013A85BF
:101560009B858C8513821282A5E7B1E0B183A083AD
:101570006483458326830783E086C186A2868386AB
:1015800034879587868780E1878720E041E060E1A6
:10159000CF01DF91CF910F91EF90CF90AF908F90CF
:1015A0000C94D4098F92AF92CF92EF920F93CF9376
:1015B000DF93CDB7DEB7FC019A858B85138212824B
:1015C000A5E7B1E0B183A08364833FEF3583468311
:1015D00027830087E186C286A386848695878687CF
:1015E00080E1878720E041E060E1CF01DF91CF918A
:1015F0000F91EF90CF90AF908F900C94D409AF9251
:10160000CF92EF920F93FC011382128285E791E053
:10161000918380836483458326830783E086C18624
:10162000A2861386148615861686178620E041E06A
:1016300060E1CF010F91EF90CF90AF900C94D4095F
:10164000CF92EF920F93FC011382128285E791E013
:101650009183808364838FEF85834683278300870C
:10166000E186C2861386148615861686178620E0C4
:1016700041E060E1CF010F91EF90CF900C94D4093D
:10168000FC0160896D7F608B68600C944C35FC01B7
:101690006089262F2260208B6A600C944C35FC01F7
:1016A00060896E7F608B68600C944C35FC016089AA
:1016B000262F2160208B69600C944C3568E10C94D6
:1016C0004C356CE10C944C35FC016189262F22606D
:1016D000218B66600C944C35FC0161896D7F618BB8
:1016E00064600C944C35FC016189262F2160218BAC
:1016F00065600C944C35FC0161896E7F618B646080
:101700000C944C35EF92FF920F931F93CF93DF937E
:101710008C017A01677088E0689FB00111246064D1
:10172000C8010E944C35E701A8E0EA0EF11C69915E
:10173000D801ED91FC910190F081E02DC80109954F
:10174000CE15DF05A1F7DF91CF911F910F91FF908B
:10175000EF9008951F93CF93DF93CDB7DEB76D97CA
:101760000FB6F894DEBF0FBECDBFAB011C821B824B
:1017700023E831E03A8329831E8221E0BC01CE01B7
:1017800001960E94021B11E0811102C010E004C00A
:10179000CE0101960E942919812F6D960FB6F894FB
:1017A000DEBF0FBECDBFDF91CF911F910895EF92A5
:1017B000FF920F931F93CF93DF93CDB7DEB76D9753
:1017C0000FB6F894DEBF0FBECDBF8C017B011C822B
:1017D0001B8283E891E09A8389831E82C8010E945C
:1017E000AA0B982F81110AC0A701B801CE0101965A
:1017F0000E94EE1B91E0811101C090E0892F6D964F
:101800000FB6F894DEBF0FBECDBFDF91CF911F9111
:101810000F91FF90EF900895442339F00E94881DA6
:1018200091E0811103C090E001C091E0892F0895FB
:10183000CF93DF93CDB7DEB76D970FB6F894DEBFC9
:101840000FBECDBF4423C9F0AB01BC011C821B827B
:1018500083E891E09A8389831E8221E0CE0101967C
:101860000E94021B882339F0CE0101960E94AF1D11
:1018700091E0811103C090E001C091E0892F6D9645
:101880000FB6F894DEBF0FBECDBFDF91CF910895A4
:10189000EF92FF920F931F93CF93DF93DA01EB0147
:1018A00028813981FC01E20FF31F40814F3211F48E
:1018B0002F5F3F4F8C01020F131F7D01E0E0F0E02E
:1018C000E80159918E015F3259F0552349F0319664
:1018D0002F5F3F4FE70159937E01EC30F10581F70F
:1018E000EA0FFB1F1082FC01E20FF31F40814F3211
:1018F00011F42F5F3F4FFB0131832083FC01E20F86
:10190000F31F81E09081911101C080E0DF91CF91C0
:101910001F910F91FF90EF9008954F925F926F92F9
:101920007F928F929F92AF92BF92CF92DF92EF926F
:10193000FF920F931F93CF93DF93CDB7DEB7C954B8
:10194000D1090FB6F894DEBF0FBECDBF5C016B01AD
:101950003A01490119A218A283E891E09F8F8E8F66
:101960001BA21C821B829A8389831E822A961FAE29
:101970001EAE2A978B017E018EE1E80EF11C4424F5
:101980004394AE01455C5F4FBE01685B7F4FC5016C
:101990000E94480C582E482F44259401BE01655CD6
:1019A0007F4FC801F3010995811108C00C151D0571
:1019B00019F0C8010E94291980E027C05520B9F00C
:1019C00021E0AE01455C5F4FB801C7010E94021BD8
:1019D000582E0C151D0599F0C8010E942919552093
:1019E00059F3902F812F8701E92EF82ECACF0C15BD
:1019F0001D0519F0C8010E94291981E006C088233D
:101A0000D9F28E010F5F1F4FECCFC75BDF4F0FB6D0
:101A1000F894DEBF0FBECDBFDF91CF911F910F9124
:101A2000FF90EF90DF90CF90BF90AF909F908F90FE
:101A30007F906F905F904F9008950F931F93CF9377
:101A4000DF93EC01162F8FA5882321F0CE018A9613
:101A50000E942919412F61E0CE010E94891088233C
:101A600089F08E01045F1F4FBE01C8010E945535E9
:101A7000882341F0B801CE018A960E94111691E0A8
:101A8000811101C090E0892FDF91CF911F910F91BB
:101A90000895CF92DF92EF92FF920F931F93CF930F
:101AA000DF93EC016A017B01122F8FA5882321F0BF
:101AB000CE018A960E942919412F61E0CE010E9431
:101AC00089108823C1F0B701A601CE010E9406103B
:101AD000882389F08E01045F1F4FBE01C8010E9458
:101AE0005535882341F0B801CE018A960E9411161F
:101AF00091E0811101C090E0892FDF91CF911F917A
:101B00000F91FF90EF90DF90CF9008958A960C94FC
:101B100029194F925F926F927F928F929F92AF920C
:101B2000BF92CF92DF92EF92FF920F931F93CF93CA
:101B3000DF93CDB7DEB7C754D1090FB6F894DEBF37
:101B40000FBECDBF5C014A01390119A218A283E87A
:101B500091E09F8F8E8F1BA21C821B829A838983A8
:101B60001E82645F7F4F6E018EE1C80ED11CC601DC
:101B70000E94111674018E010F5F1F4F5C2C4D2CBB
:101B80006FE270E0C7010E94823B009709F443C0F6
:101B9000F70120812F3271F4FFEFEF1AFF0A902F27
:101BA000812F052D142D2C01C201502E412E092FFD
:101BB000182FE6CF8E198D3008F08CE0C82ED12C6E
:101BC000A601B701CE01CB960E94AB3BEBE3F0E060
:101BD000EC0FFD1FEC0DFD1D1082C8010E9429199C
:101BE00021E0AE01455C5F4F652D742DC8010E9458
:101BF000021B811109C0F5011382128283E891E072
:101C000091838083158211C0EC0CFD1C852D942DD1
:101C10000E942919C9CFE818F908F301F182E0827E
:101C2000652D742DC5010E946F35C501C95BDF4F5D
:101C30000FB6F894DEBF0FBECDBFDF91CF911F91DD
:101C40000F91FF90EF90DF90CF90BF90AF909F905B
:101C50008F907F906F905F904F900895DF92EF92FA
:101C6000FF920F931F93CF93DF93CDB7DEB7C95584
:101C7000D1090FB6F894DEBF0FBECDBF7C018A013B
:101C8000D22E9E01285A3F4FCE01CB960E94890D3D
:101C90006A968EAD9FAD6A97080F191FF801808173
:101CA00081110AC0BE01655C7F4FCE0101960E9482
:101CB0006F354DE751E033C019A218A283E891E0D7
:101CC0009F8F8E8F1BA221968FAD2197811104C00B
:101CD000C7010E94783229C02D2DA801BE01655C84
:101CE0007F4FCE014E960E94021B882389F3CE01BE
:101CF000CB960E9429198D2D8670863041F449A912
:101D00005AA96BA97CA9CE014E960E944B18BE0120
:101D1000625E7F4FCE0101960E946F35A801BE0121
:101D20006F5F7F4FC7010E944332C701C75ADF4F21
:101D30000FB6F894DEBF0FBECDBFDF91CF911F91DC
:101D40000F91FF90EF90DF900895FB01BC01665D5D
:101D50007F4F20E030E04AEA5BE0CF010C948D0C2D
:101D6000FB01BC01665D7F4F20E030E047ED5BE0AA
:101D7000CF010C948D0CFB01BC01665D7F4F20E010
:101D800030E048E15CE0CF010C948D0CFB01BC011C
:101D9000665D7F4F20E030E04CE05CE0CF010C94CA
:101DA0008D0CDF92EF92FF920F931F93CF93DF93EF
:101DB000CDB7DEB7C756D1090FB6F894DEBF0FBE58
:101DC000CDBF8C017B01D42EBE016F5F7F4FF70129
:101DD000818D928D0E94CD171816D4F589818823A4
:101DE000B9F1853E89F38E3279F38C8583FDECCF92
:101DF00022961FAE1EAE229783E891E09FAF8EAF72
:101E000024961FAE2497BE01655A7F4FCE010196DE
:101E10000E94BB15F701618D728D2D2DAE01455AC3
:101E20005F4FCE01CE960E94021B882389F0BE012F
:101E3000625C7F4FCE0181960E946F35AE01455A9C
:101E40005F4FBE016F5D7F4FC8010E94433203C0E8
:101E5000C8010E947832C801C959DF4F0FB6F89403
:101E6000DEBF0FBECDBFDF91CF911F910F91FF90CD
:101E7000EF90DF900895CF93DF93EC010E948D32B5
:101E8000882351F0E98DFA8D16821782108611860B
:101E90001286138614861586DF91CF9108959FB719
:101EA000F8942091BF018091BD01213019F48DBBC0
:101EB0009FBF08958FBF08958FEF0C94163661E091
:101EC000FC0184810E94843380910B02882339F0C5
:101ED00010920B028091BF0181110C944F0F089555
:101EE000CF93DF93EC0180910B02811109C081E057
:101EF00080930B0280910C0290910D020E94FC35A0
:101F000060E08C81DF91CF910C948433CF93DF9389
:101F1000EC018E81882389F08F8198859C012F5F49
:101F20003F4F38872F838230924018F40E945C0F15
:101F3000F3CFCE010E945F0F1E82DF91CF910895F3
:101F40001F93CF93DF93EC01162F0E94860F198702
:101F5000DF91CF911F9108950F93CF93DF9300D01E
:101F6000CDB7DEB7673028F026E1FC01258380E09D
:101F700047C06230F9F058F46623A9F0613079F572
:101F800000E021E040E059E06DE370E02EC06430F5
:101F9000F9F0B8F0653019F500E021E040E950EDC6
:101FA00063E070E022C000E021E040E458E76DE724
:101FB00071E01BC000E021E040E854E86EE170E011
:101FC00014C000E021E040E452E46FE070E00DC096
:101FD00000E021E040E251EA67E070E006C000E086
:101FE00021E048E458EE61E070E0CE0101960E94E5
:101FF000D73589819A8190930D0280930C0281E0FC
:102000000F900F90DF91CF910F9108950F93CF9381
:10201000DF9300D0CDB7DEB700E021E0CE0101961E
:102020000E94D73589819A8190930D0280930C028A
:1020300081E00F900F90DF91CF910F9108950F9352
:102040001F93CF93DF93EB010E94DF278B010E9448
:102050005C0F8F3F49F00E94DF27601B710B6C17EC
:102060007D07A8F380E001C081E0DF91CF911F914F
:102070000F9108958F929F92AF92BF92FF920F930C
:102080001F93CF93DF93EC01F62E49015A010E9472
:10209000860FCE010E94700F6CE271E0CE010E94AB
:1020A0001F108F2D80640E94163608E110E0D501C4
:1020B000C401002E04C0B695A795979587950A94FC
:1020C000D2F70E94163608501109083F8FEF180703
:1020D00071F7FF2029F088E0F81204C087E803C0F8
:1020E00085E901C08FEF0E94163610E00E945C0F58
:1020F0008A8787FF04C01F3F11F01F5FF7CFDF9172
:10210000CF911F910F91FF90BF90AF909F908F90B4
:1021100008957F928F929F92AF92BF92CF92DF925B
:10212000EF92FF920F931F93CF93DF9300D0CDB721
:10213000DEB77C01762EFC0113861186168215828D
:1021400044830E94DF276B0161E0F70184810E94D4
:10215000483361E0F70184810E9484330E94520277
:1021600000E021E040E950ED63E070E0CE0101962F
:102170000E94D73589819A8190930D0280930C0239
:102180000E94FC351AE08FEF0E9416361150D9F7E5
:102190008091BF0181110E944F0FC7010E94700FF3
:1021A00020E030E0A90160E0C7010E943A10082F4A
:1021B000F7018287813049F00E94DF276C197D0981
:1021C000613D774068F381E050C02AEA31E040E0A9
:1021D00050E068E0C7010E943A1082FF03C0F70197
:1021E00003870EC004E00E945C0FF7018287015054
:1021F000D1F78A3A11F082E039C082E0F701838793
:10220000F7018385823021F0812C912C540105C087
:10221000812C912CA12C80E4B82E20E030E0A90183
:1022200067E3C7010E943A10A501940169E2C70162
:102230000E943A10F7018287882349F00E94DF2725
:102240006C197D09613D774040F388E00EC0F701CD
:1022500083858230F1F420E030E0A9016AE3C70110
:102260000E943A10882339F086E0F7018583C70180
:102270000E945F0F16C00E945C0F807C803C19F4A6
:1022800083E0F70183870E945C0F0E945C0F0E942D
:102290005C0FC7010E945F0F672DC7010E94AC0F42
:1022A000182F812F0F900F90DF91CF911F910F91D9
:1022B000FF90EF90DF90CF90BF90AF909F908F9066
:1022C0007F9008950F931F93CF93DF93EC010E94AB
:1022D000DF278B010E945C0F8A878F3F49F40E94A1
:1022E000DF27601B710B6D327140A0F38FE003C0DC
:1022F0008E3F39F08DE08D83CE010E945F0F80E02C
:1023000001C081E0DF91CF911F910F910895CF928D
:10231000DF92EF92FF920F931F93CF93DF93EC0125
:102320006901C801820F931F8130924008F05CC0A0
:102330008E81882371F088819981AA81BB8184175D
:102340009507A607B70729F48F819885C816D9067F
:1023500010F5488359836A837B838B85833039F0FA
:1023600089E0440F551F661F771F8A95D1F79A01A0
:10237000AB0161E1CE010E943A10882319F083E09D
:102380008D8332C0CE010E946211882369F11886C4
:102390001F8281E08E838F8198858C159D0540F486
:1023A0000E945C0F8F819885019698878F83F3CF69
:1023B0006701E00EF11ECE14DF0431F00E945C0FC5
:1023C000F60181936F01F7CF8F819885080F191F50
:1023D00018870F838985882319F00115124048F06A
:1023E000CE010E94860F05C0CE010E945F0F80E0E3
:1023F00001C081E0DF91CF911F910F91FF90EF908D
:10240000DF90CF900895EF92FF920F931F930115E5
:10241000110519F00E94871101C081E01F910F91F1
:10242000FF90EF900895EF92FF920F931F93790121
:1024300000E012E020E030E00E9487111F910F9130
:10244000FF90EF900895EF92FF920F931F93CF9319
:10245000DF938C017A0120E030E0A9010E943A105C
:10246000882321F08EE0F801858318C0C8010E94FE
:102470006211882399F0E701F0E1EF0EF11C0E9450
:102480005C0F8993CE15DF05D1F70E945C0F0E9487
:102490005C0FC8010E945F0F81E004C0C8010E9468
:1024A0005F0F80E0DF91CF911F910F91FF90EF9030
:1024B00008950F931F93CF93DF93CDB7DEB7609747
:1024C0000FB6F894DEBF0FBECDBF8C01AE014F5FDB
:1024D0005F4F69E00E942312882309F461C089815B
:1024E000807C91F56F81637070E0762F6627770F9F
:1024F000770F888524E0829FC0011124682B792BF7
:1025000089858295869586958370682B6F5F7F4F4E
:10251000CB01A0E0B0E04A854370440F2B8527FB38
:10252000222720F9422B2E812F7030E0240F311DFD
:1025300027503109BC01CD0104C0660F771F881FE9
:10254000991F2A95D2F72FC0803439F56885669592
:102550006695862F90E0A0E0B0E0DC0199278827FF
:102560002A85AC01BD01422B898590E0982F8827F0
:10257000092E000CAA0BBB0B842B952BA62BB72B7B
:102580000196A11DB11DBC01CD014AE0660F771F68
:10259000881F991F4A95D1F706C089E0F801858305
:1025A00060E070E0CB0160960FB6F894DEBF0FBE1E
:1025B000CDBFDF91CF911F910F910895CF93DF93FE
:1025C000CDB7DEB760970FB6F894DEBF0FBECDBFB4
:1025D000AE014F5F5F4F69E00E942312882321F014
:1025E0008B8586FB882780F960960FB6F894DEBF4E
:1025F0000FBECDBFDF91CF9108958F929F92AF9282
:10260000BF92CF92DF92EF92FF920F931F93CF93DF
:10261000DF93EC014A015B01680179010E94DE123F
:10262000811102C08BE032C08B85833071F089E06C
:10263000880C991CAA1CBB1C8A95D1F799E0CC0C7C
:10264000DD1CEE1CFF1C9A95D1F7A501940160E2F8
:10265000CE010E943A1081111FC0A701960161E2CC
:10266000CE010E943A10811117C020E030E0A9018C
:1026700066E2CE010E943A1081110EC060E177E25D
:10268000CE010E941F10811109C08CE08D83CE0104
:102690000E945F0F80E006C08AE0F8CFCE010E9462
:1026A0005F0F81E0DF91CF911F910F91FF90EF902D
:1026B000DF90CF90BF90AF909F908F900895EF9252
:1026C000FF920F931F93CF93DF938C01862F7A0194
:1026D0000E941636E7018EEFF81A89910E9416368D
:1026E000CE15DF05D1F78FEF0E9416368FEF0E94CF
:1026F00016360E945C0FF80182878F71853039F0A1
:1027000081E18583C8010E945F0F80E001C081E004
:10271000DF91CF911F910F91FF90EF9008950F934C
:102720001F93CF93DF93EC0189014115510561059A
:10273000710511F482E132C08B85833039F089E074
:10274000440F551F661F771F8A95D1F79A01AB0179
:1027500068E1CE010E943A10882311F084E01EC087
:10276000A8016EEFCE010E945F138823C1F068E5D7
:1027700072E0CE010E941F10811102C085E10EC0DF
:1027800020E030E0A9016DE0CE010E943A108111F5
:1027900004C00E945C0F882339F084E18D83CE0150
:1027A0000E945F0F80E004C0CE010E945F0F81E0B5
:1027B000DF91CF911F910F9108950F931F93CF93A6
:1027C000DF93EC018B0168E572E00E941F10882303
:1027D00049F0A8016CEFCE01DF91CF911F910F91CD
:1027E0000C945F1383E18D83CE010E945F0F80E024
:1027F000DF91CF911F910F9108958F929F92AF9289
:10280000BF92CF92DF92EF92FF920F931F93CF93DD
:10281000DF93EC016A017B0148015901452B462BEE
:10282000472B11F482E123C020E030E0A90167E3E7
:102830000E943A10A501940167E1CE010E943A106E
:10284000882311F087E013C08B85833039F089E04D
:10285000CC0CDD1CEE1CFF1C8A95D1F7A70196015C
:1028600069E1CE010E943A10882339F085E08D831A
:10287000CE010E945F0F80E001C081E0DF91CF9127
:102880001F910F91FF90EF90DF90CF90BF90AF908E
:102890009F908F900895CF93DF93EC0168E572E0ED
:1028A0000E941F10882379F08DEF0E94163668E58C
:1028B00072E0CE010E941F10882329F0CE010E94F1
:1028C0005F0F81E006C080E18D83CE010E945F0F23
:1028D00080E0DF91CF910895CF93DF93EC019C01CD
:1028E0002A5F3F4F41E050E060E070E08B8D9C8DAF
:1028F0000E94B0238823A1F08F89988DA98DBA8D6D
:10290000892B8A2B8B2B59F48E819F81A885B985C1
:102910008F8B988FA98FBA8F8C8180688C8381E090
:10292000DF91CF910895CF92DF92EF92FF921F93A4
:10293000CF93DF93EC010E946C14811102C080E000
:102940004AC0EB8DFC8DCE80DF80E884F98482E084
:10295000C81AD108E108F108058404C0CC0CDD1CBC
:10296000EE1CFF1C0A94D2F786859785A089B18951
:10297000C80ED91EEA1EFB1E148181E0C81AD108B8
:10298000E108F108112361F0C701B601610F711D63
:10299000811D911D0E94FF21882389F21150F2CFE1
:1029A000EB8DFC8D80E092E0A0E0B0E0058404C0F7
:1029B000880F991FAA1FBB1F0A94D2F74B895C8905
:1029C0006D897E89840F951FA61FB71F8B8B9C8BEB
:1029D000AD8BBE8B81E0DF91CF911F91FF90EF9087
:1029E000DF90CF900895CF93DF93EC01462F6E8553
:1029F0007F85888999890E94C421882341F08A892A
:102A000020E2829FC0011124875E9D4F02C080E0BA
:102A100090E0DF91CF9108958F929F92AF92BF92F5
:102A2000CF92DF92EF92FF920F931F93CF93DF939A
:102A300000D000D0CDB7DEB7DC015796CD90DD9049
:102A4000ED90FC905A97C114D104E104F10409F40B
:102A500080C04A015B018C019E012F5F3F4FB7018F
:102A6000A601F801838D948D0E942322882309F406
:102A700071C0D701C6010196A11DB11D49815A81BE
:102A80006B817C8184179507A607B70709F45EC0A0
:102A9000D8015B96ED91FC915C978789803129F094
:102AA00088EF9FEFAFEFBFE004C088EF9FEFA0E09B
:102AB000B0E0481759076A077B0708F44AC0D801F5
:102AC00057964D915D916D917C915A97DB01CA01AA
:102AD0000297A109B109058404C0880F991FAA1F94
:102AE000BB1F0A94D2F74685578560897189480FC4
:102AF000591F6A1F7B1FD5014D935D936D937C9386
:102B0000139786859785A089B1890197A109B10995
:102B10002481820F911DA11DB11D22E0C21AD1088E
:102B2000E108F108058404C0CC0CDD1CEE1CFF1C80
:102B30000A94D2F7C80ED91EEA1EFB1ED401CD920C
:102B4000DD92ED92FC92139781E004C06C017D014F
:102B500083CF80E00F900F900F900F90DF91CF9177
:102B60001F910F91FF90EF90DF90CF90BF90AF90AB
:102B70009F908F900895FC0120E090E08EE23081DC
:102B8000303269F0283029F4DB01A90FB11D8C9394
:102B90009F5FDB01A90FB11D30813C939F5F2F5FC9
:102BA00031962B3061F7FB01E90FF11D108208957A
:102BB000FB019B01255F3F4F40E24193E217F30782
:102BC000E1F7DC0190E027E08D91882319F18E3246
:102BD00029F42A3021F198E02AE0F6CFEDE9F1E07E
:102BE0003491332321F031968313FACF18C029177B
:102BF000B0F03FED380F3E3590F431E0390FFB0176
:102C0000E90FF11D9FE9980F9A3108F480528083F3
:102C1000932FDACF81E0FB019081903209F480E0BC
:102C200008950F931F93CF93DF93FC0125812223F7
:102C300011F080E042C08B01EC01FB0187898031FB
:102C4000B1F482E08D831F8A188E198E1A8E808DC2
:102C5000918DA0E0B0E025E0880F991FAA1FBB1F4F
:102C60002A95D1F78B8B9C8BAD8BBE8B15C0803298
:102C700001F783E08D83FB01428D538D648D758D4B
:102C80004F8B588F698F7A8F9E012D5E3F4FC80101
:102C90000E94A622882369F21C8F0B8F81E08C830F
:102CA0001E821F82188619861A861B861C861D8620
:102CB0001E861F86188A198A1A8ADF91CF911F9162
:102CC0000F910895CF93DF9300D01F92CDB7DEB759
:102CD0006AE00E947036805D8983905D9A831B82D2
:102CE000BE016F5F7F4F83E294E00E942F030F903D
:102CF0000F900F90DF91CF910895CF93DF93EC0168
:102D0000BC01672F772766956454784F4AE050E0FE
:102D100083E294E00E940F046DE283E294E00E945B
:102D20003103CE0125E0969587952A95E1F78F70BE
:102D30000E9462166DE283E294E00E9431038C2FC0
:102D40008F71DF91CF910C946216CF93DF93EC01DA
:102D50008D2F8695869586950E9462166AE383E29A
:102D600094E00E943103CE0125E0969587952A953F
:102D7000E1F78F730E9462166AE383E294E00E9497
:102D800031038C2F8F71880FDF91CF910C946216D5
:102D90002F923F924F925F926F927F928F929F926B
:102DA000AF92BF92CF92DF92EF92FF920F931F9359
:102DB000CF93DF93EC015B014A018D81811103C048
:102DC0008FEF9FEFD7C08C8180FFFACF4B885C8854
:102DD0006D887E884A855B856C857D85C401A0E011
:102DE000B0E093018201041B150B260B370B08176B
:102DF00019072A073B0718F44201841A950A24018F
:102E00001E0126E0220E311C4114510409F47EC03B
:102E10004A855B856C857D856A0181E0D822ED81DC
:102E20008B8D9C8D8A019B01F9E03695279517952E
:102E30000795FA95D1F7E23061F4FC01828D938D0C
:102E4000A48DB58DBC01CD01600F711F821F931F32
:102E50003FC0FC0174807A947022C114D104C9F47B
:102E6000711017C0452B462B472B49F48F89988D3D
:102E7000A98DBA8D8E839F83A887B9870AC04E819A
:102E80005F816885798591010E942322882309F456
:102E900097CFEB8DFC8D8E819F81A885B985029798
:102EA000A109B109058404C0880F991FAA1FBB1F7F
:102EB0000A94D2F74685578560897189840F951FDA
:102EC000A61FB71FBC01CD01670D711D811D911D8E
:102ED00020E032E02C193D0932012415350508F4B3
:102EE00039012C8126FD04C06114F2E07F0679F5DA
:102EF0000091000110910101209102013091030124
:102F0000601771078207930719F421C0C40132C00A
:102F1000750183019601AB01BC018091170290916C
:102F200018020E940312882309F44ACFA60CB71C8A
:102F30008A859B85AC85BD85860D971DA11DB11D1C
:102F40008A879B87AC87BD87461857085DCF40E0CE
:102F50000E94C421882309F433CFF601E75EFD4FB8
:102F6000D501CF01860D971D8E179F07F9F221918C
:102F70002D93FACFDF91CF911F910F91FF90EF909A
:102F8000DF90CF90BF90AF909F908F907F906F9089
:102F90005F904F903F902F9008950F931F93CF9382
:102FA000DF93FC012581223028F1EB018C01828521
:102FB0009385A485B5858F719927AA27BB27892B6F
:102FC0008A2B8B2BB9F440E250E0BE01C8010E946D
:102FD000C816803261F48881882371F0853E99F3A8
:102FE0008E3289F38B8583FDEECF80E206C0880F99
:102FF000880B03C08FEF01C080E0DF91CF911F915C
:103000000F910895FF920F931F93CF93DF931F9219
:10301000CDB7DEB7FC012581223018F480E090E0C6
:1030200033C08C01FC01428553856485758585E03C
:1030300076956795579547958A95D1F7F42FFF7048
:10304000FF2E41E050E0BE016F5F7F4FC8010E943C
:10305000C816019719F4898190E002C08FEF9FEFA5
:103060000196E1F2F80182859385A485B5854F9696
:10307000A11DB11D82879387A487B587F0E2FF9ECB
:10308000C0011124875E9D4F0F90DF91CF911F915A
:103090000F91FF9008958F929F92AF92BF92CF921F
:1030A000DF92EF92FF920F931F93CF93DF93EC0188
:1030B0008D81811102C080E078C00B891C892D8927
:1030C0003E890417150726073707A8F36A017B0115
:1030D000823029F4CA86DB86EC86FD860DC0C114D9
:1030E000D104E104F10451F41E821F82188619866E
:1030F0001A861B861C861D8681E057C08A849B84A5
:10310000AC84BD84EB8DFC8D258530E0275F3F4F7F
:10311000B501A4014150510961097109022E04C091
:1031200076956795579547950A94D2F7D701C601CA
:103130000197A109B10904C0B695A7959795879500
:103140002A95D2F784179507A607B70720F0892894
:103150008A288B2871F44F89588D698D7A8D4E831A
:103160005F83688779874C015D018E010A5F1F4F7D
:1031700016C0841B950BA60BB70BF5CF4E815F8154
:103180006885798598018B8D9C8D0E94232291E022
:10319000891A9108A108B108882309F48CCF8114F9
:1031A0009104A104B10451F795CFDF91CF911F9104
:1031B0000F91FF90EF90DF90CF90BF90AF909F90D6
:1031C0008F9008950F931F93CF93DF93EC018D8120
:1031D0008823C9F18C8187FF30C061E0CE010E9455
:1031E000F3148C01892B79F18D81823048F48B891D
:1031F0009C89AD89BE89F801848F958FA68FB78F82
:103200008F89988DA98DBA8DF801938F828FB58B98
:10321000A48BE0911002F0911102309759F0B8019F
:103220006A5E7F4FC80148960995F801808D918D9F
:10323000938B828B8C818F778C83DF91CF911F91C1
:103240000F910C94892180E0DF91CF911F910F9114
:103250000895CF93DF93EC010E94E218882311F0C8
:103260001D8281E0DF91CF9108950F931F93CF933B
:10327000DF93EC018B010E94E218811102C080E013
:103280000EC060E0CE010E94F314FC01892BB9F35B
:1032900090E2D80101900D929A95E1F781E0DF91DB
:1032A000CF911F910F9108956F927F928F929F926D
:1032B000AF92CF92DF92EF92FF920F931F93CF9333
:1032C000DF93FC013581332309F471C03A01FCEB33
:1032D0006F1AF7E07F0A30E86316710408F067C0E0
:1032E0003FEF320F3C3008F062C03FEF300F3F310C
:1032F00008F05DC0E7E1EE1508F459C0FBE3FC15EA
:1033000008F455C0FA1508F452C0DA2DC22F162F52
:103310004C0161E00E94F314FC01892B09F447C0C1
:10332000A301542F4427550F80E2C89F9001112418
:10333000422B532B402B30E2C39E600111248D2F72
:1033400090E095958795C82AD92AF12CFE2CEE2479
:10335000FF0CFF0CFF0CCE28DF2810FF02C0538BA0
:10336000428B11FF09C0518B408BD786C6868D2FAB
:103370008170D0FD84E6858712FF04C0518F408F95
:10338000D78AC68A80911602816080931602C40192
:10339000DF91CF911F910F91FF90EF90DF90CF9031
:1033A000AF909F908F907F906F900C94E21880E088
:1033B000DF91CF911F910F91FF90EF90DF90CF9011
:1033C000AF909F908F907F906F9008954F925F92F3
:1033D0006F927F928F929F92AF92BF92EF92FF92E5
:1033E0000F931F93CF93DF9300D000D0CDB7DEB7FC
:1033F000FC0185818130E9F4848181FF1AC08389D1
:103400009489A589B68984179507A607B70788F018
:10341000892B8A2B8B2B09F479C04A015B017F0130
:103420004284538464847584CF010E944B188111B7
:1034300002C080E06CC0F701838D948D81149104EB
:10344000A104B10471F44789508D618D728D0E9481
:10345000C524882371F3F701178A108E118E128EFE
:103460003AC0F70146815781608571859E012F5FC3
:103470003F4F0E9423228823E1F249815A816B81C8
:103480007C81F701838D948DFC012789203129F0FF
:1034900008EF1FEF2FEF3FE004C008EF1FEF20E021
:1034A00030E04017510762077307A8F40E94C52453
:1034B000882309F4BECFF701468157816085718565
:1034C0000FEF1FEF2FEF3FE0838D948D0E940F23AE
:1034D000882309F4AECFF701838A948AA58AB68A35
:1034E000848180688483C7010E94E218882309F4DC
:1034F000A0CFB501A401481459046A047B0410F458
:10350000B301A201C7010E944B1801C081E00F90D6
:103510000F900F900F90DF91CF911F910F91FF901F
:10352000EF90BF90AF909F908F907F906F905F9043
:103530004F9008951F93CF93DF93EC0180E2689F33
:10354000F0011124E75EFD4F9385917129F0842FDE
:10355000827411F080E052C0142F6A8B80910001B8
:1035600090910101A0910201B09103018E879F8784
:10357000A88BB98B4489558960E070E0BA01552762
:103580004427828D938DA0E0B0E0482B592B6A2B05
:103590007B2B4F8B588F698F7A8F8385887151F47D
:1035A000848D958DA68DB78D8B8B9C8BAD8BBE8BB3
:1035B00081E00CC0803171F69E012D5E3F4F8B8DF6
:1035C0009C8D0E94A622882329F284E08D83812F7E
:1035D0008F708C831E821F82188619861A861B861E
:1035E0001C861D8616FF09C040E050E0BA01CE01DE
:1035F000DF91CF911F910C94E61981E0DF91CF917B
:103600001F910895BF92CF92DF92EF92FF920F9396
:103610001F93CF93DF93CDB7DEB72B970FB6F894F8
:10362000DEBF0FBECDBFFC0135813111BFC0C22E40
:103630008B017C01BE016F5F7F4FCA010E94D815CC
:10364000882309F4B3C0F801838D948DF701948F1A
:10365000838FF801168217821086118612861386D0
:1036600014861586D12CF80182859385A485B585AD
:10367000438954896589768984179507A607B70712
:1036800008F03EC025E0B695A795979587952A95B1
:10369000D1F7F82FFF70BF2EC8010E9402180097C3
:1036A00009F484C0FC0120812223A1F0253E09F405
:1036B0007FC04BE050E0BC01CE0101960E945A3B16
:1036C000892B89F68C2D8073803309F46FC04C2DC3
:1036D0006B2D68C0D11012C0F701B28A4091000171
:1036E0005091010160910201709103014687578753
:1036F000608B718BFC01808181115DC0DD24D394CE
:103700008C2D8271823109F051C0DD2041F061E0E1
:10371000C7010E94F3148C01892B79F447C0F8018A
:103720008581823009F442C0C8010E949314882325
:10373000E9F1F701128A09E112E080E2F801119241
:103740008A95E9F78BE0FE013196D80101900D9240
:103750008A95E1F7E0911002F0911102309739F06B
:10376000B801625F7F4FC8014096099509C081E2A8
:1037700098E2F801918B808B80E098E097878687AC
:10378000F80180899189938B828B918F808F8685B8
:103790009785978B868B0E948921882339F04C2D41
:1037A000F7016289C7010E949A1A08C080E006C02A
:1037B000DD2009F491CFDD24D39455CF2B960FB69D
:1037C000F894DEBF0FBECDBFDF91CF911F910F9157
:1037D000FF90EF90DF90CF90BF9008954F925F924F
:1037E0006F927F929F92AF92BF92CF92DF92EF92B1
:1037F000FF920F931F93CF93DF93CDB7DEB7A097C0
:103800000FB6F894DEBF0FBECDBF8C017B0123E362
:103810000E94021B882309F4AEC081E0D8011496EF
:103820008C93149784E015968C93C8010E9493148E
:10383000882309F4A0C0C8010E94E218882309F473
:103840009AC061E0C8010E94F314009709F493C084
:1038500020E1FC01238720E2DE01119601900D9208
:103860002A95E1F7DC015496AD90BC9055975A9695
:10387000CD90DC905B97FE013296CE010C9620E253
:103880002193E817F907E1F78EE2982E9982F80163
:10389000238D348D8789908DA18DB28D0297A109DA
:1038A000B109F901058404C0880F991FAA1FBB1F25
:1038B0000A94D2F746855785608971892C013D01AC
:1038C000440E551E661E771EC301B20141E00E94E0
:1038D000C421882309F44FC0BE8AAD8ADC8ECB8E0A
:1038E00080E2FE013196A9E1B2E001900D928A9545
:1038F000E1F79A82D70115968C9115978250823004
:1039000048F057964D915D916D917C915A97CA01FF
:103910009B0104C080E090E020E030E03E8B2D8BE6
:103920009C8F8B8F80E2FE013196A9E3B2E001907B
:103930000D928A95E1F780E490E0A0E0B0E0F80114
:1039400082879387A487B587A0960FB6F894DEBFC9
:103950000FBECDBFDF91CF911F910F91FF90EF90E0
:10396000DF90CF90BF90AF909F907F906F905F90CF
:103970004F900C94892180E0A0960FB6F894DEBF9A
:103980000FBECDBFDF91CF911F910F91FF90EF90B0
:10399000DF90CF90BF90AF909F907F906F905F909F
:1039A0004F900895DF92EF92FF920F931F93CF9362
:1039B000DF93FC013581311134C0322F3073303345
:1039C00081F1D22EEA017B018C01FB01838D948D64
:1039D000F801948F838F85E0440F551F8A95E1F796
:1039E00060E070E0C7010E944B188823D1F0C70146
:1039F0000E9402180097A9F0FC018081882389F0B9
:103A0000853E79F08E3269F06C2F6F704D2DC801B4
:103A1000DF91CF911F910F91FF90EF90DF900C9469
:103A20009A1A80E0DF91CF911F910F91FF90EF9054
:103A3000DF900895CF93DF93EC0140E050E0BA01AE
:103A40000E94E619882371F061E0CE010E94F31410
:103A5000009741F025EEFC0120831D82DF91CF917C
:103A60000C94892180E0DF91CF910895CF92DF926D
:103A7000EF92FF920F931F93CF93DF9301151105E0
:103A800021053105D9F168017901EC0123E30E9498
:103A9000021B882399F18B8D9C8DFC012585275F66
:103AA000B701A601415051096109710904C0769519
:103AB0006795579547952A95D2F74F5F5F4F6F4FA0
:103AC0007F4F9E01295E3F4F0E94B023811104C0A9
:103AD000CE010E941A1D12C0CB8ADC8AED8AFE8AB2
:103AE0008C8180688C83CE01DF91CF911F910F91E3
:103AF000FF90EF90DF90CF900C94E21880E0DF9180
:103B0000CF911F910F91FF90EF90DF90CF9008958C
:103B1000CF93DF93CDB7DEB76D970FB6F894DEBFC6
:103B20000FBECDBFAB011C821B8223E831E03A837C
:103B300029831E8222E0BC01CE0101960E94021B55
:103B4000882321F0CE0101960E941A1D6D960FB6B2
:103B5000F894DEBF0FBECDBFDF91CF910895CF9314
:103B6000DF93FC012581243089F5EC011682178250
:103B70001086118612861386148615864A855B8503
:103B80006C857D858B899C89AD89BE8948175907CD
:103B90006A077B0788F4CE010E9402180097B1F0F3
:103BA000FC012081222341F0253E41F32E3231F3E6
:103BB000838583FDE3CF0AC081E08D838C818260A1
:103BC0008C83CE01DF91CF910C941A1D80E0DF91A0
:103BD000CF910895AF92BF92CF92DF92EF92FF9272
:103BE0000F931F93CF93DF93CDB7DEB76D970FB6CB
:103BF000F894DEBF0FBECDBF8C01FC011682178288
:103C000010861186128613861486158623E8A22E46
:103C100021E0B22EF801C284D384E484F584838940
:103C20009489A589B689C816D906EA06FB0608F064
:103C300055C01C821B82BA82A9821E82C8010E94C2
:103C40000218009709F448C0FC012081222309F4DE
:103C500045C0253EF9F22E32E9F2838583FDDACFA5
:103C600095E0F694E794D794C7949A95D1F721E01C
:103C7000A601B801CE0101960E94D21C882361F1F1
:103C80008E818430E1F4CE0101960E94EA1D8823E2
:103C900019F1FFEFCF1ADF0AA60185E0440F551F87
:103CA0008A95E1F760E070E0F80182859385A4854C
:103CB000B58584179507A607B70749F4ABCF8D8163
:103CC00082608D83CE0101960E941A1DE0CFC8014B
:103CD0000E944B1881119ECF80E00AC0F8018581B7
:103CE0008250823020F0C8010E94AF1D01C081E0E7
:103CF0006D960FB6F894DEBF0FBECDBFDF91CF91AA
:103D00001F910F91FF90EF90DF90CF90BF90AF90F9
:103D100008952F923F924F925F926F927F928F926F
:103D20009F92AF92BF92CF92DF92EF92FF920F934A
:103D30001F93CF93DF9300D000D0CDB7DEB78C01B7
:103D40006B011A01DC0115968C9115978130C9F42D
:103D500014968C9181FF15C082FF1DC0F801438924
:103D600054896589768982859385A485B58584176C
:103D70009507A607B70779F0C8010E944B18811173
:103D80000AC081E090E0D80113969C938E9312971D
:103D900080E090E048C1410183C05B968D919C9189
:103DA0005C97FC0174802FEF270D2A013B0139E05D
:103DB00076946794579447943A95D1F7722E74206D
:103DC0007A01F1E0FF22772009F476C080E092E0EA
:103DD0008E199F0954018815990508F45C01D801D2
:103DE0005B962D913C915C9716968D919D910D90CF
:103DF000BC91A02D0297A109B109F901058404C065
:103E0000880F991FAA1FBB1F0A94D2F746855785B2
:103E100060897189840F951FA61FB71F9C01AD0192
:103E2000270D311D411D511D29013A01A11432E018
:103E3000B30609F088C08091000190910101A09122
:103E40000201B0910301481659066A067B0659F42F
:103E50008FEF9FEFDC018093000190930101A0930D
:103E60000201B09303019601B301A20180911702F0
:103E7000909118020E948F13882309F482CF9EEF3D
:103E8000D91A8A189B08F80182859385A485B5857F
:103E90008A0D9B1DA11DB11D82879387A487B587BD
:103EA000D8011A964D915D916D917C911D97811469
:103EB000910409F072CF87C0E114F10409F086CFB4
:103EC00016964D915D916D917C9119974115510513
:103ED0006105710559F457968D919D910D90BC9196
:103EE000A02D0097A105B10541F521C09E012F5FCE
:103EF0003F4F0E942322882309F44BCF89819A8166
:103F0000AB81BC81F801238D348DF90127892031E3
:103F100029F048EF5FEF6FEF7FE004C048EF5FEFFD
:103F200060E070E084179507A607B70730F0C80176
:103F30000E946C1481114ACF24CFF80186839783A5
:103F4000A087B18743CFE114F10429F5D8011A966F
:103F50004D915D916D917C911D9753968D919D91A1
:103F60000D90BC91A02D481759076A077B0798F060
:103F70000E948921882309F404CF409200015092C5
:103F8000010160920201709203018091160281602A
:103F90008093160208C041E0C301B2010E94C4210F
:103FA000882309F4EECED601F701E75EFD4F9F01AD
:103FB0002A0D3B1D2E173F0719F08D918193FACFE3
:103FC000CA0CDB1C5ECFD8015396CD90DD90ED90EE
:103FD000FC90569714968C91C416D506E606F70603
:103FE00040F4F801438B548B658B768B8068848317
:103FF0000DC02091100230911102232B39F02114B1
:10400000310421F08068D80114968C93F8018481E2
:1040100083FD02C0C10107C0C8010E94E2188823C5
:1040200009F4AFCEF7CF0F900F900F900F90DF9164
:10403000CF911F910F91FF90EF90DF90CF90BF90A5
:10404000AF909F908F907F906F905F904F903F9038
:104050002F900895CF93DF931F92CDB7DEB769837A
:1040600041E050E0BE016F5F7F4F0E94891E0F90BC
:10407000DF91CF910895FB0101900020E9F731977E
:10408000AF01461B570B0C94891E0F931F93CF93C0
:10409000DF938C01EB01FE016491662351F0D8019E
:1040A000ED91FC910190F081E02DC80109952196D8
:1040B000F2CFDF91CF911F910F910895CF93DF93AE
:1040C000EC010E944520CE01DF91CF910C94420378
:1040D000DF92EF92FF920F931F93CF93DF937C01B8
:1040E000D62E8C01D0E0C0E0F8018081803279F0DA
:1040F000D83031F46EE283E294E00E943103CF5F66
:10410000F801608183E294E00E949F26CF5FDF5F29
:104110000F5F1F4FDB3041F7F701838588718031D6
:1041200031F46FE283E294E00E943103CF5FCD155A
:1041300010F460E2F7CFDF91CF911F910F91FF90C4
:10414000EF90DF9008952F923F924F925F926F927F
:104150007F928F929F92AF92BF92CF92DF92EF9217
:10416000FF920F931F93CF93DF93CDB7DEB76F9777
:104170000FB6F894DEBF0FBECDBF7C01D62EFC017A
:10418000168217821086118612861386148615866B
:10419000862F837019F05EE0752E01C0712CA42E5D
:1041A000B12CFD2DF170FE8F8D2D8470682E23E8CB
:1041B000822E21E0922E32E0C32EC40EED2DE2704D
:1041C000EF8FC7010E9402188C01009709F488C084
:1041D000FC018081882309F483C0853E91F38E32EF
:1041E00081F3838583FDEDCF312C832D032C000CCF
:1041F000990B8A159B053CF460E283E294E00E94EF
:1042000031033394F2CF672DC8010E946820FE8DE0
:10421000FF2379F0F801808D918D0E947D1660E278
:1042200083E294E00E943103F801868997890E9415
:10423000A516F80183858871803119F0FF8DF11181
:104240000EC083E294E00E944203662009F4B9CFD5
:10425000F80183858871803109F0B3CF11C060E225
:1042600083E294E00E943103F801448D558D668D00
:10427000778D2AE030E083E294E00E94E903E1CF09
:10428000F70142855385648575851A012B0185E008
:1042900056944794379427948A95D1F71C821B82B1
:1042A0009A8289821E82A1014150510921E0B70101
:1042B000CE0101960E94D21C882331F04C2D6D2D29
:1042C000CE0101960E94A320A10195E0440F551F45
:1042D0009A95E1F760E070E0C7010E944B1871CF3A
:1042E0006F960FB6F894DEBF0FBECDBFDF91CF91B2
:1042F0001F910F91FF90EF90DF90CF90BF90AF9004
:104300009F908F907F906F905F904F903F902F90F5
:104310000895809116028823A9F1409100015091DF
:104320000101609102017091030129E132E0809165
:104330001702909118020E948F13811102C080E031
:1043400008954091120250911302609114027091ED
:104350001502411551056105710591F029E132E021
:1043600080911702909118020E948F13882339F3CD
:10437000109212021092130210921402109215025F
:104380001092160281E00895CF92DF92EF92FF9291
:10439000CF936B017C01C42F8091000190910101AA
:1043A000A0910201B09103018C159D05AE05BF05DA
:1043B000D1F00E948921811102C080E01AC029E158
:1043C00032E0B701A60180911702909118020E9475
:1043D0001312882391F3C0920001D0920101E09260
:1043E0000201F092030180911602C82BC0931602BD
:1043F00081E0CF91FF90EF90DF90CF900895CF9222
:10440000DF92EF92FF926B017C010E948921882349
:10441000A9F0E9E1F2E0119284E0E931F807D9F777
:10442000C0920001D0920101E0920201F0920301DA
:104430008091160281608093160281E0FF90EF90D8
:10444000DF90CF9008958F929F92AF92BF92CF92BC
:10445000DF92EF92FF920F931F93CF93DF93FC01B4
:1044600081859285A385B4850196A11DB11D841710
:104470009507A607B70710F480E05BC0838894888F
:10448000A588B6888789803129F4BB27A72F962F66
:10449000852F09C0DB01CA01C7E0B695A79597959E
:1044A0008795CA95D1F7E9016A017B018F01BC01AB
:1044B000CD01680D791D8A1D9B1D80900001909093
:1044C0000101A0900201B0900301681579058A05E9
:1044D0009B0591F4F80187898031A1F4DD24EE2455
:1044E000FF24C601880F991FFC01E75EFD4F808104
:1044F0009181A0E0B0E018C040E00E94C421811189
:10450000E9CFBACFE894C7F8DD24EE24FF24C60132
:10451000880F991F880F991FFC01E75EFD4F80816E
:104520009181A281B381BF7088839983AA83BB8361
:1045300081E0DF91CF911F910F91FF90EF90DF907D
:10454000CF90BF90AF909F908F9008954F925F92C1
:104550006F927F92AF92BF92CF92DF92EF92FF92D3
:104560000F931F93CF93DF9300D000D0CDB7DEB76A
:104570008C0149835A836B837C835901C12CD12CD4
:104580007601412C82E0582E612C712C49815A8190
:104590006B817C819E012F5F3F4FC8010E942322C7
:1045A000882351F1D301C201F801058404C0880FAA
:1045B000991FAA1FBB1F0A94D2F7C80ED91EEA1E64
:1045C000FB1E49815A816B817C818789803129F06A
:1045D00088EF9FEFAFEFBFE004C088EF9FEFA0E050
:1045E000B0E0481759076A077B0780F2F501C082DF
:1045F000D182E282F38281E00F900F900F900F90B2
:10460000DF91CF911F910F91FF90EF90DF90CF90AE
:10461000BF90AF907F906F905F904F9008954F92B2
:104620005F926F927F928F929F92AF92BF92CF9242
:10463000DF92EF92FF920F931F93CF93DF93EC01E2
:10464000423051056105710510F480E078C089851C
:104650009A85AB85BC850196A11DB11D8417950770
:10466000A607B70790F3CB88DC88ED88FE888F8992
:10467000803129F4BB27A72F962F852F09C0DB0196
:10468000CA01E7E0B695A79597958795EA95D1F782
:10469000480159012A013B01C80ED91EEA1EFB1E22
:1046A0008091000190910101A0910201B09103015C
:1046B000C816D906EA06FB0681F48F898031A9F471
:1046C000B301A201552766277727440F551FFA012A
:1046D000E75EFD4F9182808219C040E0C701B601BC
:1046E0000E94C4218111E9CFB0CFB301A2014F775D
:1046F000552766277727440F551F440F551FFA018A
:10470000E75EFD4F80829182A282B3828091160281
:104710008160809316028A89823080F08D819E812B
:10472000AF81B885C80ED91EEA1EFB1EC0921202C8
:10473000D0921302E0921402F092150281E0DF9110
:10474000CF911F910F91FF90EF90DF90CF90BF908E
:10475000AF909F908F907F906F905F904F90089553
:104760002F923F924F925F926F927F929F92AF9261
:10477000BF92CF92DF92EF92FF920F931F93CF934E
:10478000DF93CDB7DEB760970FB6F894DEBF0FBEEC
:10479000CDBF5C0149875A876B877C871901D90196
:1047A000CD90DD90ED90FC90C114D104E104F104B2
:1047B00031F0BFEFCB1ADB0AEB0AFB0A10C0FC0199
:1047C000C080D180E280F3809924939409851A8572
:1047D0002B853C85013011052105310509F0912C0F
:1047E000F50181859285A385B4858C019D010F5FBC
:1047F0001F4F2F4F3F4F0D871E872F87388B260166
:1048000037011D821E821F821886F50181859285DF
:10481000A385B4850D811E812F813885081719075E
:104820002A073B0708F056C02D853E854F855889DD
:10483000241535054605570550F482E0482E512CC5
:10484000612C712C92E0C92ED12CE12CF12C9E010F
:104850002F5F3F4FB301A201C5010E94232288238D
:10486000C9F149815A816B817C81D301C2010196D2
:10487000A11DB11D452B462B472B19F06C017D0165
:104880000FC0AC01BD014C195D096E097F09098596
:104890001A852B853C85041715072607370779F0FD
:1048A0002D813E814F8158852F5F3F4F4F4F5F4F86
:1048B0002D833E834F8358872C013D01A6CF0FEFF8
:1048C0001FEF2FEF3FE0B301A201C5010E940F23AC
:1048D000811118C080E041C0D301C2010197A10934
:1048E000B1098D839E83AF83B88793018201AC01A8
:1048F000BD01C5010E940F23882361F34D805E80B6
:104900006F807884C414D504E604F70428F3D10139
:104910004D915D916D917C91411551056105710538
:1049200099F4F101C082D182E282F3829920A1F050
:10493000FFEFCF1ADF0AEF0AFF0AD501CD92DD9211
:10494000ED92FC92139708C097018601C5010E9461
:104950000F238111E6CFBECF81E060960FB6F894A9
:10496000DEBF0FBECDBFDF91CF911F910F91FF90A2
:10497000EF90DF90CF90BF90AF909F907F906F901F
:104980005F904F903F902F900895AF92BF92CF923B
:10499000DF92EF92FF920F931F93CF93DF9300D09C
:1049A00000D0CDB7DEB75C016A017B0182E090E008
:1049B000A0E0B0E0F50180839183A283B3839E01E0
:1049C0002F5F3F4FB701A601C5010E942322882314
:1049D00011F100E010E09801B701A601C5010E94A5
:1049E0000F238823C1F0C980DA80EB80FC80F501B9
:1049F0008789803129F088EF9FEFAFEFBFE004C0D7
:104A000088EF9FEFA0E0B0E0C816D906EA06FB06E3
:104A1000B0F281E001C080E00F900F900F900F90F6
:104A2000DF91CF911F910F91FF90EF90DF90CF908A
:104A3000BF90AF9008958F929F92AF92BF92CF9206
:104A4000DF92EF92FF920F931F93CF93DF93EC01CE
:104A5000142F7093180260931702442369F14530B4
:104A600010F080E0F2C040E060E070E0CB010E9416
:104A7000C4218823B1F320E1129FA0011124475FD4
:104A80005D4FFA01E254FE4F80818F7751F73C96DB
:104A900080819181A281B38184369105A105B10500
:104AA00000F33497C080D180E280F380C114D10438
:104AB000E104F10421F4D5CFC12CD12C760140E0E2
:104AC000C701B6010E94C421882359F280912402B3
:104AD000909125028115924021F690912902992307
:104AE00009F4BFCF2091270230912802232B09F42B
:104AF000B8CF80912602882309F4B3CF9A8B8C8398
:104B00001D8690E041E050E02D85E22FBA01022E93
:104B100002C0660F771F0A94E2F78617970731F0F5
:104B200031E0320F3D87283078F39BCF20912F0260
:104B3000309130022115310519F040E050E008C0F5
:104B400020913D0230913E0240913F02509140023F
:104B50002D833E834F8358878091270290912802AE
:104B600046015701880E991EA11CB11C8B8A9C8A94
:104B7000AD8ABE8A00912A0210912B02198F088FEC
:104B8000A0912902B0E00E949E36860E971EA81EB4
:104B9000B91E8A8E9B8EAC8EBD8E85E0000F111FD4
:104BA0008A95E1F701501E4F012F11270695800EBF
:104BB000911EA11CB11C8E869F86A88AB98A20915D
:104BC0002C0230912D022115310521F0A90160E060
:104BD00070E008C04091390250913A0260913B0266
:104BE00070913C02D701C60188199909AA09BB092D
:104BF000840F951FA61FB71F04C0B695A79597955C
:104C00008795EA95D2F789879A87AB87BC87853FD6
:104C10002FE09207A105B10510F48CE014C0853F88
:104C20009F4FA105B10510F480E10DC080914502B0
:104C300090914602A0914702B09148028A8F9B8FC3
:104C4000AC8FBD8F80E28F8B81E0DF91CF911F9180
:104C50000F91FF90EF90DF90CF90BF90AF909F901B
:104C60008F900895FC01918D228D892F90E0805CBA
:104C70009F4F821B91098F7399270895FC01918D95
:104C8000828D981731F0828DE80FF11D858D90E0AF
:104C900008958FEF9FEF0895FC01918D828D9817F5
:104CA00061F0828DDF01A80FB11D5D968C91928D10
:104CB0009F5F9F73928F90E008958FEF9FEF08950D
:104CC000FC01538D448D252F30E0842F90E0821B12
:104CD000930B541710F0CF9608950197089585E32C
:104CE00094E3892B49F080E090E0892B29F00E9421
:104CF000353481110C9400000895FC01848DDF018E
:104D0000A80FB11DA35ABF4F2C91848D90E001963E
:104D10008F739927848FA689B7892C93A089B1892D
:104D20008C91837080648C93938D848D981306C0CE
:104D30000288F389E02D80818F7D80830895EF9232
:104D4000FF920F931F93CF93DF93EC0181E0888F45
:104D50009B8D8C8D981305C0E889F989808185FD2C
:104D600026C0F62E0B8D10E00F5F1F4F0F7311271B
:104D7000E02E8C8DE8120CC00FB607FCFACFE88944
:104D8000F989808185FFF5CFCE010E947D26F1CF84
:104D90008B8DFE01E80FF11DE35AFF4FF0829FB7A4
:104DA000F8940B8FEA89FB89808180620AC09FB7E3
:104DB000F894EE89FF896083E889F989808183709E
:104DC000806480839FBF81E090E0DF91CF911F914D
:104DD0000F91FF90EF900895CF93DF93EC01888DB2
:104DE0008823C9F0EA89FB89808185FD05C0A889EF
:104DF000B9898C9186FD0FC00FB607FCF5CF808175
:104E000085FFF2CFA889B9898C9185FFEDCFCE01BE
:104E10000E947D26E7CFDF91CF910895CF92DF9258
:104E2000EF92FF921F93CF93DF93EC016A017B0116
:104E3000122FE889F98982E080834115514E61057E
:104E40007105B1F060E079E08DE390E0A701960193
:104E50000E947C36DA01C9010197A109B109B69512
:104E6000A795979587959C01211580E13807A8F0B3
:104E7000E889F989108260E874E88EE190E0A70182
:104E800096010E947C36DA01C9010197A109B10996
:104E9000B695A795979587959C01EC85FD85308300
:104EA000EE85FF852083188EEC89FD891083EA89C1
:104EB000FB89808180618083EA89FB8980818860A9
:104EC0008083EA89FB89808180688083EA89FB8905
:104ED00080818F7D8083DF91CF911F91FF90EF9034
:104EE000DF90CF900895CF93DF93EC01E881F981B3
:104EF0000680F781E02D0995EA89FB8980818F7E04
:104F00008083EA89FB898081877F8083EA89FB89A6
:104F100080818F778083EA89FB8980818F7D808380
:104F20008A8D898FDF91CF9108951F920F920FB6CE
:104F30000F9211242F933F938F939F93AF93BF931F
:104F40008091190490911A04A0911B04B0911C0443
:104F50003091210423E0230F2D3720F40196A11D69
:104F6000B11D05C026E8230F0296A11DB11D209397
:104F700021048093190490931A04A0931B04B09306
:104F80001C0480911D0490911E04A0911F04B091F7
:104F900020040196A11DB11D80931D0490931E0451
:104FA000A0931F04B0932004BF91AF919F918F9164
:104FB0003F912F910F900FBE0F901F9018952FB714
:104FC000F8946091190470911A0480911B049091D7
:104FD0001C042FBF08953FB7F89480911D04909151
:104FE0001E04A0911F04B091200426B5A89B05C003
:104FF0002F3F19F00196A11DB11D3FBFBA2FA92F58
:10500000982F8827820F911DA11DB11DBC01CD01D4
:1050100042E0660F771F881F991F4A95D1F70895C0
:105020008F929F92AF92BF92CF92DF92EF92FF92B8
:105030006B017C010E94EB274B015C01C114D10480
:10504000E104F10401F10E94DC330E94EB27DC0152
:10505000CB0188199909AA09BB09883E9340A1058B
:10506000B10560F321E0C21AD108E108F10888EE29
:10507000880E83E0981EA11CB11CC114D104E10468
:10508000F10419F7DBCFFF90EF90DF90CF90BF9046
:10509000AF909F908F9008958230910538F0880FDF
:1050A000991F880F991F05970197F1F70895789434
:1050B00084B5826084BD84B5816084BD85B582601D
:1050C00085BD85B5816085BDEEE6F0E080818160BB
:1050D0008083E1E8F0E010828081826080838081BB
:1050E00081608083E0E8F0E0808181608083E1EB93
:1050F000F0E0808184608083E0EBF0E0808181607B
:105100008083EAE7F0E08081846080838081826030
:105110008083808181608083808180688083109219
:10512000C1000895FC01808191810C94B239CF9324
:10513000DF93EC0188819981009711F00E94B239C8
:10514000198218821D821C821B821A82DF91CF91E4
:1051500008950F931F93CF93DF93EC018B016F5F43
:105160007F4F888199810E943B3A009731F0998363
:1051700088831B830A8381E001C080E0DF91CF91A7
:105180001F910F910895CF93DF93EC01888199814E
:10519000892B29F08A819B818617970760F4CE01BD
:1051A0000E94A928882341F08C819D81892B19F4C4
:1051B000E881F981108281E0DF91CF910895EF922B
:1051C000FF920F931F93CF93DF93EC017B018A0132
:1051D000BA010E94C328811104C0CE010E94972801
:1051E00007C01D830C83B701888199810E94963B7B
:1051F000CE01DF91CF911F910F91FF90EF90089515
:10520000FC011182108213821282158214826115B0
:10521000710551F0FB0101900020E9F73197AF01D2
:10522000461B570B0C94DF280895EF92FF920F93C3
:105230001F93CF93DF93EC017B018A01BA010E9497
:10524000C328811104C0CE010E94972807C01D8386
:105250000C83B701888199810E944A3BCE01DF917E
:10526000CF911F910F91FF90EF900895CF93DF930F
:10527000EC01FB018617970761F060817181611570
:10528000710529F0448155810E94DF2802C00E94E7
:105290009728CE01DF91CF910895FC0111821082F1
:1052A00013821282158214820C943629CF93DF93D5
:1052B000EC016115710559F0FB0101900020E9F73F
:1052C0003197AF01461B570B0E94DF2802C00E9496
:1052D0009728CE01DF91CF910895CF93DF9300D02F
:1052E000CDB7DEB7FC0111821082138212821582C3
:1052F000148269831A82BE016F5F7F4F0E94562914
:105300000F900F90DF91CF9108950F931F93CF933C
:10531000DF93CDB7DEB729970FB6F894DEBF0FBE87
:10532000CDBF8C01862FF801118210821382128268
:105330001582148250E0BE016F5F7F4F90E00E94A3
:10534000513CBE016F5F7F4FC8010E9456292996CC
:105350000FB6F894DEBF0FBECDBFDF91CF911F9186
:105360000F9108950F931F93CF93DF93CDB7DEB7BF
:1053700062970FB6F894DEBF0FBECDBF8C01CB0194
:10538000F80111821082138212821582148250E079
:10539000BE016F5F7F4F0E94DF3BBE016F5F7F4F9B
:1053A000C8010E94562962960FB6F894DEBF0FBE60
:1053B000CDBFDF91CF911F910F9108950F931F9350
:1053C000CF93DF93CDB7DEB761970FB6F894DEBF0A
:1053D0000FBECDBF8C01CB01F80111821082138268
:1053E00012821582148250E0BE016F5F7F4F0E94CF
:1053F000513CBE016F5F7F4FC8010E9456296196E4
:105400000FB6F894DEBF0FBECDBFDF91CF911F91D5
:105410000F9108950F931F93CF93DF93CDB7DEB70E
:10542000A2970FB6F894DEBF0FBECDBF8C01CB01A3
:10543000BA01F8011182108213821282158214823D
:1054400030E0AE014F5F5F4F0E94F53BBE016F5FE2
:105450007F4FC8010E945629A2960FB6F894DEBF6E
:105460000FBECDBFDF91CF911F910F9108950F9384
:105470001F93CF93DF93CDB7DEB7A1970FB6F89404
:10548000DEBF0FBECDBF8C01CB01BA01F801118286
:105490001082138212821582148230E0AE014F5FB7
:1054A0005F4F0E94243CBE016F5F7F4FC8010E9486
:1054B0005629A1960FB6F894DEBF0FBECDBFDF917F
:1054C000CF911F910F910895EF92FF920F931F9329
:1054D000CF93DF93CDB7DEB7A1970FB6F894DEBFB9
:1054E0000FBECDBF7C01CB01BA01F7011182108242
:1054F000138212821582148242E0420F8E010F5FE6
:105500001F4F0E94FA38BC01C7010E945629A1967C
:105510000FB6F894DEBF0FBECDBFDF91CF911F91C4
:105520000F91FF90EF900895EF92FF920F931F93CA
:10553000CF93DF93CDB7DEB7A1970FB6F894DEBF58
:105540000FBECDBF7C01CB01BA01F70111821082E1
:10555000138212821582148242E0420F8E010F5F85
:105560001F4F0E94FA38BC01C7010E945629A1961C
:105570000FB6F894DEBF0FBECDBFDF91CF911F9164
:105580000F91FF90EF9008950F931F93CF93DF93A8
:10559000EC018B016115710549F0CB010E94513B73
:1055A000AC01B801CE010E94152902C00E949728C3
:1055B000CE01DF91CF911F910F910895FC011182CF
:1055C000108213821282158214820C94C42AEF92E4
:1055D000FF920F931F93CF93DF936115710511F421
:1055E00080E01CC041155105C1F07B01EC018C81AC
:1055F0009D818A01080F191FB801CE010E94C3289E
:10560000882371F3288139818C819D81B701820FB4
:10561000931F0E94963B1D830C8381E0DF91CF9105
:105620001F910F91FF90EF900895FB0144815581E8
:10563000608171810C94E72A6115710551F0FB01BD
:1056400001900020E9F73197AF01461B570B0C94EE
:10565000E72A80E00895CF93DF9300D0CDB7DEB77F
:1056600069831A8241E050E0BE016F5F7F4F0E9464
:10567000E72A0F900F90DF91CF910895EF92FF925C
:105680000F931F93CF93DF9300D000D0CDB7DEB739
:105690007C01862F4AE050E08E010F5F1F4FB8015A
:1056A00090E00E94DF3BF80101900020E9F731977C
:1056B000AF01401B510BB801C7010E94E72A0F90B0
:1056C0000F900F900F90DF91CF911F910F91FF904E
:1056D000EF900895EF92FF920F931F93CF93DF9374
:1056E000CDB7DEB728970FB6F894DEBF0FBECDBF9B
:1056F0007C01CB014AE050E08E010F5F1F4FB801E3
:105700000E94DF3BF80101900020E9F73197AF01DB
:10571000401B510BB801C7010E94E72A28960FB61B
:10572000F894DEBF0FBECDBFDF91CF911F910F91D7
:10573000FF90EF900895EF92FF920F931F93CF93F6
:10574000DF93CDB7DEB727970FB6F894DEBF0FBE55
:10575000CDBF7C01CB014AE050E08E010F5F1F4FAF
:10576000B8010E94513CF80101900020E9F73197FF
:10577000AF01401B510BB801C7010E94E72A2796D1
:105780000FB6F894DEBF0FBECDBFDF91CF911F9152
:105790000F91FF90EF900895EF92FF920F931F9358
:1057A000CF93DF93CDB7DEB72E970FB6F894DEBF59
:1057B0000FBECDBF7C01CB01BA012AE030E08E01E3
:1057C0000F5F1F4FA8010E94F53BF80101900020D8
:1057D000E9F73197AF01401B510BB801C7010E9497
:1057E000E72A2E960FB6F894DEBF0FBECDBFDF912D
:1057F000CF911F910F91FF90EF900895EF92FF923C
:105800000F931F93CF93DF93CDB7DEB72D970FB6CE
:10581000F894DEBF0FBECDBF7C01CB01BA012AE0F8
:1058200030E08E010F5F1F4FA8010E94243CF80159
:1058300001900020E9F73197AF01401B510BB801EF
:10584000C7010E94E72A2D960FB6F894DEBF0FBE5F
:10585000CDBFDF91CF911F910F91FF90EF900895F1
:10586000EF92FF920F931F93CF93DF93CDB7DEB7E5
:1058700064970FB6F894DEBF0FBECDBF7C01CB019D
:10588000BA018E010F5F1F4F22E044E00E94FA38F8
:10589000FC0101900020E9F73197AF01481B590B3B
:1058A000BC01C7010E94E72A64960FB6F894DEBFD8
:1058B0000FBECDBFDF91CF911F910F91FF90EF9061
:1058C0000895EF92FF920F931F93CF93DF93CDB77D
:1058D000DEB764970FB6F894DEBF0FBECDBF7C0174
:1058E000CB01BA018E010F5F1F4F22E044E00E94FE
:1058F000FA38FC0101900020E9F73197AF01481B0D
:10590000590BBC01C7010E94E72A64960FB6F894B0
:10591000DEBF0FBECDBFDF91CF911F910F91FF90E2
:10592000EF900895EF92FF920F931F93CF93DF9321
:105930006115710511F480E01EC08B01EC01CB01F3
:105940000E94513B0097B1F02C813D817C01E20E19
:10595000F31EB701CE010E94C328882361F328817A
:1059600039818C819D81B801820F931F0E944A3B2F
:10597000FD82EC8281E0DF91CF911F910F91FF902A
:10598000EF900895CF93DF93EC01FB0144815581A3
:10599000608171810E94E72A811103C0CE010E94BB
:1059A0009728CE01DF91CF910895CF93DF93EC013B
:1059B0006115710561F0FB0101900020E9F7319755
:1059C000AF01461B570B0E94E72A811103C0CE018D
:1059D0000E949728CE01DF91CF910895CF93DF9356
:1059E000EC010E942B2B811103C0CE010E9497284D
:1059F000CE01DF91CF910895CF93DF93EC010E9408
:105A00003E2B811103C0CE010E949728CE01DF9169
:105A1000CF910895CF93DF93EC010E946A2B8111FF
:105A200003C0CE010E949728CE01DF91CF91089547
:105A3000CF93DF93EC010E949B2B811103C0CE0119
:105A40000E949728CE01DF91CF910895CF93DF93E5
:105A5000EC010E94CC2B811103C0CE010E9497283B
:105A6000CE01DF91CF910895CF93DF93EC010E9497
:105A7000FE2B811103C0CE010E949728CE01DF9139
:105A8000CF910895CF93DF93EC010E94302C8111C8
:105A900003C0CE010E949728CE01DF91CF910895D7
:105AA000CF93DF93EC010E94612C811103C0CE01E2
:105AB0000E949728CE01DF91CF910895CF93DF9375
:105AC000EC010E94922C811103C0CE010E94972804
:105AD000CE01DF91CF910895CF93DF93DC01ED915B
