:100000000C946A000C94A6010C9495010C94920037
:100010000C9492000C9492000C9492000C94920018
:100020000C9492000C9492000C9492000C94920008
:100030000C9492000C9492000C9492000C949200F8
:100040000C9417170C9492000C94F5150C94CF1582
:100050000C9492000C9492000C9492000C949200D8
:100060000C9492000C9492000000000023002600E3
:10007000290004040404040404040202020202022B
:10008000030303030303010204081020408001025C
:1000900004081020010204081020000000080002DB
:1000A00001000003040700000000000000007C3C89
:1000B0003E5E2B3D3F2F5B5D3B2C2A225C00000007
:1000C0000000240027002A0000000000250028006E
:1000D0002B00481B11241FBECFEFD8E0DEBFCDBFE1
:1000E00026E0AAE1B3E001C01D92A732B207E1F712
:1000F00013E0A0E0B1E0E2E8FDE302C005900D925C
:10010000AA31B107D9F710E0CAE6D0E004C02197C0
:10011000FE010E94961CC936D107C9F70E94901BA8
:100120000C94BF1E0C940000089580E090E00895A8
:100130000E94580F892B69F464E670E080E090E03B
:100140000E94D1160E94580F21E0892B19F420E05B
:1001500001C021E0822F08954F925F926F927F92AB
:10016000AF92BF92CF92DF92EF92FF920F931F93C5
:10017000CF93DF931F92CDB7DEB7FC0125812223F9
:1001800009F4C1C0848180FFBEC083899489A58998
:10019000B689428453846484758484159505A605C4
:1001A000B70509F4B0C06F015201F1E0BF22D601DA
:1001B0005B968D919C915C97B301A20139E0769595
:1001C0006795579547953A95D1F7223071F4FC0120
:1001D000828D938DA48DB58D8A019B01080F191F07
:1001E0002A1F3B1FC901B8014AC0DC0114961C91AB
:1001F00011501423A114B104F9F411111DC04528A4
:100200004628472851F4F6018789908DA18DB28D3B
:1002100086839783A087B1870FC0D60116964D912C
:100220005D916D917C91199796012A5F3F4F0E94D5
:100230000C19882309F467C0F601238D348D86815B
:100240009781A085B1850297A109B109AC01BD01D3
:10025000F901058404C0440F551F661F771F0A94D7
:10026000D2F786859785A089B189840F951FA61F2F
:10027000B71FBC01CD01610F711D811D911DD601FC
:1002800014962C9126FF0DC0409000015090010162
:1002900060900201709003014616570668067906C1
:1002A00099F440E00E942218882369F1F501E65D87
:1002B000FC4FDE0111969F012F5F3F4F2E173F0726
:1002C00099F081918D93FACFFE0131967F0101E083
:1002D00010E09501AB01BC0180912A0590912B059E
:1002E0000E94020C882379F0F60182859385A4850B
:1002F000B5850196A11DB11D82879387A487B58717
:10030000898190E002C08FEF9FEF0F90DF91CF9136
:100310001F910F91FF90EF90DF90CF90BF90AF9023
:100320007F906F905F904F9008951F920F920FB63D
:100330000F9211248F93809123038F5F8093230367
:100340008F910F900FBE0F901F9018951F920F92D4
:100350000FB60F9211248F939F93AF93BF93809109
:10036000240390912503A0912603B09127030196C1
:10037000A11DB11D8093240390932503A093260310
:10038000B0932703BF91AF919F918F910F900FBEB4
:100390000F901F901895CF93DF93CDB7DEB7C65A55
:1003A000D1090FB6F894DEBF0FBECDBF5298E89AC0
:1003B00080916900826080936900809169008E7FDE
:1003C000809369005398E99A8091690088608093CE
:1003D000690080916900846080936900E0913C0528
:1003E000F0913D0582E08083E0913805F091390578
:1003F0001082E0913A05F0913B058FEC80831092DA
:100400004405E0914005F091410586E08083E0914C
:100410003E05F0913F05808180618083E0913E053B
:10042000F0913F05808188608083E0913E05F091E6
:100430003F05808180688083E0913E05F0913F0513
:1004400080818F7D808384E691E00E94951061E039
:100450008AE00E94951661E083E10E94951660E0B3
:1004600086E00E949516EB961FAE1EAEEB978EE0CF
:1004700091E0E9969FAF8EAFE99787E0EC968FAF5A
:10048000EC978FEFED968FAFED9788E0EE968FAFFC
:10049000EE9781E1EF968FAFEF9780E1C158DF4F84
:1004A0008883CF57D0408FE0C058DF4F8883C05833
:1004B000D0408EE0CF57DF4F8883C158D040CE5711
:1004C000DF4F1882C258D040CD57DF4F1882C35833
:1004D000D040CC57DF4F1882C458D040CB57DF4FA5
:1004E0001882C558D040CA57DF4F1882C658D0402E
:1004F00061E0CE0189589F4F0E94D11162E0CE0188
:1005000089589F4F0E94D1118AE891E00E9495106E
:10051000BCE7CB2EB0E0DB2E10E9A12E10E0B12E0F
:1005200000E5E02E83E0382E96E0292E22E0F22E20
:100530008091FA05882321F085EF95E00E943B0A1F
:100540001092D6051092D4051092D1051092D005C4
:100550003AE03093CF050E940B178B0161E0809148
:10056000CF050E94951661E08091CF050E9450163C
:100570009FB6F89480911A03811126C0F6018491E8
:10058000F5019491E82FF0E0EE0FFF1FE254FF4FCA
:10059000A591B4912C91892F822321F461E08AE006
:1005A0000E94501661E08AE00E9495168CB5806129
:1005B0008CBD8CB580648CBD61E08DE00E94951689
:1005C00061E08BE00E94951680911A038F5F809303
:1005D0001A039FBEF2E5F093C9051092CA058091F7
:1005E000C9059091CA050E949A0BEAE09E2E8FEFF2
:1005F0000E945B0B9A949110FACF8BEC95E00E94CD
:100600009D0B20E030E0A90160E08BEC95E00E94BA
:10061000B30B982E8093D50531E0831749F00E94E3
:100620000B17601B710B613D774058F381E046C0AA
:100630002AEA31E040E050E068E08BEC95E00E946F
:10064000B30B82FF03C09092D60510C074E0972EC2
:100650000E94620B8093D5059A949110F9CF8A3A43
:1006600019F0F092D0055FC0F092D6058091D605C2
:10067000823021F0612C712C430105C0612C712C5A
:10068000812C60E4962E20E030E0A90167E38BEC3A
:1006900095E00E94B30BA401930169E28BEC95E015
:1006A0000E94B30B8093D505882359F00E940B1745
:1006B000601B710B613D774030F388E08093D0057B
:1006C00032C08091D6058230D1F420E030E0A9011B
:1006D0006AE38BEC95E00E94B30B882319F020921B
:1006E000D00521C00E94620B807C803C11F43092C6
:1006F000D6050E94620B0E94620B0E94620B8BEC7B
:1007000095E00E94500BE092C9051092CA0581E065
:100710000E94A310882361F085EF95E00E941A10D3
:10072000882359F025C08BEC95E00E94500B05C042
:1007300080E00E94A3108111EFCF82EA91E00E9435
:10074000951062EA71E0CE0101960E946213BE012B
:100750006F5F7F4FCE0189589F4F0E945414CE0186
:1007600001960E94431361E083E10E945016E0CE9F
:1007700082EB91E00E94951060E083E10E945016A8
:1007800068EC71E0CE018B569F4F0E9462136DECB6
:1007900071E0CE0185569F4F0E9462136CEB72E0B0
:1007A000CE018F559F4F0E946213C12CD12C50E572
:1007B000852E51E0952EB601CE0182960E94171328
:1007C000BE016B567F4FCE0101960E944813BE01B9
:1007D0006E5D7F4FCE0101960E948612BE01655666
:1007E0007F4F0E948612BC01CE0181579F4F0E940D
:1007F0004813CE0101960E944313CE0182960E94B7
:100800004313B601CE0182960E94171362ED71E088
:10081000CE0101960E946213BE016E5D7F4FCE0134
:1008200001960E9486120E948010CE0101960E94BD
:100830004313CE0182960E944313C157DF4FA88015
:10084000B980CF58D04023961FAE1EAE2397219675
:100850009FAE8EAE219725961FAE25971DA21CA296
:100860009BA28AA21FA2612C712CFE01FF967F0120
:1008700005EF15E0F501E60DF71D80818F3219F4C3
:10088000FFEF6F1A7F0AD501A60DB71DFE01E45ACE
:10089000FF4F80E090E02D912F3251F0222341F064
:1008A00001963FEF631A730A21938C30910599F7F3
:1008B000ECE5F0E0EC0FFD1FE80FF91F1082F501E9
:1008C000E60DF71D80818F3219F48FEF681A780AD0
:1008D000F501E60DF71D30801C821B829A82898209
:1008E0001E8221E0AE01445A5F4FB801CE0101964D
:1008F0000E948F19882339F0CE0101960E943B0A8D
:10090000311006C022C095E0053F190759F52DC0EA
:10091000F7018581811122C021E0AE01445A5F4F69
:10092000B801C7010E948F19382EF5E0053F1F0757
:1009300009F45AC3C8010E943B0A3320B1F0902F3A
:10094000812F8701E92EF82E95CF35E0053F13075B
:1009500009F437C1C8010E943B0A33C1F5E0053FE5
:100960001F0719F0C8010E943B0AC157DF4F688179
:100970007981CF58D0406115710561F0CD56DF4FB8
:1009800048815981C359D040CE018F559F4F0E9455
:10099000B21205C0CE018F559F4F0E947412CE0136
:1009A00081579F4F0E9443136FED71E0CE01019676
:1009B0000E946213BE016F557F4FCE0101960E94C7
:1009C00086120E948010CE0101960E944313CF55DB
:1009D000DF4FA880B980C15AD0401DA21CA280E57B
:1009E00091E09BA38AA31FA21C821B829A83898306
:1009F0001E828E010E5D1F4FC8010E941A107501E4
:100A0000CE0101966C0148016FE270E0C7010E94BF
:100A10009E1E009709F446C0F70120812F3221F471
:100A2000FFEFEF1AFF0AF0CF8E198D3008F08CE03F
:100A3000082F10E0A801B701CE01845A9F4F0E94F1
:100A4000B01EECE5F0E0EC0FFD1FE00FF11F10828F
:100A5000C6010E943B0AF6018581882371F0239626
:100A60001FAE1EAE239780E591E021969FAF8EAF1B
:100A7000219725961FAE25971DC021E0AE01445A4F
:100A80005F4FB401C6010E948F19882341F3E00E25
:100A9000F11EC4010E943B0A982D892D4601C92EE2
:100AA000D82EB2CF27014A185B08B401CE01CF96E9
:100AB0000E94AD0E4A0C5B1CF201808181110AC0BC
:100AC000BE01615C7F4FCE0101960E94AD0E40EFEA
:100AD00051E047C01DA21CA280E591E09BA38AA320
:100AE0001FA225968FAD259781111CC0A0961FAE21
:100AF0001EAEA09788EE93E0A0E0B0E0A4968CAF85
:100B00009DAFAEAFBFAFA4978AE191E06E969FAF65
:100B10008EAF6E97E7961FAE1EAEE797A9961FAEF3
:100B2000A99727C027E1A201BE01615C7F4FCE01DA
:100B300082960E948F198823C9F2CE01CF960E9417
:100B40003B0A4DA95EA96FA978ADCE0182960E949D
:100B50007D08BE016E5D7F4FCE0101960E94AD0EF5
:100B6000A201BE016F5F7F4FCE01845A9F4F0E944A
:100B70007C0F61E083E10E94501682EF91E00E94B9
:100B800095106BE172E0CE0182960E9462136BE2D7
:100B900072E0CE0101960E946213AE014E5D5F4F7E
:100BA000BE016F5F7F4FCE0189589F4F0E94DF13B8
:100BB000CE0101960E944313CE0182960E944313F8
:100BC00009C0CE0181579F4F0E944313FFEFCF1AF8
:100BD000DF0AF1CD0E949800882339F064E670E0C6
:100BE00080E090E00E94D116F5CF60E083E10E94A2
:100BF00050168CE392E00E94951063E572E0CE01FE
:100C000082960E94621363E672E0CE0101960E9412
:100C10006213AE014E5D5F4FBE016F5F7F4FCE012D
:100C200089589F4F0E94DF13CE0101960E94431303
:100C3000CE0182960E944313789400E010E0C80130
:100C4000A12CBB24B39440902403509025036090C2
:100C500026037090270382014816590609F45BC0E9
:100C60000E940B176B017C01B201CE01CF960E944E
:100C70001713B701A601CE0101960E94EA12BE0128
:100C80006F5F7F4FCE0182960E94481367E173E049
:100C9000CE0182960E949912BE01615C7F4F0E9434
:100CA00086120E948010CE0182960E944313CE01CC
:100CB00001960E944313CE01CF960E9443136C2DE0
:100CC000CE01845A9F4F0E941C0899278F2D7E2D9C
:100CD0006D2DCE01845A9F4F0E941C08B7018827B2
:100CE0009927CE01845A9F4F0E941C086F2D7727A9
:100CF00088279927CE01845A9F4F0E941C08642D93
:100D0000CE01845A9F4F0E941C08652DCE01845A43
:100D10009F4F0E941C0831E0A31AB108C20109F0DC
:100D200092CFCE01845A9F4F0E946B080E94980078
:100D3000882309F484CF60E772E0CE0101960E9417
:100D40006213BE016F557F4FCE0101960E9486123D
:100D50006EE772E00E9499120E948010CE01019607
:100D60000E9443136FEFCE01845A9F4F0E941C08CC
:100D7000E7968EAD9FADE797009761F00E943B0A22
:100D8000E7968EAD9FADE7970E94341DE7961FAEA4
:100D90001EAEE79761E083E10E94501661E972E0C0
:100DA000CE0182960E946213BE016F557F4FCE0125
:100DB00082960E948612BC01CE01CF960E944813F3
:100DC00064E972E0CE0101960E946213AE01415CBB
:100DD0005F4FBE016F5F7F4FCE0189589F4F0E94CA
:100DE000DF13CE0101960E944313CE01CF960E94DD
:100DF0004313CE0182960E94431368E873E180E0BA
:100E000090E00E94D116C157DF4F1882CF58D040D2
:100E100085EA92E00E9495108AE0C82ED12CE12C40
:100E2000F12C68EE73E080E090E00E94D1162091F2
:100E3000230330E040E050E019A28E010F5D1F4F08
:100E4000CA01B901A70196010E94741C605DF801F6
:100E500062938F01211531054105510589F7CF01B5
:100E60000E946E108AEB92E00E946E10C157DF4F15
:100E70009881CF58D04080912303981791F28091A8
:100E8000230321961FAE1EAE219723961FAE1EAEE2
:100E9000239725961FAE1EAE259783704AE0BE01AC
:100EA0006F5F7F4F90E00E94CC1BBE016F5F7F4F52
:100EB000CE01CF960E94D312809123031BA21AA2C7
:100EC0001DA21CA21FA21EA24AE0BE016F5F7F4F9F
:100ED00090E00E94F91BBE016F5F7F4FCE018296AA
:100EE0000E94D3126DEB72E0CE0101960E94621354
:100EF000BE016E5D7F4FCE0101960E94861265EDA8
:100F000072E00E949912BE01615C7F4F0E948612BE
:100F10000E948010CE0101960E944313CE0182965A
:100F20000E944313CE01CF960E9443138091230366
:100F30008370823011F1833079F1813079F0409102
:100F40002403509125036091260370912703CE015D
:100F500082960E94EA1262EE72E027C040911F035F
:100F6000509120036091210370912203CE0182965B
:100F70000E94EA126AEE72E018C040911B03509181
:100F80001C0360911D0370911E03CE0182960E9486
:100F9000EA1264EF72E009C0BE016F557F4FCE01C7
:100FA00082960E9448136EEF72E0CE0101960E9475
:100FB0006213AE014E5D5F4FBE016F5F7F4FCE018A
:100FC00089589F4F0E94DF13CE0101960E94431360
:100FD000CE0182960E94431380912303C157DF4FB5
:100FE0008883CF58D0401DCF882309F4BECC8E0112
:100FF0000E5D1F4FA4CCDC015996ED91FC915A97E0
:101000003097B9F083899489A589B689428553853B
:1010100064857585841B950BA60BB70B811520E89D
:101020009207A105B10538F08FEF9FE7A0E0B0E08F
:10103000089580E090E00895CF93DF931F92CDB79D
:10104000DEB76983DC01ED91FC910280F381E02D34
:1010500041E050E0BE016F5F7F4F09950F90DF9137
:10106000CF910895CF93DF93EC018D81882379F19F
:101070008C8187FF28C06E857F858889998941E0AA
:101080000E942218882319F1EA8980E2E89FF00182
:101090001124E65DFC4F3097D1F08D81823040F411
:1010A0008B899C89AD89BE89848F958FA68FB78FD8
:1010B0008F89988DA98DBA8D938F828FB58BA48BD4
:1010C0008C818F778C83DF91CF910C94E71780E030
:1010D000DF91CF910895FC01818D928D009711F0E1
:1010E0000C9432080895FC01818D928D009711F0C7
:1010F0000C94AC008FEF9FEF08958F929F92AF9268
:10110000BF92CF92DF92EF92FF920F931F93CF93F4
:10111000DF93EC018D81811102C080E078C00B89E2
:101120001C892D893E890417150726073707A8F360
:101130006A017B01823029F4CA86DB86EC86FD8653
:101140000DC0C114D104E104F10451F41E821F82C8
:10115000188619861A861B861C861D8681E057C054
:101160008A849B84AC84BD84EB8DFC8D258530E026
:10117000275F3F4FB501A401415051096109710931
:10118000022E04C076956795579547950A94D2F735
:10119000D701C6010197A109B10904C0B695A79569
:1011A000979587952A95D2F784179507A607B707CD
:1011B00020F089288A288B2871F44F89588D698DF1
:1011C0007A8D4E835F83688779874C015D018E013C
:1011D0000A5F1F4F16C0841B950BA60BB70BF5CFEC
:1011E0004E815F816885798598018B8D9C8D0E94E9
:1011F0000C1991E0891A9108A108B108882309F413
:101200008CCF81149104A104B10451F795CFDF91E3
:10121000CF911F910F91FF90EF90DF90CF90BF90F3
:10122000AF909F908F9008950F931F93CF93DF936C
:10123000FC01818D928D0097B9F0EF010E94AC0006
:101240008C010F3F8FEF180791F0898D9A8DFC016B
:10125000428553856485758541505109610971093D
:101260000E947D08C80105C080E090E002C08FEFB9
:101270009FEFDF91CF911F910F9108958F929F92D1
:10128000AF92BF92CF92DF92EF92FF920F931F9394
:10129000CF93DF9300D000D0CDB7DEB77C0180E2E2
:1012A000689FF0011124E65DFC4F9385917121F058
:1012B000842F827409F08FC0142FD70152966C933B
:1012C000529740910001509101016091020170918B
:1012D00003011E964D935D936D937C9351974489C2
:1012E000558960E070E0BA0155274427828D938DBF
:1012F000A0E0B0E0482B592B6A2B7B2BD7015796E7
:101300004D935D936D937C935A978385887159F4BF
:10131000848D958DA68DB78DF701838B948BA58BCE
:10132000B68B81E012C0803109F055C097012D5E67
:101330003F4FD7015B968D919C915C970E94B10FB6
:10134000882309F448C084E0F7018583812F8F70DA
:10135000D70114968C931497F70116821782108682
:1013600011861A961D921D921D921C921D9716FFB2
:1013700034C015968C91813071F511FF2CC0F701A6
:101380004389548965897689452B462B472B09F477
:1013900061C040E050E0BA01C7010E947D08882387
:1013A000D1F0F7018788908CA18CB28CC38CD48C3F
:1013B00082E090E0A0E0B0E0F60180839183A28318
:1013C000B3839E012F5F3F4FB501A401C6010E9468
:1013D0000C19811104C080E03DC081E03BC000E0F9
:1013E00010E09801B501A401C6010E946B18882382
:1013F00091F389809A80AB80BC80D60157968C91FE
:10140000803129F088EF9FEFAFEFBFE004C088EF95
:101410009FEFA0E0B0E088169906AA06BB0688F206
:10142000D70157961D921D921D921C925A97F70153
:10143000138A148A158A168A848180688483C70176
:101440000E943208882339F240E050E0BA01C70117
:101450000E947D080F900F900F900F90DF91CF9119
:101460001F910F91FF90EF90DF90CF90BF90AF90C2
:101470009F908F900895CF93DF93EC010E943208E4
:10148000882311F01D8281E0DF91CF9108953F9272
:101490004F925F926F927F928F929F92AF92BF9284
:1014A000CF92DF92EF92FF920F931F93CF93DF9330
:1014B000CDB7DEB72C970FB6F894DEBF0FBECDBF09
:1014C0005C01DC015B968D909C905C971696CD90AC
:1014D000DD90ED90FC901997C114D104E104F10462
:1014E00039F0BFEFCB1ADB0AEB0AFB0A312C07C03D
:1014F000F401C080D180E280F38033243394F4017E
:1015000081859285A385B4859C01AD012F5F3F4FF6
:101510004F4F5F4F29873A874B875C8726013701FA
:101520001D821E821F821886F40181859285A38503
:10153000B4852D813E814F815885281739074A0788
:101540005B0708F063C089859A85AB85BC858C15DF
:101550009D05AE05BF0550F482E0C82ED12CE12CCC
:10156000F12C92E0492E512C612C712C9E012F5FA1
:101570003F4FB701A601C4010E940C19882309F44A
:1015800045C089819A81AB81BC81892B8A2B8B2BA9
:1015900041F0260137019FEF491A590A690A790A71
:1015A00005C0C414D504E604F70491F02D813E81F2
:1015B0004F8158852F5F3F4F4F4F5F4F2D833E83A5
:1015C0004F8358873FEFC31AD30AE30AF30AACCF1D
:1015D0000FEF1FEF2FEF3FE0B301A201C4010E9404
:1015E0006B18882399F0D50116964D915D916D91F8
:1015F0007C911997411551056105710549F09301D9
:101600008201C4010E946B18811102C080E02AC0CF
:10161000D50116964D925D926D927C92199733206A
:1016200051F0D301C2010196A11DB11DF4018083C7
:101630009183A283B383F5018789908DA18DB28DAB
:10164000892B8A2B8B2B69F4D50157964D925D928D
:101650006D927C925A9714968C9114978068149688
:101660008C9381E02C960FB6F894DEBF0FBECDBFF1
:10167000DF91CF911F910F91FF90EF90DF90CF906E
:10168000BF90AF909F908F907F906F905F904F90A2
:101690003F9008958FB7F894809129038FBF0895E4
:1016A00061E0FC0184810E94501680912803811121
:1016B0001092280308958EBD00000DB407FEFDCFE3
:1016C0008EB508958FEF0C945B0B0F931F93CF9300
:1016D000DF93EB010E940B178B010E94620B8F3F7F
:1016E00049F00E940B17601B710B6C177D07A8F364
:1016F00080E001C081E0DF91CF911F910F910895AB
:10170000CF93DF93EC018E81882389F08F819885B8
:101710009C012F5F3F4F38872F838230924018F40F
:101720000E94620BF3CFCE010E94500B1E82DF910C
:10173000CF9108958CBD9DBD0895CF93DF93EC01AB
:1017400080912803811109C081E080932803809152
:10175000C9059091CA050E949A0B60E08C81DF91C7
:10176000CF910C9450168F929F92AF92BF92FF929E
:101770000F931F93CF93DF93EC01F62E49015A018B
:101780000E94800BCE010E949D0B6CE271E0CE01A5
:101790000E94650B8F2D80640E945B0B08E110E0B6
:1017A000D501C401002E04C0B695A79597958795DD
:1017B0000A94D2F70E945B0B08501109083F8FEF83
:1017C000180771F7FF2029F088E0F81204C087E8B5
:1017D00003C085E901C08FEF0E945B0B10E00E94FF
:1017E000620B8A8787FF04C01F3F11F01F5FF7CF8E
:1017F000DF91CF911F910F91FF90BF90AF909F907D
:101800008F900895AF92BF92CF92DF92EF92FF92A6
:101810000F931F93CF93DF93EC016901C801820FEF
:10182000931F8130924008F070C08E81882371F040
:1018300088819981AA81BB8184179507A607B7077C
:1018400029F48F819885C816D906B0F54883598345
:101850006A837B838B85833039F089E0440F551F81
:10186000661F771F8A95D1F79A01AB0161E1CE011E
:101870000E94B30B882319F083E08D8346C00E9439
:101880000B175B010E94620B8A878F3F49F40E940D
:101890000B176A197B096D327140A0F38FE003C00A
:1018A0008E3F31F08DE08D83CE010E94500B2DC014
:1018B00018861F8281E08E838F8198858C159D0507
:1018C00040F40E94620B8F819885019698878F83E0
:1018D000F3CF6701E00EF11EEC14FD0431F00E941D
:1018E000620BF60181936F01F7CF8F819885080F06
:1018F000191F18870F838985882319F00115124055
:1019000048F0CE010E94800B05C0CE010E94500B12
:1019100080E001C081E0DF91CF911F910F91FF9096
:10192000EF90DF90CF90BF90AF900895EF92FF922D
:101930000F931F93CF93DF93EC017901411551056C
:101940006105710511F482E13CC08B85833039F06B
:1019500089E0440F551F661F771F8A95D1F79A01BA
:10196000AB0168E1CE010E94B30B882311F084E043
:1019700028C08EEF0E945B0B87018EEFF81AF801EA
:1019800081918F010E945B0BE016F106C1F78FEF8A
:101990000E945B0B8FEF0E945B0B0E94620B8A8799
:1019A0008F71853031F081E18D83CE010E94500B23
:1019B00009C068E572E0CE010E94650B811107C085
:1019C00085E18D83CE010E94500B80E014C020E0A1
:1019D00030E0A9016DE0CE010E94B30B811109C076
:1019E0000E94620B811105C0CE010E94500B81E064
:1019F00002C084E1E6CFDF91CF911F910F91FF905C
:101A0000EF9008952F923F924F925F926F927F9244
:101A10008F929F92AF92BF92CF92DF92EF92FF92FE
:101A20000F931F93CF93DF9300D000D0CDB7DEB7D5
:101A30008C015B011A01DC0115968C9115978130A0
:101A4000C9F414968C9181FF15C082FF1DC0F80166
:101A5000438954896589768982859385A485B5856E
:101A600084179507A607B70779F0C8010E947D087B
:101A700081110AC081E090E0D80113969C938E9367
:101A8000129780E090E036C1610183C05B968D9132
:101A90009C915C97FC0174802FEF270D2A013B017C
:101AA00039E076946794579447943A95D1F7722E1B
:101AB00074207A01F1E0FF22772009F476C080E0FB
:101AC00092E08E199F0946018C159D0508F44C0182
:101AD000D8015B962D913C915C9716968D919D91C6
:101AE0000D90BC91A02D0297A109B109F9010584BF
:101AF00004C0880F991FAA1FBB1F0A94D2F74685FE
:101B0000578560897189840F951FA61FB71F9C0197
:101B1000AD01270D311D411D511D29013A018114CF
:101B200032E0930609F088C0809100019091010194
:101B3000A0910201B0910301481659066A067B067E
:101B400059F48FEF9FEFDC01809300019093010126
:101B5000A0930201B09303019501B301A20180910A
:101B60002A0590912B050E94960C882309F482CFB8
:101B70009EEFB91AC818D908F80182859385A48503
:101B8000B585880D991DA11DB11D82879387A487F6
:101B9000B587D8011A964D915D916D917C911D97F5
:101BA000C114D10409F072CF87C0E114F10409F027
:101BB00086CF16964D915D916D917C911997411547
:101BC00051056105710559F457968D919D910D90C0
:101BD000BC91A02D0097A105B10541F521C09E0142
:101BE0002F5F3F4F0E940C19882309F44BCF898146
:101BF0009A81AB81BC81F801238D348DF90127894D
:101C0000203129F048EF5FEF6FEF7FE004C048EF2D
:101C10005FEF60E070E084179507A607B70730F024
:101C2000C8010E94470A81114ACF24CFF801868358
:101C30009783A087B18743CFE114F10429F5D80138
:101C40001A964D915D916D917C911D9753968D9152
:101C50009D910D90BC91A02D481759076A077B07ED
:101C600098F00E94E717882309F404CF40920001FE
:101C70005092010160920201709203018091150659
:101C800081608093150608C041E0C301B2010E9443
:101C90002218882309F4EECED501F701E65DFC4F4A
:101CA0009F01280D391D2E173F0719F08D91819343
:101CB000FACFA80CB91C5ECFF80183899489A58955
:101CC000B68984179507A607B70738F4438B548B5A
:101CD000658B768B848180688483F801848183FDA1
:101CE00002C0C10107C0C8010E943208882309F45C
:101CF000C1CEF7CF0F900F900F900F90DF91CF9143
:101D00001F910F91FF90EF90DF90CF90BF90AF9019
:101D10009F908F907F906F905F904F903F902F900B
:101D20000895CF93DF93EC01898D9A8D009739F454
:101D300081E090E09B838A8380E090E00BC0FC010F
:101D4000138212820E94020DE98DFA8D2281338165
:101D5000232B71F7DF91CF910895FC01DB011296DF
:101D60008D919C9113979383828380E591E0918379
:101D7000808314968C911497848315968C91159773
:101D8000858316964D915D916D917C91199746834F
:101D90005783608771871A964D915D916D917C9103
:101DA0001D9742875387648775871E964D915D9175
:101DB0006D917C91519746875787608B718B5296B6
:101DC0008C915297828B53964D915D916D917C9140
:101DD0005697438B548B658B768B57964D915D91BF
:101DE0006D917C915A97478B508F618F728F5B9664
:101DF0008D919C915C97948F838F089540E00C9413
:101E00008E170E94831E0F931F93CF93DF93EC01D5
:101E100088819981009729F02A813B81261737070D
:101E200088F48B016F5F7F4F0E94BD1D009761F0AA
:101E3000998388831B830A832C813D81232B11F492
:101E4000FC01108281E001C080E0DF91CF911F9101
:101E50000F910895EF92FF920F931F93CF93DF930B
:101E60006115710511F480E01CC041155105C1F0E8
:101E70007B01EC018C819D818A01080F191FB8013B
:101E8000CE010E94030F882371F3288139818C8150
:101E90009D81B701820F931F0E94A91E1D830C8391
:101EA00081E0DF91CF911F910F91FF90EF90089506
:101EB000CF93DF93E0EAF0E08491ECE8F0E0D49196
:101EC000E8E7F0E0C491CC2391F081110E9427163D
:101ED000EC2FF0E0EE0FFF1FE859FF4FA591B491F2
:101EE000EC91ED2381E090E021F480E002C080E0FD
:101EF00090E0DF91CF910895EF92FF920F931F939F
:101F0000CF93DF93EC017B018A011B821A8288EE5A
:101F100093E0A0E0B0E08C839D83AE83BF838AE131
:101F200091E0998388838DE190E00E949C1C9A8FB8
:101F3000898F009779F02DE1F701DC0101900D9276
:101F40002A95E1F74CE050E0B801CE010C960E94D2
:101F5000B01E188EDF91CF911F910F91FF90EF90DF
:101F600008954F925F926F927F92AF92BF92CF92FD
:101F7000DF92EF92FF920F931F93CF93DF9300D0E6
:101F800000D0CDB7DEB78C0149835A836B837C8345
:101F90005901C12CD12C7601412C82E0582E612CA4
:101FA000712C49815A816B817C819E012F5F3F4F4B
:101FB000C8010E940C19882351F1D301C201F80114
:101FC000058404C0880F991FAA1FBB1F0A94D2F76B
:101FD000C80ED91EEA1EFB1E49815A816B817C8185
:101FE0008789803129F088EF9FEFAFEFBFE004C011
:101FF00088EF9FEFA0E0B0E0481759076A077B071A
:1020000080F2F501C082D182E282F38281E00F90FA
:102010000F900F900F90DF91CF911F910F91FF9034
:10202000EF90DF90CF90BF90AF907F906F905F90D8
:102030004F900895CF93DF93FC012581222311F067
:1020400080E049C0EC018091EE058031C1F482E06E
:102050008583178A108E118E128E8091EF059091D4
:10206000F005A0E0B0E025E0880F991FAA1FBB1F74
:102070002A95D1F7838B948BA58BB68B19C08032B0
:10208000F9F683E085834091F1055091F205609166
:10209000F3057091F405478B508F618F728F9F010C
:1020A0002D5E3F4F87ED95E00E94B10F882341F2EE
:1020B00087ED95E09C8F8B8F81E08C831E821F8241
:1020C000188619861A861B861C861D861E861F8604
:1020D000188A198A1A8ADF91CF910895009769F0BA
:1020E000FC0101900020E9F73197AF01481B590B23
:1020F000BC018CE295E00C948D1480E090E0089592
:10210000CF93DF93FC0144815581608171818CE222
:1021100095E00E948D14EC018AEB92E00E946E1013
:102120008C0F9D1FDF91CF910895CF93DF930E9475
:102130006E10EC018AEB92E00E946E108C0F9D1FD6
:10214000DF91CF9108958F929F92AF92BF92CF92DD
:10215000DF92EF92FF92CF93DF93C82F8BEC95E045
:1021600090932B0580932A05CC2369F1C53010F09C
:1021700080E00CC140E060E070E0CB010E942218DA
:102180008823B1F320E1C29FC0011124865E9C4FD9
:10219000FC01E254FE4F20812F7751F73C9640819D
:1021A000518162817381443651056105710500F3E7
:1021B0003497C080D180E280F380C114D104E1045F
:1021C000F10421F4D5CFC12CD12C760140E0C70118
:1021D000B6010E942218882359F28091350390910C
:1021E00036038115924021F6A0913A03AA2309F4FF
:1021F000BFCF60913803709139036115710509F4FF
:10220000B7CF20913703222309F4B2CFA093E90579
:102210002093DB0580E030E041E050E0C82FFA0178
:10222000082E02C0EE0FFF1F0A94E2F72E173F0799
:1022300039F08F5FC83091F789E08093E40598CF3B
:102240008093E4052091400330914103211531052D
:1022500019F040E050E008C020914E0330914F0348
:1022600040915003509151032093DC053093DD05DC
:102270004093DE055093DF0546015701860E971EF9
:10228000A11CB11C8092EA059092EB05A092EC058E
:10229000B092ED05E0913B03F0913C03F093F00523
:1022A000E093EF05B0E00E94231C860E971EA81E47
:1022B000B91E8092F1059092F205A092F305B092BA
:1022C000F40585E0EE0FFF1F8A95E1F7E150FE4F20
:1022D000EF2FFF27E6958E0E9F1EA11CB11C80924A
:1022E000E5059092E605A092E705B092E8052091F9
:1022F0003D0330913E032115310521F0A90160E035
:1023000070E008C040914A0350914B0360914C0328
:1023100070914D03D701C60188199909AA09BB0913
:10232000840F951FA61FB71F04C0B695A795979554
:102330008795CA95D2F78093E0059093E105A09325
:10234000E205B093E305853F2FE09207A105B105B3
:1023500010F48CE018C0853F9F4FA105B10510F423
:1023600080E111C08091560390915703A0915803CA
:10237000B09159038093F1059093F205A093F30572
:10238000B093F40580E28093EE0581E0DF91CF9178
:10239000FF90EF90DF90CF90BF90AF909F908F9085
:1023A0000895EF92FF920F931F93CF93DF93EC0169
:1023B000623018F08F8588608F876B8B1C8A80E471
:1023C0008D8B80E18E8B80E58F8B61E08C810E940C
:1023D00095168D818F3F19F061E00E94951661E09E
:1023E0008E810E9495167E0187E0E80EF11C00E0C8
:1023F00010E08F8584FD03C084E090E002C088E097
:1024000090E0081719074CF461E0F70181917F0112
:102410000E9495160F5F1F4FECCF8BE39DE0019755
:10242000F1F760E08C810E94501660E08E810E947E
:1024300050168D818F3F19F060E00E9450166F8515
:1024400064FD1DC063E0CE010E9461170BE416E439
:10245000C8010197F1F763E0CE010E946117C8013E
:102460000197F1F763E0CE010E94611783E592E0E6
:102470000197F1F762E0CE010E94611716C0606219
:10248000CE010E94FE0E8BE496E40197F1F76F8572
:102490006062CE010E94FE0E83E592E00197F1F7A3
:1024A0006F856062CE010E94FE0E6F856062CE0174
:1024B0000E94FE0E84E0888B6CE0CE010E94FE0E2E
:1024C00061E0CE010E94FE0E8BE39FE10197F1F7E0
:1024D00082E0898B66E0CE01DF91CF911F910F9151
:1024E000FF90EF900C94FE0ECF93DF93EC01888168
:1024F0009981009711F00E94341D198218821D8263
:102500001C821B821A82DF91CF910895CF93DF93B3
:10251000EC01FB0144815581608171810E942A0F89
:10252000811103C0CE010E947412CE01DF91CF91C0
:102530000895CF93DF93EC016115710561F0FB0104
:1025400001900020E9F73197AF01461B570B0E941D
:102550002A0F811103C0CE010E947412CE01DF91B7
:10256000CF910895EF92FF920F931F93CF93DF9334
:10257000EC017B018A01BA010E94030F811104C0A2
:10258000CE010E94741207C01D830C83B70188819D
:1025900099810E94A91ECE01DF91CF911F910F91C9
:1025A000FF90EF900895CF93DF93EC0161157105D3
:1025B00059F0FB0101900020E9F73197AF01461B6C
:1025C000570B0E94B21202C00E947412CE01DF911A
:1025D000CF9108950F931F93CF93DF93CDB7DEB7BD
:1025E000A1970FB6F894DEBF0FBECDBF8C01CB0113
:1025F000BA01F801118210821382128215821482AC
:102600002AE0AE014F5F5F4F0E94D71BBE016F5F94
:102610007F4FC8010E94D312A1960FB6F894DEBF77
:102620000FBECDBFDF91CF911F910F9108950F93F2
:102630001F93CF93DF93CDB7DEB761970FB6F894B2
:10264000DEBF0FBECDBF8C01CB01F801118210821D
:1026500013821282158214824AE0BE016F5F7F4F9F
:102660000E94F91BBE016F5F7F4FC8010E94D31209
:1026700061960FB6F894DEBF0FBECDBFDF91CF914C
:102680001F910F910895FC01808191810C94341D5C
:10269000FB01DC0111961C921E9213961C921E9255
:1026A000129715961C921E9214978617970749F059
:1026B000608171816115710521F0448155810C940F
:1026C000B2120895FC0111821082138212821582C7
:1026D00014826115710551F0FB0101900020E9F7AA
:1026E0003197AF01461B570B0C94B21208950F930C
:1026F0001F93CF93DF93CDB7DEB761970FB6F894F2
:10270000DEBF0FBECDBF8C01FB012481358121319D
:10271000310508F1FC0111821082138212821582A8
:102720001482FB0180819181F80191838083FB01F8
:1027300082819381F80193838283FB018481958157
:10274000F80195838483FB01118210821382128227
:102750001582148228C081E1E8E0F3E0DE011196E1
:1027600001900D928A95E1F7DE01119680E090E0EC
:102770008217930791F0FB0140815181411551056A
:1027800029F410921406E4E1F6E003C0FA01E80F20
:10279000F91F40814D930196EBCFBE016F5F7F4FD4
:1027A000C8010E946213C80161960FB6F894DEBF9B
:1027B0000FBECDBFDF91CF911F910F910895CF92A2
:1027C000DF92EF92FF920F931F93CF93DF93CDB7DA
:1027D000DEB72C970FB6F894DEBF0FBECDBF8C01CD
:1027E0006B017A0181E0F8019389911180E0819574
:1027F000F801E80FF11D64896068C8010E94FE0EAF
:10280000B601CE0107960E944813BE01695F7F4F53
:10281000CE0101960E9477134D815E8169817A8194
:10282000C8010E948D14CE0101960E944313CE016F
:1028300007960E944313F8018389823010F4815077
:1028400001C081E0F801E80FF11D64896068C801EA
:102850000E94FE0EB701CE0107960E944813BE01EA
:10286000695F7F4FCE0101960E9477134D815E8193
:1028700069817A81C8010E948D14CE0101960E945F
:102880004313CE0107960E9443132C960FB6F8947B
:10289000DEBF0FBECDBFDF91CF911F910F91FF9093
:1028A000EF90DF90CF900895EF92FF920F931F93D8
:1028B000CF93DF93CDB7DEB72C970FB6F894DEBF7A
:1028C0000FBECDBF8C017B016CEB72E0CE01019697
:1028D0000E946213B701CE0107960E944813AE0111
:1028E0004F5F5F4FBE01695F7F4FC8010E94DF13DA
:1028F000CE0107960E944313CE0101960E94431316
:102900002C960FB6F894DEBF0FBECDBFDF91CF91EE
:102910001F910F91FF90EF900895CF92DF92EF9269
:10292000FF920F931F93CF93DF936C017A018B017A
:10293000C0E0D0E0CE15DF0581F0D8016D918D01AA
:10294000D601ED91FC910190F081E02DC601099531
:10295000892B11F02196EECF7E01C701DF91CF9137
:102960001F910F91FF90EF90DF90CF900895FC01A1
:10297000538D448D252F30E0842F90E0821B930BE4
:10298000541710F0CF96089501970895FC01918D8A
:10299000828D981761F0828DDF01A80FB11D5D96C1
:1029A0008C91928D9F5F9F73928F90E008958FEF2F
:1029B0009FEF0895FC01918D828D981731F0828DE3
:1029C000E80FF11D858D90E008958FEF9FEF08953A
:1029D000FC01918D228D892F90E0805C9F4F821B9E
:1029E00091098F73992708958CE295E00E94E8146D
:1029F00021E0892B09F420E0822F0895FC01848DC9
:102A0000DF01A80FB11DA35ABF4F2C91848D90E018
:102A100001968F739927848FA689B7892C93A089F3
:102A2000B1898C91837080648C93938D848D98137D
:102A300006C00288F389E02D80818F7D8083089510
:102A4000EF92FF920F931F93CF93DF93EC0181E0FE
:102A5000888F9B8D8C8D981305C0E889F9898081BA
:102A600085FD26C0F62E0B8D10E00F5F1F4F0F73F4
:102A70001127E02E8C8DE8120CC00FB607FCFACFA0
:102A8000E889F989808185FFF5CFCE010E94FE1487
:102A9000F1CF8B8DFE01E80FF11DE35AFF4FF0825D
:102AA0009FB7F8940B8FEA89FB89808180620AC006
:102AB0009FB7F894EE89FF896083E889F98980815E
:102AC0008370806480839FBF81E090E0DF91CF912D
:102AD0001F910F91FF90EF900895CF93DF93EC013A
:102AE000888D8823C9F0EA89FB89808185FD05C02E
:102AF000A889B9898C9186FD0FC00FB607FCF5CF68
:102B0000808185FFF2CFA889B9898C9185FFEDCFAF
:102B1000CE010E94FE14E7CFDF91CF91089580E0AF
:102B200090E0892B29F00E94F41481110C9400008C
:102B300008953FB7F89480911F0690912006A091C8
:102B40002106B091220626B5A89B05C02F3F19F09B
:102B50000196A11DB11D3FBFBA2FA92F982F88271D
:102B6000820F911DA11DB11DBC01CD0142E0660F78
:102B7000771F881F991F4A95D1F70895CF93DF9348
:102B80001F92CDB7DEB7698341E050E0BE016F5FB1
:102B90007F4F0E94020D0F90DF91CF9108951F92F9
:102BA0000F920FB60F9211242F933F934F935F9381
:102BB0006F937F938F939F93AF93BF93EF93FF9305
:102BC0008CE295E00E94FE14FF91EF91BF91AF91CE
:102BD0009F918F917F916F915F914F913F912F9135
:102BE0000F900FBE0F901F9018951F920F920FB667
:102BF0000F9211242F938F939F93EF93FF93E09164
:102C00003C05F0913D058081E0914205F09143053E
:102C100082FD12C09081809145058F5F8F73209156
:102C20004605821751F0E0914505F0E0E45DFA4F6A
:102C3000958F8093450501C08081FF91EF919F9111
:102C40008F912F910F900FBE0F901F90189583308A
:102C500081F028F4813099F08230A1F00895873016
:102C6000A9F08830B9F08430D1F4809180008F7D54
:102C700003C0809180008F7780938000089584B591
:102C80008F7702C084B58F7D84BD08958091B00098
:102C90008F7703C08091B0008F7D8093B00008953E
:102CA0001F93CF93DF93282F30E0F901E656FF4FB3
:102CB0008491F901EA57FF4FD491F901EE58FF4F83
:102CC000C491CC23C1F0162F81110E942716EC2F3E
:102CD000F0E0EE0FFF1FE853FF4FA591B4919FB7AF
:102CE000F894111104C08C91D095D82302C0EC91B6
:102CF000DE2BDC939FBFDF91CF911F910895CF937F
:102D0000DF93EC0160E08E810E94501661E08E81BD
:102D10000E94501660E08E810E9450168BE891E070
:102D20000197F1F7DF91CF910895CF93DF9390E072
:102D3000FC01EA57FF4F2491FC01EE58FF4F8491AC
:102D4000882361F190E0880F991FFC01E254FF4F46
:102D5000C591D491FC01E853FF4FA591B491611145
:102D600009C09FB7F8948881209582238883EC91CD
:102D70002E230BC0623061F49FB7F8948881322F04
:102D8000309583238883EC912E2B2C939FBF06C014
:102D90008FB7F894E8812E2B28838FBFDF91CF91D6
:102DA00008958F929F92AF92BF92CF92DF92EF924F
:102DB000FF926B017C010E9499154B015C01C114CB
:102DC000D104E104F104F1F00E949915DC01CB017A
:102DD00088199909AA09BB09883E9340A105B10544
:102DE00070F321E0C21AD108E108F10888EE880EDC
:102DF00083E0981EA11CB11CC114D104E104F104AC
:102E000019F7DDCFFF90EF90DF90CF90BF90AF909C
:102E10009F908F9008952FB7F89460911B06709142
:102E20001C0680911D0690911E062FBF08951F92CB
:102E30000F920FB60F9211242F933F938F939F936E
:102E4000AF93BF9380911B0690911C06A0911D0625
:102E5000B0911E0630911A0623E0230F2D3720F47F
:102E60000196A11DB11D05C026E8230F0296A11DE4
:102E7000B11D20931A0680931B0690931C06A09305
:102E80001D06B0931E0680911F0690912006A0910A
:102E90002106B09122060196A11DB11D80931F0647
:102EA00090932006A0932106B0932206BF91AF9184
:102EB0009F918F913F912F910F900FBE0F901F9078
:102EC0001895CF92DF92EF92FF920F931F93CF93BB
:102ED000DF936C017C0187E0E80EF11CC0E0D0E0DC
:102EE000062F10E0B8010C2E02C0759567950A9464
:102EF000E2F76170F70181917F010E9450162196DF
:102F0000C430D10579F7C601DF91CF911F910F91A0
:102F1000FF90EF90DF90CF900C947F16CF92DF92CE
:102F2000EF92FF920F931F93CF93DF93EC01F62E56
:102F3000642F8C810E9450168D818F3F19F060E0C4
:102F40000E9450168F850F2D10E084FF25C06E0162
:102F500087E0C80ED11CE12CF12CB8010E2C02C068
:102F6000759567950A94E2F76170F60181916F019A
:102F70000E945016FFEFEF1AFF0A88E0E816F104EE
:102F800061F7CE01DF91CF911F910F91FF90EF90EC
:102F9000DF90CF900C947F16B80184E0759567950B
:102FA0008A95E1F7CE010E9461176F2DCE01DF9166
:102FB000CF911F910F91FF90EF90DF90CF900C94E5
:102FC000611741E00E948E1781E090E008958091A2
:102FD00015068823A9F140910001509101016091EB
:102FE0000201709103012AE233E080912A05909159
:102FF0002B050E94960C811102C080E0089540913B
:103000001606509117066091180670911906411521
:1030100051056105710591F02AE233E080912A059E
:1030200090912B050E94960C882339F31092160676
:103030001092170610921806109219061092150693
:1030400081E008958F929F92AF92BF92EF92FF928C
:103050000F931F93CF934B015C01C42F809100010C
:1030600090910101A0910201B09103018815990589
:10307000AA05BB0501F10E94E717811102C080E09B
:1030800020C08AE2E82E83E0F82E00E012E020E083
:1030900030E0B501A40180912A0590912B050E9492
:1030A000020C882361F38092000190920101A092AA
:1030B0000201B092030180911506C82BC09315063A
:1030C00081E0CF911F910F91FF90EF90BF90AF9053
:1030D0009F908F9008954F925F926F927F928F9200
:1030E0009F92AF92BF92CF92DF92EF92FF920F9397
:1030F0001F93CF93DF93EC014230510561057105B9
:1031000010F480E078C089859A85AB85BC850196EE
:10311000A11DB11D84179507A607B70790F3CB88AB
:10312000DC88ED88FE888F89803129F4BB27A72FA2
:10313000962F852F09C0DB01CA01E7E0B695A79558
:1031400097958795EA95D1F7480159012A013B01E6
:10315000C80ED91EEA1EFB1E80910001909101014C
:10316000A0910201B0910301C816D906EA06FB0638
:1031700081F48F898031A9F4B301A2015527662714
:103180007727440F551FFA01E65DFC4F918280823C
:1031900019C040E0C701B6010E9422188111E9CF91
:1031A000B0CFB301A2014F77552766277727440F89
:1031B000551F440F551FFA01E65DFC4F8082918236
:1031C000A282B382809115068160809315068A8958
:1031D000823080F08D819E81AF81B885C80ED91E66
:1031E000EA1EFB1EC0921606D0921706E092180641
:1031F000F092190681E0DF91CF911F910F91FF901E
:10320000EF90DF90CF90BF90AF909F908F907F9086
:103210006F905F904F9008958F929F92AF92BF9260
:10322000CF92DF92EF92FF920F931F93CF93DF9392
:10323000FC0181859285A385B4850196A11DB11DF0
:1032400084179507A607B70710F480E05BC0838852
:103250009488A588B6888789803129F4BB27A72F51
:10326000962F852F09C0DB01CA01C7E0B695A79547
:1032700097958795CA95D1F7E9016A017B018F017E
:10328000BC01CD01680D791D8A1D9B1D8090000138
:1032900090900101A0900201B0900301681579059A
:1032A0008A059B0591F4F80187898031A1F4DD241A
:1032B000EE24FF24C601880F991FFC01E65DFC4F38
:1032C00080819181A0E0B0E018C040E00E94221807
:1032D0008111E9CFBACFE894C7F8DD24EE24FF24AA
:1032E000C601880F991F880F991FFC01E65DFC4FEE
:1032F00080819181A281B381BF7088839983AA83E1
:10330000BB8381E0DF91CF911F910F91FF90EF90F0
:10331000DF90CF90BF90AF909F908F9008952F92A5
:103320003F924F925F926F927F928F929F92AF9255
:10333000BF92CF92DF92EF92FF920F931F93CF93A2
:10334000DF93CDB7DEB72B970FB6F894DEBF0FBE75
:10335000CDBF7C01FE013196CE010C966F0130E2AB
:103360003193E817F907E1F7DA0130E087E09D9142
:10337000992331F19E3231F48A3009F46BC138E07F
:103380008AE0F5CFEEEAF0E04491442321F0319653
:103390009413FACF5FC1831708F45CC14FED490F56
:1033A0004E3508F057C141E0430FF601E30FF11D20
:1033B0003FE9390F3A3108F490529083342FD7CF38
:1033C0008981803209F446C1322E8B01DB015B9684
:1033D0008D919C915C97F701948F838F16961D9227
:1033E0001D921D921C921997FB011286138614865A
:1033F0001586B12CF80182859385A485B58543890E
:1034000054896589768984179507A607B70708F058
:103410005BC025E0B695A795979587952A95D1F736
:10342000F82FFF70AF2ED80115968C91823008F4DA
:1034300011C1C8010E94AC0097FD0CC1F801828542
:103440009385A485B5854F96A11DB11D828793876D
:10345000A487B587F0E2AF9EB0011124665D7C4F72
:103460006115710509F4F6C0DB018C91882319F010
:10347000853EC1F4F1C0B1100EC0F701A28A80915F
:10348000000190910101A0910201B0910301868792
:103490009787A08BB18BDB018C91882399F0BB249B
:1034A000B394A8CF4BE050E0C6010E94881E892B40
:1034B00009F0A0CF832D8073803309F4CBC0432D56
:1034C0006A2DC4C0BB24B394832D8271823109F06C
:1034D000C1C0BB20C1F0F7016685778580899189DD
:1034E00041E00E942218882309F4B4C0D701529603
:1034F0008C91B0E28B9FC0011124865D9C4F009798
:1035000009F078C0A7C0F8018581823009F4A2C013
:10351000C8010E94470A882309F49CC0D8015B9621
:10352000ED91FC915C9716968D909D90AD90BC901E
:103530001997B2E08B1A9108A108B108058404C05C
:10354000880C991CAA1CBB1C0A94D2F78685978507
:10355000A089B189880E991EAA1EBB1E2480E1E0B5
:103560008E1A9108A108B108222009F12401350121
:10357000420C511C611C711C0E94E717882309F43E
:1035800069C0EAE2F3E0119225E0EA32F207D9F7E6
:103590004092000150920101609202017092030179
:1035A000809115068160809315062A94DDCFD8019D
:1035B0005B96ED91FC915C9780E092E0A0E0B0E03A
:1035C000058404C0880F991FAA1FBB1F0A94D2F755
:1035D000F8014389548965897689840F951FA61F50
:1035E000B71F838B948BA58BB68BD70152961C92F9
:1035F0008AE293E020E2FC0111922A95E9F72BE0A0
:10360000F601DC0101900D922A95E1F721E238E202
:10361000DC0151963C932E93509740E058E01F9662
:103620005C934E931E9753963C932E9352975996C4
:103630003C932E93589757965C934E9356970E94BF
:10364000E717882339F0432DF7016289C7010E94EB
:103650003E0905C080E003C0B11021CF0ECF2B96EC
:103660000FB6F894DEBF0FBECDBFDF91CF911F9193
:103670000F91FF90EF90DF90CF90BF90AF909F9011
:103680008F907F906F905F904F903F902F90089514
:10369000ECE2F5E01382128288EE93E0A0E0B0E065
:1036A00084839583A683B7838EE391E0918380839F
:1036B00085EC90E09587848784EC90E097878687F7
:1036C00080EC90E0918B808B81EC90E0938B828BEF
:1036D00082EC90E0958B848B86EC90E0978B868BC8
:1036E000118E128E138E148EE9ECF5E080E5808346
:1036F0001182EBECF5E0158216821186138682E0CA
:1037000090E0A0E0B0E084879587A687B78713A2F2
:1037100015A614A680E591E093A782A717A60895A1
:10372000789484B5826084BD84B5816084BD85B59C
:10373000826085BD85B5816085BDEEE6F0E0808163
:1037400081608083E1E8F0E0108280818260808384
:10375000808181608083E0E8F0E080818160808307
:10376000E1EBF0E0808184608083E0EBF0E0808139
:1037700081608083EAE7F0E08081846080838081DB
:103780008260808380818160808380818068808383
:103790001092C1000E94CB01BB274A3031F499231B
:1037A00022F4BDE2909581959F4F0C94FA1BBB27A4
:1037B000FA01A62F6217710581059105330B30FBC5
:1037C00066F0AA27660F771F881F991FAA1FA217E6
:1037D00010F0A21B63953850A9F7A05DAA3308F03A
:1037E000A95DA19336F7B111B1931082CA010C946F
:1037F000131CBB27FB015527AA27880F991FAA1F57
:10380000A41710F0A41B83955051B9F7A05DAA33FB
:1038100008F0A95DA193009779F7B111B1931192C6
:10382000CB010C94131CDC01FC01672F71917723F1
:10383000E1F7329704C07C916D9370836291AE176B
:10384000BF07C8F308950E94651CA59F900DB49F03
:10385000900DA49F800D911D112408952F923F92E9
:103860004F925F926F927F928F929F92AF92BF9290
:10387000CF92DF92EF92FF920F931F93CF93DF933C
:10388000CDB7DEB7CA1BDB0B0FB6F894DEBF0FBE99
:10389000CDBF09942A88398848885F846E847D84E6
:1038A0008C849B84AA84B984C884DF80EE80FD80E8
:1038B0000C811B81AA81B981CE0FD11D0FB6F8945E
:1038C000DEBF0FBECDBFED010895A29FB001B39F33
:1038D000C001A39F700D811D1124911DB29F700D19
:1038E000811D1124911D0895A1E21A2EAA1BBB1B54
:1038F000FD010DC0AA1FBB1FEE1FFF1FA217B307BC
:10390000E407F50720F0A21BB30BE40BF50B661FD1
:10391000771F881F991F1A9469F760957095809595
:1039200090959B01AC01BD01CF010895EE0FFF1FE3
:103930000590F491E02D09940F931F93CF93DF939B
:103940008230910510F482E090E0E0912506F0913C
:10395000260620E030E0A0E0B0E0309719F1408189
:1039600051810281138148175907C8F084179507C0
:1039700069F4109731F012960C93129713961C93DA
:1039800027C0009325061093260622C02115310575
:1039900019F04217530718F49A01BD01EF01DF0136
:1039A000F801DBCF21153105F9F0281B390B243044
:1039B000310580F48A819B816115710521F0FB013D
:1039C0009383828304C09093260680932506FE018C
:1039D000329644C0FE01E20FF31F8193919322506F
:1039E0003109398328833AC0209123063091240677
:1039F000232B41F4209106013091070130932406D6
:103A000020932306209104013091050121153105F1
:103A100041F42DB73EB74091080150910901241B94
:103A2000350BE0912306F0912406E217F307A0F48A
:103A30002E1B3F0B2817390778F0AC014E5F5F4F04
:103A40002417350748F04E0F5F1F5093240640930C
:103A500023068193919302C0E0E0F0E0CF01DF9173
:103A6000CF911F910F910895CF93DF93009709F4A1
:103A700081C0FC01329713821282A0912506B09179
:103A80002606109781F420813181820F931F2091A7
:103A90002306309124062817390751F5F0932406A0
:103AA000E093230667C0ED0120E030E0CE17DF078A
:103AB00040F44A815B819E0141155105F1F0EA0114
:103AC000F5CFD383C28340815181840F951FC817DE
:103AD000D90759F488819981840F951F02969183A3
:103AE00080838A819B81938382832115310529F408
:103AF000F0932606E09325063DC0E901FB83EA83A7
:103B000049915991C40FD51FEC17FD0761F48081CD
:103B10009181840F951F0296E901998388838281A0
:103B200093819B838A83E0E0F0E012968D919C91D3
:103B30001397009719F0FD01DC01F7CF8D919C914F
:103B400011979D012E5F3F4F820F931F20912306F7
:103B5000309124062817390769F4309729F4109218
:103B600026061092250602C013821282B093240604
:103B7000A0932306DF91CF910895A0E0B0E0E3EC9D
:103B8000FDE10C94321CEC01009721F4CB010E9462
:103B90009C1CB4C0FC01E60FF71F9C0122503109A8
:103BA000E217F30708F4A8C0D9010D911C911197F1
:103BB00006171707B0F00530110508F49BC0C801BF
:103BC00004978617970708F495C002501109061B41
:103BD000170B019311936D937C93CF010E94341DB9
:103BE00089C05B01A01AB10A4C01800E911EA09100
:103BF0002506B0912606612C712CE12CF12C109732
:103C000009F446C08D919C911197A815B905B1F59D
:103C10006C0142E0C40ED11CCA14DB0478F14C01E3
:103C20008A189B08640142E0C40ED11C1296BC9015
:103C300012971396AC91B5E0CB16D10440F0B28246
:103C4000A38391828082D9016D937C9309C00E5F1A
:103C50001F4F800F911FF90191838083EB2DFA2F65
:103C6000E114F10431F0D7011396FC93EE9312970F
:103C700041C0F0932606E09325063CC068167906FD
:103C800008F43C017D0112960D90BC91A02DB7CF98
:103C9000809123069091240688169906E1F4661611
:103CA0007706C8F48091040190910501009741F4D2
:103CB0008DB79EB74091080150910901841B950B67
:103CC000E817F907C8F4F0932406E0932306F901F6
:103CD000718360830FC0CB010E949C1C7C01009704
:103CE00059F0A801BE010E94951ECE010E94341D0C
:103CF000C70104C0CE0102C080E090E0CDB7DEB7BE
:103D0000EEE00C944E1C81E090E0F8940C94BF1E01
:103D1000FB01DC0104C08D910190801921F4415018
:103D20005040C8F7881B990B0895FB01DC0102C0C5
:103D300001900D9241505040D8F70895FC018191B7
:103D4000861721F08823D9F7992708953197CF0155
:103D50000895FB01DC0101900D920020E1F7089528
:103D6000FB01DC014150504048F001900D920020D1
:103D7000C9F701C01D9241505040E0F70895F894F2
:023D8000FFCF73
:103D8200FFFFFFFF00002706800000000000E11790
:103D92008D1495009400000000001C08910E9500FF
:103DA2006B08FB077308140900000000010F8D1453
:103DB20095009400010F010F010F00000000201573
:103DC2008D14B7146D15E814C614DA14000000003F
:103DD200BE158D149500940000000000010F8D1493
:103DE200950094005265736574204D6963726F6328
:103DF2006F6E74726F6C6C65722C20737461727466
:103E0200696E6720736574757000496E6974204C21
:103E12006971756964204372797374616C204C43D3
:103E22004400534420696E6974206661696C65645C
:103E32002100534420696E6974207375636365734E
:103E42007366756C6C7921006C6F675F002E626916
:103E52006E00747279206C6F676720746F20006C3B
:103E62006F67696E6720746F2066696C653A20001F
:103E72002F005265636F6E6E6563742074686520EF
:103E82007769726520746F207374617274206D6536
:103E920061737572656D656E7473007769746820FD
:103EA20074686520737769746368007374617274EF
:103EB200206D6561737572656D6E740073746172E5
:103EC20074206D6561737572656D656E742E2E2E2C
:103ED2002E2E00646F6E277420696E74657272757F
:103EE2007074004D6561737572696E672E2E2E00B7
:103EF200436C6F73696E672066696C652000206190
:103F02006E642073687574696E6720646F776E21C2
:103F1200003E20004C6F6766696C652073617665B0
:103F22006420746F00456E746572696E67206C63FD
:103F3200645F636F6E74726F6C000D0A006C636471
:103F42005F636F6E74726F6C206368616E67656425
:103F520020746F2000206D6F646F6C6F2069733A5C
:103F620020004D756F6E733A2000506164646C6579
:103F7200313A2000506164646C65323A20004C6F23
:103F82006766696C653A20002020202020202020CE
:0A3F92002020202020202020000025
:00000001FF
