:100000000C9465000C947F080C948D000C948D006A
:100010000C948D000C948D000C948D000C948D002C
:100020000C948D000C948D000C948D000C948D001C
:100030000C948D000C948D000C948D000C948D000C
:100040000C944B110C948D000C947B0A0C94550A63
:100050000C948D000C948D000C948D000C948D00EC
:100060000C948D000C948D007C3C3E5E2B3D3F2F0C
:100070005B5D3B2C2A225C000000000800020100AE
:100080000003040700000000000000000000000062
:10009000250028002B0000000000240027002A0073
:1000A000040404040404040402020202020203031E
:1000B0000303030301020408102040800102040826
:1000C0001020010204081020211511241FBECFEFBB
:1000D000D8E0DEBFCDBF26E0A4EDB1E001C01D92A7
:1000E000AA3EB207E1F711E0A0E0B1E0E8E7F0E3F3
:1000F00002C005900D92A43DB107D9F710E0C5E606
:10010000D0E004C02197FE010E941116C436D10729
:10011000C9F70E9495110C943A180C940000DC0168
:100120005996ED91FC915A973097B9F0838994894B
:10013000A589B6894285538564857585841B950B91
:10014000A60BB70B811520E89207A105B10538F081
:100150008FEF9FE7A0E0B0E0089580E090E0089581
:10016000CF93DF931F92CDB7DEB76983DC01ED91AA
:10017000FC910280F381E02D41E050E0BE016F5F11
:100180007F4F09950F90DF91CF910895089580E0FA
:1001900090E00895CF93DF93EC018D81882379F16E
:1001A0008C8187FF28C06E857F858889998941E089
:1001B0000E94E80A882319F1EA8980E2E89FF001A9
:1001C0001124ED50FC4F3097D1F08D81823040F4F6
:1001D0008B899C89AD89BE89848F958FA68FB78FB7
:1001E0008F89988DA98DBA8D938F828FB58BA48BB3
:1001F0008C818F778C83DF91CF910C94AD0A80E056
:10020000DF91CF910895FC01818D928D009711F0BF
:100210000C94CA0008958F929F92AF92BF92CF9292
:10022000DF92EF92FF920F931F93CF93DF93EC0136
:100230008D81811102C080E078C00B891C892D89D5
:100240003E890417150726073707A8F36A017B01C3
:10025000823029F4CA86DB86EC86FD860DC0C11487
:10026000D104E104F10451F41E821F82188619861C
:100270001A861B861C861D8681E057C08A849B8453
:10028000AC84BD84EB8DFC8D258530E0275F3F4F2E
:10029000B501A4014150510961097109022E04C040
:1002A00076956795579547950A94D2F7D701C60179
:1002B0000197A109B10904C0B695A79597958795AF
:1002C0002A95D2F784179507A607B70720F0892843
:1002D0008A288B2871F44F89588D698D7A8D4E83C9
:1002E0005F83688779874C015D018E010A5F1F4F2C
:1002F00016C0841B950BA60BB70BF5CF4E815F8103
:100300006885798598018B8D9C8D0E94D20B91E038
:10031000891A9108A108B108882309F48CCF8114A7
:100320009104A104B10451F795CFDF91CF911F91B2
:100330000F91FF90EF90DF90CF90BF90AF909F9084
:100340008F9008958F929F92AF92BF92CF92DF923B
:10035000EF92FF920F931F93CF93DF9300D000D0C3
:10036000CDB7DEB77C0180E2689FF0011124ED502B
:10037000FC4F9385917121F0842F827409F08FC016
:10038000142FD70152966C935297409100015091CF
:10039000010160910201709103011E964D935D93DE
:1003A0006D937C9351974489558960E070E0BA0160
:1003B00055274427828D938DA0E0B0E0482B592B20
:1003C0006A2B7B2BD70157964D935D936D937C934E
:1003D0005A978385887159F4848D958DA68DB78D34
:1003E000F701838B948BA58BB68B81E012C0803193
:1003F00009F055C097012D5E3F4FD7015B968D9157
:100400009C915C970E94790E882309F448C084E08F
:10041000F7018583812F8F70D70114968C931497E1
:10042000F70116821782108611861A961D921D9268
:100430001D921C921D9716FF34C015968C91813029
:1004400071F511FF2CC0F7014389548965897689BC
:10045000452B462B472B09F461C040E050E0BA0120
:10046000C7010E940B018823D1F0F7018788908C87
:10047000A18CB28CC38CD48C82E090E0A0E0B0E080
:10048000F60180839183A283B3839E012F5F3F4F48
:10049000B501A401C6010E94D20B811104C080E005
:1004A0003DC081E03BC000E010E09801B501A4012F
:1004B000C6010E94310B882391F389809A80AB801A
:1004C000BC80D60157968C91803129F088EF9FEF40
:1004D000AFEFBFE004C088EF9FEFA0E0B0E0881668
:1004E0009906AA06BB0688F2D70157961D921D925F
:1004F0001D921C925A97F701138A148A158A168A3C
:10050000848180688483C7010E94CA00882339F2ED
:1005100040E050E0BA01C7010E940B010F900F901C
:100520000F900F90DF91CF911F910F91FF90EF905F
:10053000DF90CF90BF90AF909F908F900895CF9312
:10054000DF93EC010E94CA00882311F01D8281E034
:10055000DF91CF9108953F924F925F926F927F9279
:100560008F929F92AF92BF92CF92DF92EF92FF92C3
:100570000F931F93CF93DF93CDB7DEB72C970FB6B2
:10058000F894DEBF0FBECDBF5C01DC015B968D90A1
:100590009C905C971696CD90DD90ED90FC9019970D
:1005A000C114D104E104F10439F0BFEFCB1ADB0A26
:1005B000EB0AFB0A312C07C0F401C080D180E28035
:1005C000F38033243394F40181859285A385B48527
:1005D0009C01AD012F5F3F4F4F4F5F4F29873A87F7
:1005E0004B875C87260137011D821E821F82188679
:1005F000F40181859285A385B4852D813E814F814B
:100600005885281739074A075B0708F063C08985B2
:100610009A85AB85BC858C159D05AE05BF0550F44C
:1006200082E0C82ED12CE12CF12C92E0492E512CE5
:10063000612C712C9E012F5F3F4FB701A601C401B1
:100640000E94D20B882309F445C089819A81AB812D
:10065000BC81892B8A2B8B2B41F0260137019FEF20
:10066000491A590A690A790A05C0C414D504E6046E
:10067000F70491F02D813E814F8158852F5F3F4FC8
:100680004F4F5F4F2D833E834F8358873FEFC31AF1
:10069000D30AE30AF30AACCF0FEF1FEF2FEF3FE0CF
:1006A000B301A201C4010E94310B882399F0D50146
:1006B00016964D915D916D917C911997411551055B
:1006C0006105710549F093018201C4010E94310B5B
:1006D000811102C080E02AC0D50116964D925D922C
:1006E0006D927C921997332051F0D301C20101968B
:1006F000A11DB11DF40180839183A283B383F50111
:100700008789908DA18DB28D892B8A2B8B2B69F4D3
:10071000D50157964D925D926D927C925A971496A0
:100720008C911497806814968C9381E02C960FB668
:10073000F894DEBF0FBECDBFDF91CF911F910F9117
:10074000FF90EF90DF90CF90BF90AF909F908F90F1
:100750007F906F905F904F903F9008958FB7F8947F
:100760008091D6018FBF089561E0FC0184810E94D1
:10077000B8108091D50181111092D50108958EBDD8
:1007800000000DB407FEFDCF8EB508958FEF0C94D9
:10079000BF030F931F93CF93DF93EB010E943F1191
:1007A0008B010E94C6038F3F49F00E943F11601BDE
:1007B000710B6C177D07A8F380E001C081E0DF9129
:1007C000CF911F910F910895CF93DF93EC018E810C
:1007D000882389F08F8198859C012F5F3F4F388750
:1007E0002F838230924018F40E94C603F3CFCE01CB
:1007F0000E94B4031E82DF91CF9108958CBD9DBDF0
:100800000895CF93DF93EC018091D501811109C048
:1008100081E08093D50180919206909193060E9489
:10082000FE0360E08C81DF91CF910C94B8108F9221
:100830009F92AF92BF92FF920F931F93CF93DF933C
:10084000EC01F62E49015A010E94E403CE010E94F8
:1008500001046CE271E0CE010E94C9038F2D806417
:100860000E94BF0308E110E0D501C401002E04C0BE
:10087000B695A795979587950A94D2F70E94BF03DE
:1008800008501109083F8FEF180771F7FF2029F072
:1008900088E0F81204C087E803C085E901C08FEF43
:1008A0000E94BF0310E00E94C6038A8787FF04C02E
:1008B0001F3F11F01F5FF7CFDF91CF911F910F9175
:1008C000FF90BF90AF909F908F900895AF92BF928E
:1008D000CF92DF92EF92FF920F931F93CF93DF930C
:1008E000EC016901C801820F931F8130924008F02A
:1008F00070C08E81882371F088819981AA81BB8123
:1009000084179507A607B70729F48F819885C8161D
:10091000D906B0F5488359836A837B838B858330FE
:1009200039F089E0440F551F661F771F8A95D1F76C
:100930009A01AB0161E1CE010E941704882319F0EE
:1009400083E08D8346C00E943F115B010E94C60375
:100950008A878F3F49F40E943F116A197B096D32E3
:100960007140A0F38FE003C08E3F31F08DE08D83A6
:10097000CE010E94B4032DC018861F8281E08E83B1
:100980008F8198858C159D0540F40E94C6038F8148
:100990009885019698878F83F3CF6701E00EF11E4B
:1009A000EC14FD0431F00E94C603F60181936F013F
:1009B000F7CF8F819885080F191F18870F838985B6
:1009C000882319F00115124048F0CE010E94E4037B
:1009D00005C0CE010E94B40380E001C081E0DF9138
:1009E000CF911F910F91FF90EF90DF90CF90BF902C
:1009F000AF900895EF92FF920F931F93CF93DF93E1
:100A0000EC017901411551056105710511F482E18F
:100A10003CC08B85833039F089E0440F551F661F39
:100A2000771F8A95D1F79A01AB0168E1CE010E9448
:100A30001704882311F084E028C08EEF0E94BF03C2
:100A400087018EEFF81AF80181918F010E94BF0390
:100A5000E016F106C1F78FEF0E94BF038FEF0E94EF
:100A6000BF030E94C6038A878F71853031F081E110
:100A70008D83CE010E94B40309C068E572E0CE0107
:100A80000E94C903811107C085E18D83CE010E94B8
:100A9000B40380E014C020E030E0A9016DE0CE0195
:100AA0000E941704811109C00E94C603811105C06C
:100AB000CE010E94B40381E002C084E1E6CFDF9161
:100AC000CF911F910F91FF90EF9008952F923F9239
:100AD0004F925F926F927F928F929F92AF92BF924E
:100AE000CF92DF92EF92FF920F931F93CF93DF93FA
:100AF00000D000D0CDB7DEB78C015B011A01DC015C
:100B000015968C9115978130C9F414968C9181FFBC
:100B100015C082FF1DC0F801438954896589768913
:100B200082859385A485B58584179507A607B707A1
:100B300079F0C8010E940B0181110AC081E090E0A8
:100B4000D80113969C938E93129780E090E036C163
:100B5000610183C05B968D919C915C97FC017480D0
:100B60002FEF270D2A013B0139E0769467945794C3
:100B700047943A95D1F7722E74207A01F1E0FF2262
:100B8000772009F476C080E092E08E199F09460133
:100B90008C159D0508F44C01D8015B962D913C9174
:100BA0005C9716968D919D910D90BC91A02D02970A
:100BB000A109B109F901058404C0880F991FAA1F72
:100BC000BB1F0A94D2F74685578560897189840FC7
:100BD000951FA61FB71F9C01AD01270D311D411D9B
:100BE000511D29013A01811432E0930609F088C0B1
:100BF0008091000190910101A0910201B091030147
:100C0000481659066A067B0659F48FEF9FEFDC0100
:100C10008093000190930101A0930201B09303011E
:100C20009501B301A2018091F3059091F4050E9412
:100C3000FA04882309F482CF9EEFB91AC818D9089C
:100C4000F80182859385A485B585880D991DA11D20
:100C5000B11D82879387A487B587D8011A964D91D5
:100C60005D916D917C911D97C114D10409F072CFF3
:100C700087C0E114F10409F086CF16964D915D917D
:100C80006D917C911997411551056105710559F4D4
:100C900057968D919D910D90BC91A02D0097A10527
:100CA000B10541F521C09E012F5F3F4F0E94D20B3D
:100CB000882309F44BCF89819A81AB81BC81F801EB
:100CC000238D348DF9012789203129F048EF5FEF1A
:100CD0006FEF7FE004C048EF5FEF60E070E08417E3
:100CE0009507A607B70730F0C8010E94AB02811133
:100CF0004ACF24CFF80186839783A087B18743CF5B
:100D0000E114F10429F5D8011A964D915D916D9188
:100D10007C911D9753968D919D910D90BC91A02D26
:100D2000481759076A077B0798F00E94AD0A882385
:100D300009F404CF40920001509201016092020137
:100D4000709203018091EE0381608093EE0308C0EE
:100D500041E0C301B2010E94E80A882309F4EECE03
:100D6000D501F701ED50FC4F9F01280D391D2E17BD
:100D70003F0719F08D918193FACFA80CB91C5ECF73
:100D8000F80183899489A589B68984179507A607F0
:100D9000B70738F4438B548B658B768B84818068DE
:100DA0008483F801848183FD02C0C10107C0C801AA
:100DB0000E94CA00882309F4C1CEF7CF0F900F908C
:100DC0000F900F90DF91CF911F910F91FF90EF90B7
:100DD000DF90CF90BF90AF909F908F907F906F905B
:100DE0005F904F903F902F900895CF93DF93EC0149
:100DF000898D9A8D009739F481E090E09B838A83F6
:100E000080E090E00BC0FC01138212820E94660514
:100E1000E98DFA8D22813381232B71F7DF91CF91F8
:100E20000895FC01DB0112968D919C911397938399
:100E3000828384E491E09183808314968C9114974B
:100E4000848315968C911597858316964D915D91A7
:100E50006D917C91199746835783608771871A96A5
:100E60004D915D916D917C911D9742875387648769
:100E700075871E964D915D916D917C915197468736
:100E80005787608B718B52968C915297828B5396B9
:100E90004D915D916D917C915697438B548B658BF1
:100EA000768B57964D915D916D917C915A97478BBA
:100EB000508F618F728F5B968D919C915C97948F10
:100EC000838F08954F925F926F927F92AF92BF92FD
:100ED000CF92DF92EF92FF920F931F93CF93DF9306
:100EE0001F92CDB7DEB7FC012581222309F4C1C0D2
:100EF000848180FFBEC083899489A589B689428494
:100F000053846484758484159505A605B70509F492
:100F1000B0C06F015201F1E0BF22D6015B968D9106
:100F20009C915C97B301A20139E07695679557953E
:100F300047953A95D1F7223071F4FC01828D938D5B
:100F4000A48DB58D8A019B01080F191F2A1F3B1F15
:100F5000C901B8014AC0DC0114961C911150142338
:100F6000A114B104F9F411111DC0452846284728E1
:100F700051F4F6018789908DA18DB28D8683978378
:100F8000A087B1870FC0D60116964D915D916D91E6
:100F90007C91199796012A5F3F4F0E94D20B8823BC
:100FA00009F467C0F601238D348D86819781A08571
:100FB000B1850297A109B109AC01BD01F901058410
:100FC00004C0440F551F661F771F0A94D2F7868509
:100FD0009785A089B189840F951FA61FB71FBC01F3
:100FE000CD01610F711D811D911DD60114962C91AB
:100FF00026FF0DC040900001509001016090020159
:1010000070900301461657066806790699F440E089
:101010000E94E80A882369F1F501ED50FC4FDE01DA
:1010200011969F012F5F3F4F2E173F0799F0819137
:101030008D93FACFFE0131967F0101E010E095011A
:10104000AB01BC018091F3059091F4050E94660408
:10105000882379F0F60182859385A485B58501966C
:10106000A11DB11D82879387A487B587898190E0F0
:1010700002C08FEF9FEF0F90DF91CF911F910F91E3
:10108000FF90EF90DF90CF90BF90AF907F906F90E8
:101090005F904F900895FC01818D928D009711F023
:1010A0000C9462078FEF9FEF08950F931F93CF93D8
:1010B000DF93FC01818D928D0097B9F0EF010E94C2
:1010C00062078C010F3F8FEF180791F0898D9A8D81
:1010D000FC0142855385648575854150510961093C
:1010E00071090E940B01C80105C080E090E002C0B8
:1010F0008FEF9FEFDF91CF911F910F9108951F9276
:101100000F920FB60F9211242F933F934F935F933B
:101110006F937F938F939F93AF93BF93CF93DF93FF
:10112000EF93FF93C091D703D0E00E943F11CC0F03
:10113000DD1FCC0FDD1FC952DE4F688379838A83A0
:101140009B838091D7038F5F8093D7038091D703D0
:101150008F778093D7039091D7038091D80398130A
:1011600003C081E08093D401FF91EF91DF91CF9193
:10117000BF91AF919F918F917F916F915F914F91AF
:101180003F912F910F900FBE0F901F9018950E94C6
:10119000FE17CF92DF92EF92FF920F931F93CF93A0
:1011A000DF936C017A018B01C0E0D0E0CE15DF0542
:1011B00081F0D8016D918D01D601ED91FC910190E6
:1011C000F081E02DC6010995892B11F02196EECF13
:1011D0007E01C701DF91CF911F910F91FF90EF909A
:1011E000DF90CF900895FC01538D448D252F30E082
:1011F000842F90E0821B930B541710F0CF96089524
:1012000001970895FC01918D828D981761F0828D70
:10121000DF01A80FB11D5D968C91928D9F5F9F732A
:10122000928F90E008958FEF9FEF0895FC01918DCC
:10123000828D981731F0828DE80FF11D858D90E039
:1012400008958FEF9FEF0895FC01918D228D892FD6
:1012500090E0805C9F4F821B91098F7399270895BE
:1012600085EF95E00E94240921E0892B09F420E014
:10127000822F0895FC01848DDF01A80FB11DA35AB0
:10128000BF4F2C91848D90E001968F739927848FA6
:10129000A689B7892C93A089B1898C9183708064C9
:1012A0008C93938D848D981306C00288F389E02D6A
:1012B00080818F7D80830895EF92FF920F931F931B
:1012C000CF93DF93EC0181E0888F9B8D8C8D9813F9
:1012D00005C0E889F989808185FD26C0F62E0B8D31
:1012E00010E00F5F1F4F0F731127E02E8C8DE81257
:1012F0000CC00FB607FCFACFE889F989808185FF19
:10130000F5CFCE010E943A09F1CF8B8DFE01E80F97
:10131000F11DE35AFF4FF0829FB7F8940B8FEA89D3
:10132000FB89808180620AC09FB7F894EE89FF89AB
:101330006083E889F98980818370806480839FBF9E
:1013400081E090E0DF91CF911F910F91FF90EF909E
:101350000895CF93DF93EC01888D8823C9F0EA8943
:10136000FB89808185FD05C0A889B9898C9186FD9E
:101370000FC00FB607FCF5CF808185FFF2CFA8899B
:10138000B9898C9185FFEDCFCE010E943A09E7CF54
:10139000DF91CF91089580E090E0892B29F00E94A1
:1013A000300981110C9400000895CF93DF931F92B0
:1013B000CDB7DEB7698341E050E0BE016F5F7F4F7C
:1013C0000E9466050F90DF91CF9108950F931F93B0
:1013D000CF93DF93EC0188819981009729F02A81CE
:1013E0003B812617370788F48B016F5F7F4F0E9480
:1013F0003817009761F0998388831B830A832C81B7
:101400003D81232B11F4FC01108281E001C080E0BA
:10141000DF91CF911F910F910895CF93DF93EC014E
:1014200088819981009711F00E94AF161982188265
:101430001D821C821B821A82DF91CF910895EF9248
:10144000FF920F931F93CF93DF93EC017B018A01EF
:10145000BA010E94E609811104C0CE010E940D0A62
:1014600007C01D830C83B701888199810E942418CD
:10147000CE01DF91CF911F910F91FF90EF900895D2
:101480006115710579F0FB0101900020E9F73197B2
:10149000AF01461B570BDC01ED91FC910280F381FB
:1014A000E02D099480E090E008951F920F920FB60E
:1014B0000F9211242F933F934F935F936F937F93DA
:1014C0008F939F93AF93BF93EF93FF9385EF95E037
:1014D0000E943A09FF91EF91BF91AF919F918F9137
:1014E0007F916F915F914F913F912F910F900FBE20
:1014F0000F901F9018951F920F920FB60F92112404
:101500002F938F939F93EF93FF93E0910506F091B4
:1015100006068081E0910B06F0910C0682FD12C058
:10152000908180910E068F5F8F7320910F06821736
:1015300051F0E0910E06F0E0EB50FA4F958F80935A
:101540000E0601C08081FF91EF919F918F912F91A5
:101550000F900FBE0F901F9018958091EE03882377
:10156000A9F1409100015091010160910201709137
:10157000030123EF33E08091F3059091F4050E947D
:10158000FA04811102C080E008954091EF03509168
:10159000F0036091F1037091F2034115510561056B
:1015A000710591F023EF33E08091F3059091F405FC
:1015B0000E94FA04882339F31092EF031092F0038B
:1015C0001092F1031092F2031092EE0381E008955D
:1015D0008F929F92AF92BF92EF92FF920F931F93C1
:1015E000CF934B015C01C42F8091000190910101C8
:1015F000A0910201B091030188159905AA05BB05C8
:1016000001F10E94AD0A811102C080E020C083EF89
:10161000E82E83E0F82E00E012E020E030E0B50193
:10162000A4018091F3059091F4050E94660488233B
:1016300061F38092000190920101A0920201B092A8
:1016400003018091EE03C82BC093EE0381E0CF919C
:101650001F910F91FF90EF90BF90AF909F908F9050
:1016600008954F925F926F927F928F929F92AF9266
:10167000BF92CF92DF92EF92FF920F931F93CF937F
:10168000DF93EC01423051056105710510F480E0F3
:1016900078C089859A85AB85BC850196A11DB11D51
:1016A00084179507A607B70790F3CB88DC88ED88E9
:1016B000FE888F89803129F4BB27A72F962F852F8D
:1016C00009C0DB01CA01E7E0B695A7959795879514
:1016D000EA95D1F7480159012A013B01C80ED91EEC
:1016E000EA1EFB1E8091000190910101A091020170
:1016F000B0910301C816D906EA06FB0681F48F896A
:101700008031A9F4B301A201552766277727440F3A
:10171000551FFA01ED50FC4F9182808219C040E0C4
:10172000C701B6010E94E80A8111E9CFB0CFB30129
:10173000A2014F77552766277727440F551F440F7F
:10174000551FFA01ED50FC4F80829182A282B38234
:101750008091EE0381608093EE038A89823080F06D
:101760008D819E81AF81B885C80ED91EEA1EFB1EF1
:10177000C092EF03D092F003E092F103F092F203F3
:1017800081E0DF91CF911F910F91FF90EF90DF905B
:10179000CF90BF90AF909F908F907F906F905F9011
:1017A0004F9008958F929F92AF92BF92CF92DF9207
:1017B000EF92FF920F931F93CF93DF93FC018185EC
:1017C0009285A385B4850196A11DB11D8417950747
:1017D000A607B70710F480E05BC083889488A588CB
:1017E000B6888789803129F4BB27A72F962F852FAC
:1017F00009C0DB01CA01C7E0B695A7959795879503
:10180000CA95D1F7E9016A017B018F01BC01CD01C5
:10181000680D791D8A1D9B1D80900001909001012B
:10182000A0900201B0900301681579058A059B0517
:1018300091F4F80187898031A1F4DD24EE24FF249E
:10184000C601880F991FFC01ED50FC4F80819181EA
:10185000A0E0B0E018C040E00E94E80A8111E9CFA2
:10186000BACFE894C7F8DD24EE24FF24C601880F20
:10187000991F880F991FFC01ED50FC4F80819181C9
:10188000A281B381BF7088839983AA83BB8381E0DF
:10189000DF91CF911F910F91FF90EF90DF90CF904C
:1018A000BF90AF909F908F9008952F923F924F924C
:1018B0005F926F927F928F929F92AF92BF92CF92E0
:1018C000DF92EF92FF920F931F93CF93DF93CDB7E9
:1018D000DEB72B970FB6F894DEBF0FBECDBF7C01ED
:1018E000FE013196CE010C966F0130E23193E8177C
:1018F000F907E1F7DA0130E087E09D91992331F1B2
:101900009E3231F48A3009F46BC138E08AE0F5CFB9
:10191000E8E6F0E04491442321F031969413FACFA5
:101920005FC1831708F45CC14FED490F4E3508F0D5
:1019300057C141E0430FF601E30FF11D3FE9390FB5
:101940003A3108F490529083342FD7CF8981803276
:1019500009F446C1322E8B01DB015B968D919C917F
:101960005C97F701948F838F16961D921D921D929E
:101970001C921997FB011286138614861586B12CCA
:10198000F80182859385A485B58543895489658945
:10199000768984179507A607B70708F05BC025E08E
:1019A000B695A795979587952A95D1F7F82FFF704B
:1019B000AF2ED80115968C91823008F411C1C80160
:1019C0000E94620797FD0CC1F80182859385A4856A
:1019D000B5854F96A11DB11D82879387A487B587D2
:1019E000F0E2AF9EB00111246D507C4F611571057E
:1019F00009F4F6C0DB018C91882319F0853EC1F40F
:101A0000F1C0B1100EC0F701A28A8091000190913F
:101A10000101A0910201B091030186879787A08BF5
:101A2000B18BDB018C91882399F0BB24B394A8CFB0
:101A30004BE050E0C6010E940318892B09F0A0CFAB
:101A4000832D8073803309F4CBC0432D6A2DC4C02D
:101A5000BB24B394832D8271823109F0C1C0BB20B5
:101A6000C1F0F701668577858089918941E00E9400
:101A7000E80A882309F4B4C0D70152968C91B0E2E9
:101A80008B9FC00111248D509C4F009709F078C0A6
:101A9000A7C0F8018581823009F4A2C0C8010E9464
:101AA000AB02882309F49CC0D8015B96ED91FC91B0
:101AB0005C9716968D909D90AD90BC901997B2E072
:101AC0008B1A9108A108B108058404C0880C991CE0
:101AD000AA1CBB1C0A94D2F786859785A089B18978
:101AE000880E991EAA1EBB1E2480E1E08E1A910862
:101AF000A108B108222009F124013501420C511C32
:101B0000611C711C0E94AD0A882309F469C0E3EFCF
:101B1000F3E0119225E0E33FF207D9F7409200018C
:101B20005092010160920201709203018091EE03D4
:101B300081608093EE032A94DDCFD8015B96ED910E
:101B4000FC915C9780E092E0A0E0B0E0058404C0E6
:101B5000880F991FAA1FBB1F0A94D2F7F801438967
:101B6000548965897689840F951FA61FB71F838BBB
:101B7000948BA58BB68BD70152961C9283EF93E082
:101B800020E2FC0111922A95E9F72BE0F601DC0135
:101B900001900D922A95E1F721E238E2DC0151969D
:101BA0003C932E93509740E058E01F965C934E93E1
:101BB0001E9753963C932E93529759963C932E938F
:101BC000589757965C934E9356970E94AD0A882378
:101BD00039F0432DF7016289C7010E94A20105C0B7
:101BE00080E003C0B11021CF0ECF2B960FB6F89432
:101BF000DEBF0FBECDBFDF91CF911F910F91FF9040
:101C0000EF90DF90CF90BF90AF909F908F907F909C
:101C10006F905F904F903F902F9008953FB7F8944A
:101C20008091E2069091E306A091E406B091E5066A
:101C300026B5A89B05C02F3F19F00196A11DB11D27
:101C40003FBFBA2FA92F982F8827820F911DA11D62
:101C5000B11DBC01CD0142E0660F771F881F991F9F
:101C60004A95D1F70895EF92FF920F931F93CF9368
:101C7000DF93EC01FB0104811581E080F180E11428
:101C8000F104C9F001151105C9F08C819D81080F7F
:101C9000191FB801CE010E94E609882361F028814E
:101CA00039818C819D81B701820F931F0E94241876
:101CB0001D830C8303C0CE010E940D0ACE01DF916B
:101CC000CF911F910F91FF90EF900895CF93DF93E5
:101CD000BC0185EF95E00E94400AEC0160ED71E0E7
:101CE00085EF95E00E94400A8C0F9D1FDF91CF91F8
:101CF00008954F925F926F927F92AF92BF92CF9270
:101D0000DF92EF92FF920F931F93CF93DF9300D058
:101D100000D0CDB7DEB78C0149835A836B837C83B7
:101D20005901C12CD12C7601412C82E0582E612C16
:101D3000712C49815A816B817C819E012F5F3F4FBD
:101D4000C8010E94D20B882351F1D301C201F801CE
:101D5000058404C0880F991FAA1FBB1F0A94D2F7DD
:101D6000C80ED91EEA1EFB1E49815A816B817C81F7
:101D70008789803129F088EF9FEFAFEFBFE004C083
:101D800088EF9FEFA0E0B0E0481759076A077B078C
:101D900080F2F501C082D182E282F38281E00F906D
:101DA0000F900F900F90DF91CF911F910F91FF90A7
:101DB000EF90DF90CF90BF90AF907F906F905F904B
:101DC0004F900895CF93DF93FC012581222311F0DA
:101DD00080E049C0EC018091B7068031C1F482E017
:101DE0008583178A108E118E128E8091B80690917D
:101DF000B906A0E0B0E025E0880F991FAA1FBB1F1D
:101E00002A95D1F7838B948BA58BB68B19C0803222
:101E1000F9F683E085834091BA065091BB06609144
:101E2000BC067091BD06478B508F618F728F9F01EA
:101E30002D5E3F4F80EA96E00E94790E882341F2A2
:101E400080EA96E09C8F8B8F81E08C831E821F82BC
:101E5000188619861A861B861C861D861E861F8676
:101E6000188A198A1A8ADF91CF9108958F929F92CA
:101E7000AF92BF92CF92DF92EF92FF92CF93DF9318
:101E8000C82F84E996E09093F4058093F305CC2362
:101E900069F1C53010F080E00CC140E060E070E016
:101EA000CB010E94E80A8823B1F320E1C29FC00160
:101EB00011248D519C4FFC01E254FE4F20812F775D
:101EC00051F73C96408151816281738144365105BE
:101ED0006105710500F33497C080D180E280F38002
:101EE000C114D104E104F10421F4D5CFC12CD12CCB
:101EF000760140E0C701B6010E94E80A882359F242
:101F00008091FE039091FF038115924021F6A091EC
:101F10000304AA2309F4BFCF609101047091020465
:101F20006115710509F4B7CF20910004222309F44B
:101F3000B2CFA093B2062093A40680E030E041E047
:101F400050E0C82FFA01082E02C0EE0FFF1F0A94BE
:101F5000E2F72E173F0739F08F5FC83091F789E01D
:101F60008093AD0698CF8093AD06209109043091FF
:101F70000A042115310519F040E050E008C0209115
:101F80001704309118044091190450911A042093B9
:101F9000A5063093A6064093A7065093A8064601CF
:101FA0005701860E971EA11CB11C8092B306909219
:101FB000B406A092B506B092B606E0910404F09182
:101FC0000504F093B906E093B806B0E00E949E15B0
:101FD000860E971EA81EB91E8092BA069092BB0666
:101FE000A092BC06B092BD0685E0EE0FFF1F8A9559
:101FF000E1F7E150FE4FEF2FFF27E6958E0E9F1E73
:10200000A11CB11C8092AE069092AF06A092B006C1
:10201000B092B106209106043091070421153105D4
:1020200021F0A90160E070E008C0409113045091D4
:1020300014046091150470911604D701C601881923
:102040009909AA09BB09840F951FA61FB71F04C0D1
:10205000B695A79597958795CA95D2F78093A906C7
:102060009093AA06A093AB06B093AC06853F2FE0F1
:102070009207A105B10510F48CE018C0853F9F4F71
:10208000A105B10510F480E111C080911F04909169
:102090002004A0912104B09122048093BA06909369
:1020A000BB06A093BC06B093BD0680E28093B70642
:1020B00081E0DF91CF91FF90EF90DF90CF90BF90C4
:1020C000AF909F908F90089590E0FC01EC54FF4FEB
:1020D0002491FC01E056FF4F8491882399F090E011
:1020E000880F991FFC01EA56FF4FA591B491FC019E
:1020F000E457FF4F859194918FB7F894EC91E22BC0
:10210000EC938FBF0895EF92FF920F931F93CF939D
:10211000DF93EC017B018A011B821A8288EE93E037
:10212000A0E0B0E08C839D83AE83BF838EE091E01E
:10213000998388838DE190E00E9417169A8F898F8A
:10214000009779F02DE1F701DC0101900D922A95BD
:10215000E1F74CE050E0B801CE010C960E942B183C
:10216000188EDF91CF911F910F91FF90EF900895FE
:1021700090E0FC01E858FF4F2491FC01EC54FF4F24
:102180003491FC01E056FF4FE491EE2309F43CC08A
:10219000222339F1233091F038F42130A9F0223094
:1021A00001F584B58F7D12C0273091F02830A1F061
:1021B0002430B9F4809180008F7D03C0809180002D
:1021C0008F77809380000DC084B58F7784BD09C060
:1021D0008091B0008F7703C08091B0008F7D809395
:1021E000B000F0E0EE0FFF1FE457FF4FA591B49150
:1021F0009FB7F894611104C08C913095382302C0C8
:10220000EC913E2B3C939FBF08958F929F92AF928B
:10221000BF92CF92DF92EF92FF926B017C010E94FE
:102220000E0E4B015C01C114D104E104F104F1F084
:102230000E940E0EDC01CB0188199909AA09BB097D
:10224000883E9340A105B10570F321E0C21AD10880
:10225000E108F10888EE880E83E0981EA11CB11CED
:10226000C114D104E104F10419F7DDCFFF90EF9020
:10227000DF90CF90BF90AF909F908F9008952FB731
:10228000F8946091DE067091DF068091E0069091EF
:10229000E1062FBF08951F920F920FB60F921124DF
:1022A0002F933F938F939F93AF93BF938091DE06BD
:1022B0009091DF06A091E006B091E1063091DD0635
:1022C00023E0230F2D3720F40196A11DB11D05C079
:1022D00026E8230F0296A11DB11D2093DD068093F1
:1022E000DE069093DF06A093E006B093E1068091AE
:1022F000E2069091E306A091E406B091E50601960E
:10230000A11DB11D8093E2069093E306A093E4061D
:10231000B093E506BF91AF919F918F913F912F911F
:102320000F900FBE0F901F901895CF93DF93CDB7EE
:10233000DEB7CE57D1090FB6F894DEBF0FBECDBFC2
:10234000789484B5826084BD84B5816084BD85B590
:10235000826085BD85B5816085BD80916E0081609C
:1023600080936E0010928100809181008260809342
:102370008100809181008160809381008091800044
:102380008160809380008091B10084608093B1006F
:102390008091B00081608093B00080917A00846069
:1023A00080937A0080917A00826080937A00809195
:1023B0007A00816080937A0080917A0080688093AF
:1023C0007A001092C10064E670E080E090E00E9424
:1023D00005118AE00E9464108091C306882321F0D1
:1023E0008EEB96E00E949F0210929F0610929D062F
:1023F00010929A06109299068AE0809398060E949D
:102400003F118B01809198060E94641061E08091D9
:1024100098060E94B810FFB6F8948091D9038111F4
:1024200024C0EAEAF0E08491EEEBF0E09491E82F2A
:10243000F0E0EE0FFF1FEA56FF4FA591B491EC912B
:10244000E92321F461E08AE00E94B8108AE00E944A
:1024500064108CB580618CBD8CB580648CBD8DE0C2
:102460000E9464108BE00E9464108091D9038F5FFA
:102470008093D903FFBE82E5809392061092930663
:1024800080919206909193060E94FE034AE0F42EFA
:102490008FEF0E94BF03FA94F110FACF84E996E01F
:1024A0000E94010420E030E0A90160E084E996E0A8
:1024B0000E941704F82E80939E0621E0821749F0AF
:1024C0000E943F11601B710B613D774058F381E022
:1024D00056C02AEA31E040E050E068E084E996E046
:1024E0000E94170482FF03C0F0929F0610C034E0E0
:1024F000F32E0E94C60380939E06FA94F110F9CF42
:102500008A3A11F082E03BC082E080939F0680917E
:102510009F06823021F0C12CD12C760105C0C12C40
:10252000D12CE12C20E4F22E20E030E0A90167E379
:1025300084E996E00E941704A701960169E284E904
:1025400096E00E94170480939E06882349F00E941B
:102550003F11601B710B613D774030F388E00FC085
:1025600080919F06823001F520E030E0A9016AE306
:1025700084E996E00E941704882341F086E0809366
:10258000990684E996E00E94B40329C00E94C6031C
:10259000807C803C19F483E080939F060E94C603F0
:1025A0000E94C6030E94C60384E996E00E94B40319
:1025B00080E5809392061092930681E00E94360F88
:1025C000882341F08EEB96E00E94E20E11E081112B
:1025D00007C005C080E00E94360F8111F3CF10E0E4
:1025E000E0910506F091060682E08083E091010605
:1025F000F09102061082E0910306F09104068FEC40
:10260000808310920D06E0910906F0910A0686E09B
:102610008083E0910706F0910806808180618083C5
:10262000E0910706F0910806808188608083E09140
:102630000706F0910806808180688083E091070694
:10264000F091080680818F7D808388E591E00E946B
:10265000660E11110BC084E691E00E94660E60E1E7
:1026600077E280E090E00E940511F9CF8CE891E0DC
:102670000E94660EE9961FAE1EAEE997EB961FAE5E
:102680001EAEEB97ED961FAE1EAEED9744E050E008
:102690006DEA71E0CE0189589F4F0E941F0A6E9625
:1026A0001FAE1EAE6E97A0961FAE1EAEA097A2964E
:1026B0001FAE1EAEA29744E050E062EB71E0CE0187
:1026C000845A9F4F0E941F0A1BA21AA21DA21CA27D
:1026D0001FA21EA24AE0DE0111967D01BD0180E02D
:1026E00090E00E946915F70101900020E9F7319709
:1026F000AF014E195F093E01B2E26B0E711CB701CA
:10270000C3010E941F0A1A8219821C821B821E8228
:102710001D82E9966EAD7FADE9976115710539F0BF
:10272000ED964EAD5FADED97C7010E941F0AB30154
:10273000C7010E94330EBE01645A7F4F0E94330EC0
:10274000FE01FF966F011182108223961FAE1EAE0E
:10275000239725961FAE1EAE25978E179F0771F003
:10276000DC016D917C9111976115710539F014961A
:102770004D915C911597CF010E941F0A89819A8122
:102780000E94AF168AA19BA10E94AF1625960EAD9E
:102790001FAD2597C80101978E3F9F4F60F4F6014A
:1027A00060817181A8018AED93E00E942B18F801E5
:1027B000E652FC4F108252985A9AE89A82E080932F
:1027C00069007894D6018D919C910E94AF166E9607
:1027D0008EAD9FAD6E970E94AF16E9968EAD9FAD00
:1027E000E9970E94AF1687EB91E00E94660E9AE08F
:1027F000492E512C1DA21CA2E4E4F1E0FBA3EAA3A4
:102800001FA21C821B82FA83E9831E82C3010E94DD
:10281000E20E870113018AED882E83E0982E6FE285
:1028200070E0C4010E941918009709F44AC0D4014D
:102830002C912F3271F4BFEF8B1A9B0A902F812FAE
:102840008101292E382E922D832D1801092F182F42
:10285000E6CF88198D3008F08CE0A82EB12CA501A8
:10286000B401CE01845A9F4F0E942B18ECE5F0E092
:10287000EC0FFD1FEA0DFB1D1082C8010E949F0294
:10288000F8018581882369F023961FAE1EAE239739
:10289000E4E4F1E0D601ED93FC9325961FAE259775
:1028A0001BC021E0AE01445A5F4FB101C8010E9434
:1028B000550C882349F38A0C9B1CC1010E949F027E
:1028C000C2CF94012A5D3340EF963FAF2EAFEF9712
:1028D000B101C6010E941107EF960EAD1FADEF9733
:1028E00006521C4FD8018C91811107C0B601C70157
:1028F0000E9411074EEC51E03FC01DA21CA2E4E46F
:10290000F1E0FBA3EAA31FA225968FAD25978111C5
:102910001CC0A0961FAE1EAEA09788EE93E0A0E06C
:10292000B0E0A4968CAF9DAFAEAFBFAFA497AEE0C2
:10293000B1E06E96BFAFAEAF6E97E7961FAE1EAE1C
:10294000E797A9961FAEA9971DC027E1A801B60178
:10295000C3010E94550C8823E1F2C6010E949F0228
:102960004DA95EA96FA978ADC3010E940B01B30107
:10297000C7010E941107A801B701CE01845A9F4FD9
:102980000E9483109091D8038091D7039817C9F1C2
:10299000E091D803B4E0EB9FF0011124E952FE4F1F
:1029A000208131814281538119A28E010F5D1F4F19
:1029B000CA01B9012AE030E040E050E00E94EF1582
:1029C000605DF80162938F012115310541055105C4
:1029D00079F7BF01CE01845A9F4F0E94400A60EDF3
:1029E00071E0CE01845A9F4F0E94400A8091D80323
:1029F0008F5F8093D8038091D8038F778093D8031B
:102A0000C1CFE7968EAD9FADE797009761F00E942A
:102A10009F02E7968EAD9FADE7970E94AF16E796AF
:102A20001FAE1EAEE79764E670E080E090E00E9483
:102A30000511F1E04F1A510809F0DCCE0E94CB09D4
:102A4000D2CEE5EFF5E01382128288EE93E0A0E0AB
:102A5000B0E084839583A683B78382E391E091837A
:102A6000808385EC90E09587848784EC90E097875D
:102A7000868780EC90E0918B808B81EC90E0938B4B
:102A8000828B82EC90E0958B848B86EC90E0978B28
:102A9000868B118E128E138E148EE2E9F6E080E59D
:102AA00080831182E4E9F6E015821682118613868E
:102AB00082E090E0A0E0B0E084879587A687B787A2
:102AC00013A215A614A684E491E093A782A717A6E3
:102AD0000895BB274A3031F4992322F4BDE2909542
:102AE00081959F4F0C947515BB27FB015527AA278D
:102AF000880F991FAA1FA41710F0A41B839550518B
:102B0000B9F7A05DAA3308F0A95DA193009779F702
:102B1000B111B1931192CB010C948E15DC01FC0123
:102B2000672F71917723E1F7329704C07C916D9301
:102B300070836291AE17BF07C8F308950E94E01535
:102B4000A59F900DB49F900DA49F800D911D112401
:102B500008952F923F924F925F926F927F928F9241
:102B60009F92AF92BF92CF92DF92EF92FF920F931C
:102B70001F93CF93DF93CDB7DEB7CA1BDB0B0FB626
:102B8000F894DEBF0FBECDBF09942A8839884888E3
:102B90005F846E847D848C849B84AA84B984C88479
:102BA000DF80EE80FD800C811B81AA81B981CE0F70
:102BB000D11D0FB6F894DEBF0FBECDBFED01089555
:102BC000A29FB001B39FC001A39F700D811D11246E
:102BD000911DB29F700D811D1124911D0895A1E2D8
:102BE0001A2EAA1BBB1BFD010DC0AA1FBB1FEE1F87
:102BF000FF1FA217B307E407F50720F0A21BB30BD2
:102C0000E40BF50B661F771F881F991F1A9469F74D
:102C100060957095809590959B01AC01BD01CF01A9
:102C20000895EE0FFF1F0590F491E02D09940F9386
:102C30001F93CF93DF938230910510F482E090E0F0
:102C4000E091E806F091E90620E030E0A0E0B0E095
:102C5000309719F14081518102811381481759073A
:102C6000C8F08417950769F4109731F012960C9309
:102C7000129713961C9327C00093E8061093E90659
:102C800022C02115310519F04217530718F49A0193
:102C9000BD01EF01DF01F801DBCF21153105F9F0AE
:102CA000281B390B2430310580F48A819B81611502
:102CB000710521F0FB019383828304C09093E906A0
:102CC0008093E806FE01329644C0FE01E20FF31F36
:102CD0008193919322503109398328833AC02091FE
:102CE000E6063091E706232B41F42091060130914E
:102CF00007013093E7062093E60620910401309106
:102D000005012115310541F42DB73EB74091080169
:102D100050910901241B350BE091E606F091E7067E
:102D2000E217F307A0F42E1B3F0B2817390778F0A2
:102D3000AC014E5F5F4F2417350748F04E0F5F1F01
:102D40005093E7064093E6068193919302C0E0E03A
:102D5000F0E0CF01DF91CF911F910F910895CF93B4
:102D6000DF93009709F481C0FC013297138212822D
:102D7000A091E806B091E906109781F42081318195
:102D8000820F931F2091E6063091E7062817390736
:102D900051F5F093E706E093E60667C0ED0120E009
:102DA00030E0CE17DF0740F44A815B819E01411578
:102DB0005105F1F0EA01F5CFD383C28340815181FF
:102DC000840F951FC817D90759F488819981840FFA
:102DD000951F0296918380838A819B81938382834E
:102DE0002115310529F4F093E906E093E8063DC08A
:102DF000E901FB83EA8349915991C40FD51FEC1770
:102E0000FD0761F480819181840F951F0296E9018D
:102E100099838883828193819B838A83E0E0F0E0B9
:102E200012968D919C911397009719F0FD01DC018A
:102E3000F7CF8D919C9111979D012E5F3F4F820F8F
:102E4000931F2091E6063091E7062817390769F4A9
:102E5000309729F41092E9061092E80602C0138216
:102E60001282B093E706A093E606DF91CF91089512
:102E7000A0E0B0E0EEE3F7E10C94AD15EC010097B3
:102E800021F4CB010E941716B4C0FC01E60FF71F16
:102E90009C0122503109E217F30708F4A8C0D901B8
:102EA0000D911C91119706171707B0F00530110509
:102EB00008F49BC0C80104978617970708F495C0CB
:102EC00002501109061B170B019311936D937C930C
:102ED000CF010E94AF1689C05B01A01AB10A4C0154
:102EE000800E911EA091E806B091E906612C712C2C
:102EF000E12CF12C109709F446C08D919C9111970B
:102F0000A815B905B1F56C0142E0C40ED11CCA1474
:102F1000DB0478F14C018A189B08640142E0C40E7E
:102F2000D11C1296BC9012971396AC91B5E0CB16BB
:102F3000D10440F0B282A38391828082D9016D9343
:102F40007C9309C00E5F1F4F800F911FF901918381
:102F50008083EB2DFA2FE114F10431F0D7011396A1
:102F6000FC93EE93129741C0F093E906E093E806D4
:102F70003CC06816790608F43C017D0112960D905C
:102F8000BC91A02DB7CF8091E6069091E7068816F8
:102F90009906E1F466167706C8F4809104019091D1
:102FA0000501009741F48DB79EB7409108015091FB
:102FB0000901841B950BE817F907C8F4F093E7069D
:102FC000E093E606F901718360830FC0CB010E9494
:102FD00017167C01009759F0A801BE010E94101835
:102FE000CE010E94AF16C70104C0CE0102C080E02E
:102FF00090E0CDB7DEB7EEE00C94C91581E090E02B
:10300000F8940C943A18FB01DC0104C08D910190F6
:10301000801921F441505040C8F7881B990B08953E
:10302000FB01DC0102C001900D9241505040D8F7E5
:103030000895FC018191861721F08823D9F79927FB
:1030400008953197CF010895FB01DC0101900D92A5
:103050000020E1F70895FB01DC014150504048F0A9
:1030600001900D920020C9F701C01D9241505040BF
:08307000E0F70895F894FFCF8A
:10307800FFFFFFFF0000EA06800000000000B0002C
:10308800F506C70003018F004B0855080000000033
:10309800C708C908C700C600C708C708C70800008E
:1030A80000005C09C908F308A909240902091609DE
:1030B80000000000D509C908C700C60000000000CC
:1030C800C708C908C700C6004465627567204D6F08
:1030D80064653A0053442D43617264206661696CEB
:1030E800656420746F20696E697469616C697A65BA
:1030F8002C2061626F7274696E672E0053442D43F1
:1031080061726420696E697469616C697A61746955
:103118006F6E2073756363656465642E00746573F0
:1031280074002E7478740066696C65206F70656E23
:10313800656420616E6420636C6F736564002F00A2
:043148000D0A00006C
:107E0000112484B714BE81FFF0D085E080938100F7
:107E100082E08093C00088E18093C10086E0809377
:107E2000C20080E18093C4008EE0C9D0259A86E02C
:107E300020E33CEF91E0309385002093840096BBD3
:107E4000B09BFECF1D9AA8958150A9F7CC24DD24C4
:107E500088248394B5E0AB2EA1E19A2EF3E0BF2EE7
:107E6000A2D0813461F49FD0082FAFD0023811F036
:107E7000013811F484E001C083E08DD089C08234E0
:107E800011F484E103C0853419F485E0A6D080C0E4
:107E9000853579F488D0E82EFF2485D0082F10E0AE
:107EA000102F00270E291F29000F111F8ED06801E7
:107EB0006FC0863521F484E090D080E0DECF843638
:107EC00009F040C070D06FD0082F6DD080E0C81688
:107ED00080E7D80618F4F601B7BEE895C0E0D1E017
:107EE00062D089930C17E1F7F0E0CF16F0E7DF06D8
:107EF00018F0F601B7BEE89568D007B600FCFDCFD4
:107F0000A601A0E0B1E02C9130E011968C91119780
:107F100090E0982F8827822B932B1296FA010C0160
:107F200087BEE89511244E5F5F4FF1E0A038BF0790
:107F300051F7F601A7BEE89507B600FCFDCF97BE46
:107F4000E89526C08437B1F42ED02DD0F82E2BD052
:107F50003CD0F601EF2C8F010F5F1F4F84911BD097
:107F6000EA94F801C1F70894C11CD11CFA94CF0C13
:107F7000D11C0EC0853739F428D08EE10CD085E9AC
:107F80000AD08FE07ACF813511F488E018D01DD067
:107F900080E101D065CF982F8091C00085FFFCCF94
:107FA0009093C60008958091C00087FFFCCF809118
:107FB000C00084FD01C0A8958091C6000895E0E648
:107FC000F0E098E1908380830895EDDF803219F02E
:107FD00088E0F5DFFFCF84E1DECF1F93182FE3DFCA
:107FE0001150E9F7F2DF1F91089580E0E8DFEE27F6
:047FF000FF270994CA
:027FFE00040479
:0400000300007E007B
:00000001FF
